:020000040000FA
:1000000030490010E1000000E5000000E7000000BA
:10001000E9000000EB000000ED000000000000001F
:10002000000000000000000000000000EF000000E1
:10003000F100000000000000F3000000FF4101009B
:10004000F7000000374601005D460100F7000000A0
:10005000F7000000F7000000F7000000F7000000C4
:10006000F7000000F7000000F7000000F7000000B4
:10007000F7000000F7000000F7000000F7000000A4
:10008000F7000000F7000000F7000000F700000094
:10009000F7000000F70000009B130000F7000000CD
:1000A000F7000000F7000000F7000000F700000074
:1000B000A9510100F7000000F7000000F700000060
:1000C000F7000000F7000000F7000000DFF80CD098
:1000D00000F0E8F8004800471F43010030490010D5
:1000E00005480047FEE7FEE7FEE7FEE7FEE7FEE71E
:1000F000FEE7FEE7FEE7FEE7CD000000FEE710B5F5
:1001000015F070FC15F08CFC15F07EFCAFF3008050
:1001100010BD10B516F054F9BDE8104016F00ABA3B
:1001200016F0BCB815F084BE09B10020704715F078
:10013000B9BB00207047000070B5374A0020A2F11B
:100140001401064601F10A030C5C54B11D5CAC427B
:1001500007D1145C2CB1641E14F0FF04145400D1B8
:100160000E540C5C1C54401CC0B20A28ECD370BD69
:1001700070B5294D0024143D641CE4B22E5D1EB1FF
:10018000864201D00A2CF7D3285523480C3040F87A
:100190002410283040F824203438035570BD1E4AFE
:1001A0000021143A491CC9B2535C834201D00A2988
:1001B000F8D3DBB2834210D117480C3050F821300D
:1001C00016480360144B343353F821304360002049
:1001D0005054114A505401207047002070470E4A75
:1001E0000021143A491CC9B2535C834201D00A2948
:1001F000F8D3DAB282420CD107480C3050F82120F3
:1002000006480260044A343252F82110416001204D
:10021000704700207047000074C5072000C0072009
:100220001E4BDA601870597070471C48C16800296D
:100230000DD0491EC1600AD1194902780A7042786E
:100240004A700A710021C17001714171817170475A
:10025000124A1161907070471048016900290BD053
:10026000491E016108D10E4A817811700021517038
:10027000C1700171417181717047084908817047EF
:100280000648B0F90810002907D0491E09B20181BB
:10029000002902D1084600F048BF7047080000104E
:1002A000B8C10720064C074D06E0E06840F00103A6
:1002B00094E8070098471034AC42F6D3FFF70AFFE2
:1002C00090700100D070010000B5002214F0F6FF1C
:1002D000C04380B2010241EA102080B200BD084450
:1002E00000EB104080B27047010241EA102080B25A
:1002F000704770477047704739006400FFFFFFFF89
:10030000002801DA404200B270470020F94A20215B
:100310001154401CC0B2C828FAD370470146F54AB0
:100320000020401CC0B2135C8B4201D0C828F8D317
:10033000704710B50021F04C0A2200BFB0FBF2F369
:1003400002FB13006054491CC9B218460529F5D3B5
:1003500010BDF0B5E94B0121202719700521E64AAF
:10036000002601E01C7844B1541814F8015C25B94A
:10037000814202D904F8017C05E0541814F8015DAB
:10038000303525701E70491E11F0FF01EAD1F0BD15
:1003900070B50D461446002802DAC043401C00B276
:1003A000FFF7C7FF601CC0B2FFF7D3FF2846FFF777
:1003B000B5FFFF2819D0D04ACE4B0021A14201D26F
:1003C000555C13E004D14FF02E051D54555C03E03D
:1003D000555C202D03D04CB11E1806F8015C401E60
:1003E000491CC9B2C0B20529E8D370BD1D54F6E757
:1003F000F0B50D461446002801DA404200B2FFF77E
:1004000098FF601CC0B2FFF7A4FF2846FFF786FFE5
:10041000B94AB84B002164B9555C202D09D0561853
:100420007678202E03D12D261F1807F8016C1D5455
:100430000FE0A14201D2555CF9E704D14FF02E053F
:100440001D54555C02E0555C202D02D01E1806F8A4
:10045000015C401E491CC9B2C0B20529DBD3F0BD06
:10046000FEB52B23002802DA404200B22D230025DE
:100470000A266C4690FBF6F706FB170060556D1CCC
:100480006DB238B20A2DF5DB0126002509202027A0
:1004900000E046B114F800C0BCF1000F03D1904257
:1004A00001DD275405E0265C3036265400266D1CFD
:1004B000EDB2401E40B20028EBDA2D2B02D163557D
:1004C0006D1CEDB26AB168B205E0231813F8013C67
:1004D0002354401E40B29042F7DC2E206D1CA054E5
:1004E000EDB20846FFF71AFF0021824A04E0635C80
:1004F000461A491C935549B2A942F8DBFEBDFEB528
:100500002B23002801DA40422D2300250A266C46C1
:10051000074690FBF6F006FB107767556D1C6DB231
:100520000A2DF5DB012600250920202700E046B131
:1005300014F800C0BCF1000F03D1904201DD275434
:1005400005E0265C3036265400266D1CEDB2401EB8
:1005500040B20028EBDA2D2B02D163556D1CEDB2B1
:100560006AB168B205E0231813F8013C2354401E19
:1005700040B29042F7DC2E206D1CA054EDB208462C
:10058000FFF7CCFE00215B4A04E0635C461A491C7D
:10059000935549B2A942F8DBFEBDFEB52B260028D3
:1005A00001DA40422D2600240A276D46844690FB3E
:1005B000F7F007FB10CC05F804C0641C64B20A2CE9
:1005C000F4DB0127002009244FF0200C00E04FB19C
:1005D00015F804E0BEF1000F04D19C4202DD05F8DD
:1005E00004C005E02F5D30372F550027401CC0B2F6
:1005F000641E64B2002CEADA2D2E02D12E54401C67
:10060000C0B26BB144B205E02E1916F8016C2E553C
:10061000641E64B29C42F7DC2E24401CEC54C0B231
:1006200001EB810102EB8101CAB20021314B04E0F0
:100630006C5C561A491C9C5549B28142F8DBFEBDE0
:1006400070B50D4616461C46FFF773FE601CC0B21F
:10065000FFF77FFE05EB850006EB8000C1B2264A5E
:10066000244B0020A04201D2155C5D5406D3155CDA
:10067000202D03D04CB15E1806F8015C491E401CC9
:10068000C0B2C9B20528EDD370BD5D54F6E730B5F0
:10069000044608461546FFF741FEFF2809D0154AD3
:1006A0002178002905D04319641C401CD154C0B2E4
:1006B000F6E730BD70B50D461446FFF73AFE601CF4
:1006C000C0B2FFF746FE2846FFF728FE0A4B094A4C
:1006D000002124B95D5C202D01D0155416E0A14203
:1006E00001D25D5CF9E70BD14FF02E0515545D5C2E
:1006F00009E0000020C207201C00001021000010AB
:100700005D5C202D02D0161806F8015C401E491CC5
:10071000C9B2C0B20529DCD370BD801801D5084428
:1007200002E0884200DB401AC0B270472DE9F04F6A
:100730000B4642424021FFF7F0FF1846FFF7EEFD5F
:1007400006F0FF0C3023DFF8F0E3FC4920224FF0E5
:1007500040094FF0C2084FF0210A4FF0230BBCF1C3
:10076000550F2DD0C027BCF1500F7BD0BCF1510FDD
:1007700070D0BCF1420F6ED0BCF1530F6CD0BCF105
:10078000490F6AD10F54401CC0B22E2301F80080DB
:10079000401CC0B20B54401CC0B2C8230B54401CB8
:1007A000C0B2ED230B54401CC0B2E2230B54401CDA
:1007B000C6F30723C0B2092B70D231330B54F2E2D7
:1007C000C6F30746522E0BD101F80080401CC0B280
:1007D000EA260E54401CC0B2EB260E54401CC0B298
:1007E00090460A54401CC0B20A54401CC0B20A547D
:1007F000401CC0B20A54401CC0B20A54401CC0B2D3
:10080000B9E100BF9CF83870C4F30722BA427ED128
:100810009CF82C70C4F30742BA42F8D10B54401C28
:10082000C0B23A2201F800A0401CC0B20A54401CD9
:10083000C0B20B54401CC0B201F80090401CC0B2C2
:100840000A54401CC0B20B54401CC0B201F800B0A6
:10085000FAE107E066E093E02EE21BE1012060F39D
:100860000F2453E0B5492E260F54401CC0B201F8A6
:100870000080401CC0B20E54401CC0B2CF260E54A3
:10088000401CC0B2D1260E54401CC0B20A54401CB9
:10089000C0B20A54401CC0B20A5468E070E200BF03
:1008A00091F838C0C4F30727674505D191F82C109B
:1008B000C4F307478F427ED03BE10A54401CC0B2CC
:1008C0000B54401CC0B201F800A0401CC0B201F89B
:1008D0000090401CC0B20A54401CC0B20A54401CD4
:1008E000C0B20B54401CC0B201F800B0C4F30740C2
:1008F00000222121FFF7DEFE002223213046FFF7F0
:10090000D9FEC4F30720401E0C28A7D200E039E12D
:10091000C4F30721BDE8F04F8948002200EB8100B5
:100920004021B4E6DFF814C22E2155260CF80070E1
:10093000401CC0B20CF80080401CC0B20CF8001083
:10094000401CC0B2E2210CF80060401CC0B2FB2683
:100950000CF80010401CC0B20CF80060401CC0B283
:10096000F5260CF80060401CC0B20CF80020401CBA
:10097000BEF83C70C0B2E6B27146BE4290D0D8E03C
:10098000C6F3074CBCF1430F2AD0BCF1530F7ED005
:10099000BCF15A0F7CD0BCF1570F7AD0BCF14B0F91
:1009A00078D1C1270F54401CC0B2E0270F54401C1F
:1009B0008C46C0B200E075E0F2270F54401CC1B273
:1009C000C6F30720092866D231300CF80100491C13
:1009D000C8B2EA210CF80010401CC0B2E5215BE16E
:1009E00056490F54401CC0B22E2701F80080401C0D
:1009F000C0B20F54401CC0B2C1270F54401CC0B23B
:100A0000E0270F54401CC0B2F2270F54401CC1B263
:100A1000C6F30720092809D2484E31307054491CCA
:100A2000C8B23254401CC0B232547FE0A0F1090673
:100A30005A2E15D2401C0A27B0FBF7F6B046DFF855
:100A4000FCC0303607FB18000CF80160491CC9B225
:100A500030300CF80100491CC8B20CF8002065E0E9
:100A600036484254491CC9B24254491CC9B2425486
:100A7000491CC8B2BEF83C10E6B2F4468E4258D1CA
:100A80009CF83870C4F30721B94252D104E00BE05E
:100A900058E079E08DE1E9E09CF82C70C4F307415F
:100AA000B94246D12549B9E624494FF02E0C0F54DE
:100AB000401CC0B201F80080401CC0B201F800C068
:100AC000401CC0B24FF0C10C01F800C0401CC0B2C5
:100AD0004FF0E00C01F800C0401CC0B24FF0F20C27
:100AE00001F800C0401CC6F30721C0B24FF0430C10
:100AF00009290AD2114E31313154401CC0B2375449
:100B0000401CC0B206F800C010E009395A290B4950
:100B100005D20F54401CC0B201F800C003E00A54D3
:100B2000401CC0B20A54401CC0B20A54401CC0B29F
:100B3000A0E70249C1E600000040024020C20720B1
:100B4000DC6F010001F80080401CC0B2C7260E54C3
:100B5000401CC6B290468A551046761CF2B28854A4
:100B6000521CD2B28854521CD2B28854521CD2B2F7
:100B70008854521CD0B2BEF83C20E6B2F4469642ED
:100B80003FF440AE424698E6C1270F54401CC0B225
:100B9000E0270F54401CC0B2F2270F548C46401C73
:100BA000C1B2C6F3072009280CD231300CF801007D
:100BB000491CC8B2F0210CF80010401CC0B20CF85F
:100BC000002016E0A0F109065A2E68D2401C0A2720
:100BD000B0FBF7F6B04630360CF80160491C07FB55
:100BE0001800C9B230300CF80100491CC8B2F0211D
:100BF00052E0401CC1B260469EE000BF98F838C089
:100C0000C4F3072767457AD198F82CC0C4F3074787
:100C1000674574D14354491CC9B23A2200F801A077
:100C2000491CC9B24254491CC9B24354491CC9B2F7
:100C300000F80190491CC9B24254491CC9B243543E
:100C4000491CC9B200F801B0E8B200222121FFF727
:100C500031FDC5F3072000224021FFF72BFDC5F32E
:100C60000740BDE8F04F0022232123E5A0F109064B
:100C70005A2E14D2401C0A27B0FBF7F6B046303685
:100C80000CF80160491C07FB1800C9B230300CF8A1
:100C90000100491CC8B2EA210CF80010A9E70CF8C1
:100CA0000120491CC9B20CF80120491CC9B20CF83A
:100CB0000120491CC9B29EE7FA490F54401CC0B23A
:100CC0002E2701F80080401CC0B20F54401CC0B257
:100CD000C1270F54401CC0B2CF270F54401CC0B2D4
:100CE000D1270F54401CC6F30721C0B2092907D2EF
:100CF000EC4E31313154401CC0B2325419E025E081
:100D0000A1F109065A2E0FD2491C4FF00A08B1FB77
:100D1000F8FCE44F0CF1300608FB1C113E54401C5B
:100D2000C0B23031395404E0DE490A54401CC0B22C
:100D30000A54401CC1B2DB48E6B2F0464254491C9A
:100D4000BEF83C70C9B2BE423FF458AF4254491C91
:100D5000C9B24354491CC9B200F801A0491CC9B228
:100D600000F80190491CC9B24254491CC9B242540E
:100D7000491CC9B24354491CC9B200F801B0B5E5D9
:100D8000A3F109045A2C0DD25B1C0A25B3FBF5F420
:100D900004F130060E54401C05FB1433C0B230334E
:100DA0000B5403E00A54401CC0B20A54401CC0B2A9
:100DB0000A54BDE8F08F70B50446084615461E4635
:100DC000FFF7ACFAB74B0146FF2804D106E01A54EE
:100DD000641C401CC0B22278002AF8D1B2480078C6
:100DE000002804D0002E02D029445F20585470BD42
:100DF0002DE9FF4F8146DDE90D048A469346FFF752
:100E00008DFA2022DFF8A082A6490A234FF0640C55
:100E1000012C09D198F8005035B10D18A5F10E0537
:100E2000AA706A702A7020E099FBF3F603FB16970C
:100E30000D183037A5F10E05022CAF7096FBF3F7B5
:100E400003FB176606F130066E7099FBFCF606F19F
:100E5000300605F80E6B08D198F800602EB1A5F1A8
:100E60000A05AA706A702A7021E09AFBF3F603FB68
:100E700016A70D183037A5F10A05032CAF7096FBA5
:100E8000F3F703FB176606F130066E709AFBFCF66B
:100E900006F13006674605F80A6B08D198F800603D
:100EA0002EB1A5F10605AA706A702A7022E09BFB9C
:100EB000F3F603FB16B70D183037A5F10605042C21
:100EC000AF7096FBF3F703FB176606F130066E7002
:100ED0009BFBFCF606F13006674605F8066B09D168
:100EE00098F8004034B1A5F102050A546A702A70DE
:100EF000BDE8FF8F039C94FBF3F203FB12443034F4
:100F00000C5492FBF3F403FB14220844A0F10200FA
:100F100030324270039991FBF7F101F13001017019
:100F2000E6E717B501EB810002EB8000C2B29DF845
:100F300000305E4803F00F0100EB1313445C594985
:100F40008C54521ED2B21B788B549DF80130521E25
:100F500003F00F04D2B2045D8C54521E00EB131345
:100F6000D2B21B788B549DF80230521E03F00F044E
:100F7000D2B2045D8C54521E00EB1313D2B21B7814
:100F80008B549DF80330521E03F00F04D2B2045D5F
:100F90008C54521E00EB1310D2B2007888541EBD40
:100FA00010B504460846FFF7B9F9404904F00F02AE
:100FB0008B5C3C4A01EB14111354401EC0B20978FB
:100FC000115410BD01EB810102EB8101374A10B5CC
:100FD00000F00F03C9B2D45C324B02EB10105C542A
:100FE000491EC9B20078585410BD01EB810102EBD3
:100FF0008101CBB22D4910B500F00F028C5C294A5B
:10100000D45404095B1E04F00F00DBB2085CD0541A
:101010005B1ED8B2230903F00F040C5D1454401E6C
:101020001B09C0B2C95C115410BD01EB810102EB78
:101030008101CBB21D4910B500F001028C5C194A48
:10104000D45444085B1E04F00100DBB2085CD054A9
:101050005B1ED8B2630803F001045B080C5D1454F6
:10106000401E03F00104C0B20C5D14545B08401E26
:1010700003F00104C0B20C5D14545B08401E03F081
:101080000104C0B20C5D14545B08401E03F001045F
:10109000C0B20C5D1454401EC4B25808085C105510
:1010A00010BD000020C207201BC007207270010085
:1010B00030B58A4901238A4D91F9012091F9041034
:1010C00000EB80048A4202D105F8243030BD844D03
:1010D0004C1C00EB800005EB8000A24201D103759F
:1010E00030BD8C1CA24202D180F8283030BDCC1C0F
:1010F000A24202D180F83C3030BD0C1DA24202D188
:1011000080F8503030BD4C1DA24202D180F86430CE
:1011100030BD8C1DA24202D180F8783030BDC91D8F
:101120008A42FBD180F88C3030BD6E4B1A88521E3B
:10113000104400B218806C4A00EB800002446748FB
:10114000136803601279027142781144417070474C
:10115000F0B5644D644FB5F9004004EB8406641C9F
:101160002C805E4C3E4425683560257935712070B1
:1011700061702271A370F0BDF0B505460E461746AA
:10118000FFF7C3F8564C0020401C15F8011BC0B2F5
:1011900004F8011B1428F7D35FF00000401C16F878
:1011A000011BC0B204F8011B1428F7D35FF0000044
:1011B000401C17F8011BC0B204F8011B1428F7D318
:1011C0005FF00000401C13F8011BC0B204F8011BC3
:1011D0001428F7D3F0BD10B5029CFFF7CDFF3F48B0
:1011E000C37882784178A120FFF7B2FF642094FB96
:1011F000F0F0BDE81040C0B2FFF73FB82DE97047EE
:101200000846FFF78BF8364C4FF020084FF0300CB3
:1012100004F80080401CC0B24FF0210904F800C05F
:10122000401CC0B24FF0400A04F80090401CC0B20D
:10123000414604F800A0401CC0B200222154401CCA
:10124000C0B22154401CC0B2232104F800C0401C8D
:10125000C0B22154401CC5B2C6F307402121FFF79C
:1012600029FAF0B200222321FFF724FAC6F307205F
:10127000401E0C2802D3012060F30F261B49C6F341
:10128000072001EB800000224021FFF700FA04F85C
:1012900005806D1CE8B23A2104F800C0401CC0B2C1
:1012A000464604F80090401CC0B200222154401C65
:1012B000C0B2212104F800C0401CC0B204F800A054
:1012C000401CC5B2F8B2FFF7F5F9C7F307200022BA
:1012D0004021FFF7EFF96655BDE87087B8C10720D8
:1012E00020C2072038C0072078400010DC6F0100C2
:1012F00090F900308B4200DA027090F9003093428E
:1013000000DD0170704790F900308B4200DA017007
:1013100090F90010914200DD02707047B0F9003082
:101320008B4200DA0180B0F90010914200DD0280AA
:101330007047B0F900308B4200DA0280B0F900301B
:10134000934200DD0180704703688B4200DA02603F
:101350000368934200DD016070470000FF491120DF
:1013600008727047FE490820FE4A0870002000BF3E
:10137000C0EBC00303EB430312F82330052B04D06A
:10138000401CC0B20C28F3D3704708707047002887
:1013900001DA404200B270477047F348016821F01B
:1013A000E06101607047704770477047EF49002067
:1013B0000870487088703C3148707047F0B5002064
:1013C000EB4A01464FF4F4731154401C00B29842AA
:1013D000FADB00214FF0140C7A2301FB03F001EB40
:1013E00081039B0001EB81041BB20CEB84041CE025
:1013F000DE4DE04FA435ED5C05EB450517F81560B3
:10140000165407EB4505401C6E781654401CAE7808
:101410001654401CEE781654401C2E791654401C6D
:101420006D791554401C5B1C1BB29C42E0DC491CCE
:1014300009B20429D0DBF0BD2DE9F04FDFF820B36D
:10144000F3B058469BF80410491CC9B28BF804103D
:10145000142909D300210171C278521CD2B2C27082
:10146000052A01D38BF80310C04802AF3C30024676
:101470000178A0F5987A92F9010092F90440BAF93E
:1014800014200092BAF91220019207EB82029646CC
:1014900000297ED00AF598784546192995F9022049
:1014A0006D9202EB420303EB0212B34B03EB820695
:1014B000AB4AD27C349295F9012007EB820569D0C2
:1014C0001A2968D0424603F5A07392F902204FF41E
:1014D000C87C02EB421203EB42021B297ED01C297E
:1014E0007DD05346C146B3F90A3069931D2977D0A0
:1014F000B32901F029844246202992F90220C2EB47
:10150000C20202EB420201F0DD844246954B92F9A1
:1015100002202129C2EBC20202EB420203EB82024B
:1015200001F0D385262901F06D87424603F5286333
:1015300092F90220AF2902EB420203EB421202F0C1
:101540000480B02902F09381B22902F032820C2982
:1015500002F0B38242460D2992F9042007EB82087B
:1015600002F0BA823B2902F0F08252469029B2F989
:101570001A206C9207EB8202689202F0FB828F299C
:1015800002F0B884912902F0DC84AA2902F0B08527
:1015900002E076E1D4E3EFE352469229B2F91A3041
:1015A000B2F918206A9202EB030C07EB820207EBF8
:1015B0008C066B9202F0EF85932902F06887AB29C5
:1015C00003F07180AD2903F089800AF5987393F9CF
:1015D000042093F901309A1A9B1E02E0FEE3FEE319
:1015E000FEE35BB2332903F079823A2903F08D825E
:1015F0000AF18005B5F92C502E466D1EAC46A22985
:1016000003F09582A32903F0F8820AF598756D78A6
:101610006D1E6DB26795A42904F05081574D89293C
:10162000A94604F0B5810AF598758B2904F0FD816F
:101630008D2904F03A824D4E4FF0A409232904F07D
:1016400055832429FBD03C29F9D03D29F7D08329A3
:10165000F5D04B29F3D07A2904F06A837B2904F072
:101660009483B42904F096836FF007060F2904F0E1
:10167000C1831129FBD0102904F06086122904F0DF
:10168000DD86132905F07780A946142905F0E78146
:101690001F2905F01F84152905F0E785172905F096
:1016A0003287162905F0A0872D4E6929B57C34951F
:1016B00096F8285006F06C816B29FBD06A2906F059
:1016C0005B816C29FBD06D29F4D06E2906F068810E
:1016D0004E466F2906F0A283712906F0C283702955
:1016E00006F0DB831E4D74296D7F699506F0E58356
:1016F000422906F06A844429FBD0432906F09884E5
:10170000472906F06886482906F0BA864529F5D0AB
:10171000462906F0E986492906F0F286AE2906F048
:101720002A876FF00605B62907F02582BB2907F046
:10173000A4824C2907F0E782952907F03E83962979
:1017400007F05A839729FBD0982907F06A839929D3
:1017500007F072830AF5B87512E0000000400240FD
:1017600008C00720F0C70720004003407CC10720C5
:10177000FED90720DC690100D0C507201CDE072048
:1017800005F118069A2907F08A859B2907F08186BA
:101790009C29FBD09D2907F08F869E2907F0DB86C8
:1017A0009F2907F0A387A02907F0F6875646272927
:1017B000B6F916506895B6F9105008F0A08029299E
:1017C000FBD0282908F091802A29FBD02B29F4D0BE
:1017D000B6F91EC02C2908F09C804E462D2908F031
:1017E000D8802F2908F0ED80302908F004812E29B7
:1017F00008F00F81312908F00B82552908F030825A
:10180000562908F04F82542908F07C82592908F0A3
:10181000A382762908F0E282852908F000838729CF
:1018200008F04D83522908F05E83532908F07A832B
:101830004F2908F0988355467829B5F9165007EBDB
:10184000850508F02085182908F056851E2908F01E
:101850008C85572908F0CE85582908F0EF850C258E
:1018600012264FF00F0C772909F09E80792909F094
:1018700003834E2909F0C0834D2909F0F58309F04F
:101880002CBE94A1029199A103919EA10491A3A1C0
:101890000591A8A1ADA20691CEF81020B1A2CEF874
:1018A0001420B6A2CEF81820BAA2CEF81C20BFA2EF
:1018B000CEF82020C3A2CEF82420C8A2CEF828203B
:1018C000CCA2CEF82C20D1A2CEF83020D5A2CEF8D2
:1018D0003420DAA2CEF83820DEA2CEF83C20DDE9B2
:1018E0000013194407EB8101E0A28A61E5A2CA61F5
:1018F000EAA20A62EFA24A62F4A28A62F9A2CA626A
:10190000FEA2DFF810840A6328B1221A4146022A97
:1019100004DD801C04E00020414601E0A04201DD1E
:1019200088F804009BF803005D46052807D291F96A
:10193000040007EB8000001D0EC802980AE098F929
:10194000041035AC07EB8101091D04EB80000EC9C2
:1019500050F8140CFFF710FCEE4C0122B03C232190
:10196000A08C80B2FEF7A6FEE08C0122242180B27A
:10197000FEF7A0FEE84C207A4FF000024FF0250160
:10198000FEF798FE207900225E21FEF793FE207874
:1019900000222621FEF78EFE207B00223C21FEF74E
:1019A00089FEA08B00227B21FEF784FE217EDB488E
:1019B000002200EB81003E21FEF769FEE87C70B159
:1019C0003A20FEF7ABFCD34E2024683634543A203C
:1019D000FEF7A4FC34543A20FEF7A0FC345498F9E6
:1019E0000400D0B198F90110B9B1884205D1C949B4
:1019F0000120683181F83C000FE0401A012802D034
:101A0000022806D009E0C3490120683181F8280086
:101A100003E0C0490120683108756879401CC2B2F2
:101A20006A71BAF9121001EB8103B2EBC30F01DB4B
:101A300000226A715646F1B1D0B22824B0FBF4F00E
:101A4000401C00227A21FEF735FE68790022B0FBA7
:101A5000F4F0401C7A21FEF72DFE708A012810D088
:101A60006879AF4EB0FBF4F000EB401006EB40009D
:101A7000818C49B91BE06FF001027A21A9A008F01E
:101A8000C3B8A74CA08C50B14FF0FF3422465D2163
:101A9000AAA0FEF7FCFD22464021A8A0EFE720897E
:101AA00001225D21FEF706FEB4F90A000DE000896F
:101AB00001225D21FEF7FEFD6879B0FBF4F000EB3A
:101AC000401006EB4000B0F90A000222402108F065
:101AD00068BF00002020C220F0E0E1EEF2E5202007
:101AE000202072E8F1F22E200000000055E17A3D3E
:101AF0002020205DC22049E17A3D2020202040C0E6
:101B00000000000055ED3D2020202023C22049ED9B
:101B10003D202020202024C0000000002030253A55
:101B2000305E3A302620303C2F3E20202F307B2064
:101B30000000000020C1E0F2E0F0E5FF20202020BE
:101B400020202020202020200000000020C1CFD114
:101B5000204E312020202020202020202020202046
:101B60000000000020C1CFD1204E322020202020B4
:101B70002020202020202020000000002044432F8F
:101B80004443204E312020202020202020202020CF
:101B9000000000002044432F4443204E32202020E8
:101BA00020202020202020200000000020C1CFD1B4
:101BB000204E3520202020202020202020202020E2
:101BC0000000000020C1CFD1204E36202020202050
:101BD00020202020202020200000000020C1CFD184
:101BE000204E3720202020202020202020202020B0
:101BF0000000000020C1CFD1204E3820202020201E
:101C000020202020202020200000000020C1CFD153
:101C1000204E39202020202020202020202020207D
:101C20000000000020C1CFD1204E313020202020E4
:101C300020202020202020200000000020C1CFD123
:101C4000204E313120202020202020202020202044
:101C50000000000020C1CFD1204E313220202020B2
:101C600020202020202020200000000020D1E5F2AC
:101C7000FC20202020202020202020202020202088
:101C80000000000020CDE0E3F0F3E7EAE0202020B0
:101C900020202020202020200000000020C2EDE590
:101CA000F8EDE8E520E4E0F2F7E8EAE8202020207B
:101CB0000000000020D3F1F2E0EDEEE2EAE820209F
:101CC00020202020202020200000000020C6F3F04B
:101CD000EDE0EB20F1EEE1FBF2E8E920202020200E
:101CE0000000000020C2FBF5EEE420202020202090
:101CF00020202020202020200000000020D2E5F11C
:101D0000F220202020202020202020202020202001
:101D100000000000B8C1072020400240DC6F010035
:101D200010C7072020D0E0E1EEF2E020E1E5E72057
:101D3000E1E0F2E0F0E5E920000000004572720009
:101D400096F83D00C34CC0077DD10DE0C2A2C8A1EA
:101D5000CDA002E0D24A11460846FFF70DFA98F9E5
:101D60000200401C08F030B8B6F90800002804DD75
:101D7000CCA00390D1A003E098E0D6A00390DBA014
:101D80000690E0A00490E5A00590BBF86E0008B1B5
:101D9000E8A00590307B08B1ECA000E0F1A007902E
:101DA000F6A00890FBA00990BD482D1D15300A90A3
:101DB0000ECDFEA0FFF7E0F998F902000022401CCA
:101DC00080B24021FEF776FC98F9020000EB40015A
:101DD00001EB001004EB8000408802E0F2E044E3F5
:101DE000EDE301222421FEF765FC98F902000122AF
:101DF00000EB400101EB001004EB80007A218088A9
:101E0000FEF758FC98F9020000EB400101EB0010CE
:101E100004EB8000B0F90800FEF772FA02222321D9
:101E2000FEF71EFB98F90200002200EB400101EBD7
:101E3000001004EB80003F21B0F90A00FEF710FB10
:101E400098F9020000E036E000EB400101EB0010E1
:101E500004EB80000022008A7721FEF72BFC98F922
:101E60000200002200EB400101EB001004EB8000B7
:101E70005E21C088FEF71EFC98F90210D14830F9A7
:101E80001130A3F5AA42553A05D1521E5121CEA0D8
:101E9000FEF7FDFB05E030F8110001225121FEF7AD
:101EA00009FC98F8010005287AD0E8E496F83D008E
:101EB000684CC00705D03498794B00283FF44AAFEE
:101EC00044E7B6F90800002803DD76A003907BA064
:101ED00002E080A0039085A005908AA00490307B4A
:101EE00008B19AA000E09FA00690A4A00790A9A026
:101EF00008906B482D1D153009900ECDABA0FFF753
:101F00003BF998F902000022401C80B24021FEF704
:101F1000D1FB98F90200012200EB400101EB001017
:101F200004EB800024214088FEF7C4FB98F90200EE
:101F300000EB400101EB001004EB8000B0F9080059
:101F4000FEF7DEF902222321FEF78AFA98F9020051
:101F5000002200EB400101EB001004EB80003F2168
:101F6000B0F90A00FEF77CFA98F90200002200EBB3
:101F7000400101EB001004EB80007721008AFEF79E
:101F800099FB98F902108F4830F91130A3F5AA4255
:101F9000553A06D1521E51218BA0FEF778FB06E080
:101FA000A1E330F8110001225121FEF783FB98F8DC
:101FB0000100042849F0918282480121803080F894
:101FC0003C105CE482A10291B2F91010864CB1F58C
:101FD000FA7F01DB85A30293614501DB89A10291B0
:101FE000B2F90A10002903DD2EA1039133A102E00A
:101FF00038A103913DA1059188A104918DA106917D
:1020000092A1079197A108919CA10991A1A10A9180
:10201000A6A10B91ABA10C91B0A10D91B5A10E9110
:102020001F4915310F91B2F92410012910D002294E
:102030000FD0D5E9012357F82010B4A0FFF79CF882
:1020400098F9020000EB401004EB4000008969E1C0
:10205000D2E1D7E1D0C5072020202020EDE520EFF8
:10206000EEE4EAEBFEF7E5EDE02020202020000082
:102070002020202020C1E0F2E0F0E5FF20B923205D
:10208000202020202020000020202020202020C0F0
:10209000C2C0D0C8DF212020202020202020000026
:1020A0001070010020202020E7E0F0FFE6E0E5F2DC
:1020B000F1FF202020202020000000002049E7E040
:1020C000F03D2020202020202023C0202020202080
:1020D00000000000202020F0E0E7F0FFE6E0E5F25D
:1020E000F1FF202020202020000000002049F0E007
:1020F000E7F03D20202020202023C0202020202089
:10210000000000002055E1E0F23D202020202020AA
:1021100020202020202024C2000000002055E1E0E3
:10212000F22EF12EF22E3D202020202020207AC2F7
:10213000000000002055E1E0F22EF12EF22E3D28A5
:102140005E25292020207AC20000000020202020C7
:10215000C4D22E20EDE5E8F1EFF0E0E2E5ED20203D
:102160000000000020202074E1E0F2203D2020202B
:102170003FB043202020202000000000202020C766
:10218000E0F0FFE43D2020202077252020202020A3
:102190000000000020202043E1E0F23D202020202C
:1021A0002051C02AF72020200000000020202020FD
:1021B000C1C0D2C0D0C5DF204E402020202020202A
:1021C00000000000A0C107202D2D2D2D2D2D000079
:1021D000202020D2E8EF20EDE5E8E7E2E5F1F2E5A6
:1021E000ED2020200000000010C707202020202024
:1021F00020203438563530416820202020202020EF
:1022000000000000202020202020343856343041A7
:102210006820202020202020000000002055E1E040
:10222000F2203D2020202024C22020202020202019
:10223000000000002074312020203D202020203F7D
:10224000B0432020202020200000000020743220F5
:1022500020203D2020202028B043202020202020A6
:10226000000000002074332020203D202020202961
:10227000B0432020202020200000000020743420C3
:1022800020203D202020202BB04320202020202073
:10229000000000002074EEEAF02E3D202020205B9C
:1022A000B043202020202020000000002074F1E80E
:1022B000EB2E3D202020205DB04320202020202038
:1022C0000000000020534F4320203D202020207795
:1022D000412AF720202020200000000020534F48F2
:1022E00020203D202020203E412AF72020202020B1
:1022F000000000002049F8F3EDF22E3D2020203CA4
:10230000412020202020202000000000202020202C
:10231000C1E0F2E0F0E5FF204E4020202020202008
:102320000000000001222421FEF7C4F998F9020000
:1023300000EB401004EB4000B0F90A00FDF7E0FFAD
:1023400002222321FEF78CF898F90200002200EB0C
:10235000401004EB40003F2190F93A00FEF780F86E
:1023600098F90200002200EB401004EB4000282105
:1023700090F93B00FEF774F898F90200002200EB98
:10238000401004EB4000292190F93C00FEF768F86A
:1023900098F90200002200EB401004EB40002B21D2
:1023A00090F93D00FEF75CF898F90200002200EB7E
:1023B000401004EB40005B2190F93E00FEF750F81E
:1023C00098F90200002200EB401004EB40005D2170
:1023D00090F93F00FEF744F898F90200012200EB63
:1023E000401004EB40007721408AFEF763F998F82B
:1023F00001000A2814D017E0E5A00290EAA003909B
:10240000EFA004E0E2A00290F3A00390F8A003463E
:102410000490AFF20810DDE90212FEF7ADFE21E0F4
:10242000F949012081F83C0098F90200012200EBF3
:10243000401004EB40003E21008AFEF73BF998F97A
:102440000210012201EB410000EB0111EF4800EB0B
:102450008100B0F908100A2091FBF0F000B23C2195
:10246000FDF7FEFF98F90200F9E3B6F90800E74C22
:10247000002805DDAFF2D4300390AFF2C03004E0A5
:10248000AFF2B0300390AFF29C30AFF27020049006
:10249000DFA00590E4A00690E9A00790EE48EFA128
:1024A0000890AFF2F820D5E90123FEF765FE98F910
:1024B00002000022401C80B24021FEF7FBF898F990
:1024C0000200012200EB400101EB001004EB800050
:1024D00024214088FEF7EEF898F9020000EB400155
:1024E00001EB001004EB8000B0F90800FDF708FFD5
:1024F00002222321FDF7B4FF98F90200002200EB2D
:10250000400101EB001004EB80003F21B0F90A000C
:10251000FDF7A6FF98F90200D64C00EB401004EB43
:1025200040000022408A7721FEF7C4F898F90200A3
:10253000012200EB401004EB4000B0F90E10B0F99E
:10254000100041434FF47A7091FBF0F080B25121BA
:10255000FEF7B0F898F80100082803D1AA49012035
:1025600081F83C0098F90200012200EB401004EBD6
:1025700040005121C089FEF79DF898F90200012220
:1025800000EB401004EB4000B0F914100A2091FB5E
:10259000F0F080B23C21FEF78DF898F9020000229D
:1025A00000EB401004EB40003E21008AFEF782F869
:1025B00098F9020000EB401004EB400099E2A3B14F
:1025C000012B7ED0022B7DD0032B49F02B82AFF262
:1025D00000410291B2F91010A64E4446B1F5FA7FBF
:1025E00071DBAFF2F831029189E2884C94F83D003A
:1025F000C00715D0984B3498153B30B1AFF2A852B4
:10260000AFF29451AFF2805003E0934A153A11466D
:102610000846FEF7B1FD00222321012007F0D8BBB8
:10262000B4F90800002805DDAFF288500390AFF23E
:10263000745004E0AFF264500390AFF25050059034
:10264000AFF240500490207B10B1AFF2005001E097
:10265000AFF2F0400690AFF2DC400790AFF2CC4012
:1026600008907D480990AFF2BC402D1D0ECDFEF7BD
:1026700083FD002240210120FEF71CF86088012222
:102680002421FEF717F8B4F90800FDF739FE0222FD
:102690002321FDF7E5FEB4F90A0000223F21FDF7F2
:1026A000DFFE208A00227721FEF704F856488038A2
:1026B000B0F90020A2F5AA4155390AD14A1E51218C
:1026C00002E015E066E118E2AFF20450FDF7DFFF2B
:1026D00004E0008801225121FDF7ECFF99F8010088
:1026E000042848F0FA864849012081F83C0068E453
:1026F000604CC6342146627BB1F902103AB1002920
:1027000045DDAFF260600390AFF25060E9E09BF806
:1027100014203AB1504B58A2153B5DA162A0FEF7C0
:102720002BFD4EE4002905DDAFF288610291AFF286
:10273000746104E0AFF264610291AFF25061049100
:10274000AFF240610391A17911B1AFF2006101E0F4
:10275000AFF2F051059140490691D5E9012357F8B0
:10276000201057A0FEF708FD208801222421FDF744
:10277000A1FFB4F90200FDF7C3FD01222321FDF7FB
:102780006FFE0022B4F904003F2108F00AB9A3E06B
:1027900020CED2D1D3D2D1D2C2D3C5D220D1C2DFA2
:1027A000C7DC202000000000202020202020D12095
:1027B000CFCBC0D2CEC92020202020200000000096
:1027C00020202020D0C0D1D8C8D0C5CDC8DF21213D
:1027D0002120202000000000202020202020D120C7
:1027E000424D5321212120202020202000000000E4
:1027F00020202020202020202020202020202020D9
:10280000202020200000000020C20720D0C5072083
:102810002074E1E0F2203D202020203FB043202022
:10282000202020200000000020534F4320203D2086
:1028300020202077252020202020202000000000BC
:1028400020534F4820203D202020203E25202020BE
:1028500020202020000000002570010020202031D1
:1028600020782046503136533438313041202020F2
:102870000000000010C7072020202020202020205A
:102880002020202020202020202020202020000088
:102890002020202020EDE520EFE5F0E5E4E0FEF249
:1028A000F1FF2020202000002020D1E8E3EDE0EB24
:1028B000FB20F2E5EBE5ECE5F2F0E8E82020000093
:1028C000202020202020C1C0D2C0D0C5DF20202061
:1028D0002020202000000000AFF608000390AFF297
:1028E000F4700590AFF2CC600490AFF2DC0006907B
:1028F000AFF2CC000790E7A00890AFF2BC000990BF
:10290000EAA00A90EFA00B90F4480C906089F4A123
:10291000322800D1F8A1AFF25800D5E90123FEF723
:102920002BFC99F902000022401C80B24021FDF7E7
:10293000C1FE208801222421FDF7BCFEB4F902006B
:10294000FDF7DEFC01222321FDF78AFDB4F9040026
:1029500000223F21FDF784FD207A00227721FDF738
:10296000A9FE99F80100082803D1E949012081F85E
:102970003C00608900225121FDF79CFEE089012284
:102980003C21FDF797FEE07900223E21FDF792FE03
:10299000207CAFE04446B6F90800DFF878830028D1
:1029A00005DDAFF600100390AFF6F00004E0AFF6DF
:1029B000DC000390AFF6CC000590AFF2A07004905D
:1029C000AFF2B4100690AFF2A0100790AFF29010E3
:1029D0000890C248AFF27C110990AFF2D060D5E9FF
:1029E0000123FEF7C9FB94F902000022401C80B2CB
:1029F0004021FDF75FFE94F90200012200EB400147
:102A000001EB001008EB800024214088FDF752FE06
:102A100094F9020000EB400101EB001008EB80008C
:102A2000B0F90800FDF76CFC02222321FDF718FD28
:102A300094F90200002200EB400101EB001008EBCA
:102A400080003F21B0F90A00FDF70AFD94F9020069
:102A5000B14D00EB401005EB40000022408A772189
:102A6000FDF728FE94F90200012200EB401005EB6F
:102A70004000B0F90E10B0F9100041434FF47A70E5
:102A800091FBF0F080B25121FDF714FE6078082828
:102A900003D19F49012081F83C0094F902000122F2
:102AA00000EB401005EB40005121C089FDF702FE0C
:102AB00094F90200012200EB401005EB4000B0F950
:102AC00014100A2091FBF0F080B23C21FDF7F2FDDA
:102AD00094F90200002200EB401005EB40003E217B
:102AE000008AFDF7E7FD94F9020000EB401005EBCA
:102AF0004000C08A01225B2190E5614502DBAFF610
:102B0000FC010291B2F90A10002905DDAFF66C2133
:102B10000391AFF6582104E0AFF648210391AFF6D8
:102B200034210591AFF60C110491AFF6F80106912E
:102B3000AFF6E8010791AFF6D4010891AFF6C401F2
:102B40000991AFF6B0010A91AFF6A0010B91AFF673
:102B50008C010C91AFF67C010D9160490E91B2F998
:102B6000241001297CD0022978D0D5E9012357F817
:102B70002010AFF66800FEF7FFFA94F90200012278
:102B800000EB401006EB400024210089FDF792FD88
:102B900094F9020000EB401006EB4000B0F90A0087
:102BA000FDF7AEFB02222321FDF75AFC94F9020047
:102BB000002200EB401006EB40003F2190F93A0064
:102BC000FDF74EFC94F90200002200EB401006EBEA
:102BD0004000282190F93B00FDF742FC94F90200E7
:102BE000002200EB401006EB4000292190F93C0048
:102BF000FDF736FC94F90200002200EB401006EBD2
:102C000040002B2190F93D00FDF72AFC94F90200C9
:102C1000002200EB401006EB40005B2190F93E00E3
:102C2000FDF71EFC94F90200002200EB401006EBB9
:102C300040005D2190F93F00FDF712FC94F902007D
:102C4000012200EB401006EB40007721408AFDF79F
:102C500031FD60780A2861D064E001E009E06EE0AF
:102C6000AFF2D4400290AFF2C0400390AFF2B04058
:102C700007E0AFF2E4400290AFF2A4400390AFF25D
:102C8000904003460490AFF67C10DDE90212FEF797
:102C900073FA52E02043E1E0F2203D202020205151
:102CA000C02AF720202020200000000020496D616C
:102CB00078203D202020203C412020202020202062
:102CC000000000002052425420203D202020205BA4
:102CD000F720202020202020000000002570010087
:102CE00020202020202047594650343837352020D6
:102CF00020202020000000002020202020204759F4
:102D0000465034383530202020202020000000009C
:102D100020C20720D0C5072010C70720FB4901208B
:102D200081F83C0094F90200012200EB401006EB10
:102D300040003E21008AFDF7BDFC94F90200401CD2
:102D4000002280B2402169E4454610B1012805D037
:102D50000AE0EFA3EEA2EEA1F3A003E0F8A3F8A22D
:102D6000F7A1FDA0FEF708FA95F902000022401C29
:102D700080B22121FDF79EFC95F902000022801C03
:102D800080B22121FDF796FC95F902000022C01CBB
:102D900080B22121FDF78EFC95F90200F44C00EB86
:102DA000400004EB4010012280695E2180B2FDF7F3
:102DB00081FC95F90200012200EB400004EB401079
:102DC0005E21806F80B2FDF775FC95F9020001224B
:102DD00000EB400004EB40105E21D0F8D80080B238
:102DE000FDF768FC95F90200012200EB400004EBBE
:102DF00040104021C06980B2FDF75CFC95F90200EB
:102E0000012200EB400004EB40104021C06F80B273
:102E1000FDF750FC95F90200012200EB400004EBA5
:102E200040104021D0F8DC0080B2FDF743FC95F95A
:102E30000200002200EB400004EB40102321C06A96
:102E400000B2FDF70DFB95F90200002200EB4000F7
:102E500004EB40102321D0F88C0000B2FDF700FBFA
:102E600095F90200002200EB400004EB4010232102
:102E7000D0F8EC0000B2FDF7F3FA95F90200002259
:102E800000EB400004EB40102421006A00B2FDF783
:102E9000E7FA95F90200002200EB400004EB401035
:102EA0002421D0F8800000B2FDF7DAFA95F902008B
:102EB000002200EB400004EB40102421D0F8E00099
:102EC00000B262E40A208BF81E00AAA06790AFA0AF
:102ED0006890B4A06990B9A06A90BEA06B90C3A09E
:102EE0006C90C8A06D90CDA06E90D2A06F90D7A02E
:102EF0007090DC48DC4E719006EB42004546B0F91C
:102F00002800052808DBAFF21873AFF21C72D7A1B6
:102F1000DCA0FEF731F9D1E067A901EB8400D0E92C
:102F2000012351F82410D7A0FEF726F995F90100E6
:102F300095F90410421A022A02DD811E297102E06D
:102F4000884200DA28719BF81E10884202DB0120BB
:102F5000FEF7AEF895F902000122C0EBC00000EBCD
:102F6000400006EB400040214089FDF7A3FB95F9A6
:102F700002000122C0EBC00000EB400006EB400065
:102F800023218089FDF796FB95F902000122C0EB11
:102F9000C00000EB400006EB40002421C089FDF793
:102FA00089FB95F902000122C0EBC00000EB400054
:102FB00006EB40002521008AFDF77CFB95F9020015
:102FC0000122C0EBC00000EB400006EB40005E2198
:102FD000408AFDF76FFB95F90200C0EBC00000EBE3
:102FE000400006EB4000C18B31B16FF00402262196
:102FF000AAA0FDF74CFB05E0B0F914000022262141
:10300000FDF72EFA95F90200C0EBC00000EB40007E
:1030100006EB4000018C31B16FF004022A219FA021
:10302000FDF735FB05E0B0F9160000222A21FDF777
:1030300017FA95F90200C0EBC00000EB400006EB68
:103040004000418C31B16FF00402282193A0FDF7BC
:103050001EFB05E0B0F9180000222821FDF700FA58
:1030600095F90200C0EBC00000EB400006EB400009
:10307000818C31B16FF00402292188A0FDF707FB94
:1030800005E0B0F91A0000222921FDF7E9F995F9C8
:103090000200C0EBC00000EB400006EB4000C18C1A
:1030A00031B16FF004022B217CA0FDF7F0FA05E0AE
:1030B000B0F91C0000222B21FDF7D2F995F902008E
:1030C0000022401C80B23C2116E505208BF81E0032
:1030D00075A068907AA069907FA06A9084A06B9098
:1030E00060486C909078884E01280AD0022809D058
:1030F000032808D020B1042806D0052805D035E1E2
:1031000012E103E10CE10DE110E126E120C207200C
:10311000212020202020205E202020202040202050
:1031200020202023000000004E20202020205520B9
:1031300020202020492020202050202000000000B6
:10314000212020202040202020202020232020205B
:1031500020202420000000004E2020204920202094
:10316000202020502020202020742020000000005B
:1031700070D207202055E131202020203D20202042
:10318000202040C220202020000000002055E132F5
:10319000202020203D202020202023C2202020206D
:1031A000000000002055E133202020203D20202079
:1031B000202024C220202020000000002055E134DF
:1031C000202020203D202020202025C2202020203B
:1031D000000000002055E135202020203D20202047
:1031E00020205EC220202020000000002074E13159
:1031F000202020203D202020202026B0D12020206B
:10320000000000002074E132202020203D202020FA
:1032100020202AB0D1202020000000002074E133BB
:10322000202020203D202020202028B0D120202038
:10323000000000002074E134202020203D202020C8
:10324000202029B0D1202020000000002074E1358A
:10325000202020203D20202020202BB0D120202005
:10326000000000002570010068C60720202020CD46
:10327000C520CFCEC4CACBDED7C5CD212121202089
:1032800000000000202020CCCECDC8D2CED020C05F
:10329000CAC1204E3C20202000000000CDC5CFCE6A
:1032A000C4CACBDED7C5CD002055E8F1F2203D20C1
:1032B0002020202020202028C220202000000000E4
:1032C0002049E8F1F2203D20202020202020205B12
:1032D00041202020000000002074E8F1F2203D2071
:1032E000202020202020205DB0D1202000000000E0
:1032F00020D1E1F0EEF120E0E2E0F0E8E92020204A
:103300002020202000000000F0C70720CCA06790FC
:1033100092F84200000729D5349838B3CEA00DE0CA
:10332000D3A00BE0D8A009E0DDA007E05078C207E9
:1033300001D0E1A002E0820702D5E5A0679015E088
:10334000420701D5E8A0F9E700070FD5ECA0679088
:10335000F1A06890AFF6683004E0F5A06790FAA09D
:103360006890FFA0699000208BF81E0067A800EB12
:103370008401D1E9012350F82410FFA0FDF7FCFEE1
:1033800099F9010099F90410421A022A03DD811EFD
:1033900089F8041003E0884201DA89F8040004285F
:1033A00002DB0120FDF784FE99F902000022401C97
:1033B00080B22621FDF77EF999F902000122C0EBC7
:1033C000C00000EB400006EB80002821C06980B2FD
:1033D000FDF770F999F902000122C0EBC00000EB83
:1033E000400006EB80005B21406A80B2FDF762F985
:1033F00099F90200C0EBC00000EB400006EB800032
:10340000806A9EE005208BF81E00AFF26410689081
:10341000AFF254106990AFF240106A90AFF23010E2
:103420006B90DB486C9092F8AA00DA4E012809D024
:10343000022811D0032811D090B1042812D00528F9
:1034400028D030E07EA0679092F8EA0000072AD5E5
:10345000349840B380A00EE085A00CE08AA00AE07A
:103460008FA008E092F8A900C20701D092A002E064
:10347000820702D596A0679015E0420701D59AA071
:10348000F9E700070FD59EA06790A3A06890AFF65C
:10349000A04004E0A6A06790ABA06890B0A069909F
:1034A00000208BF81E0067A800EB8401D1E90123FE
:1034B00050F82410B8A0FDF75FFE99F9010099F9C2
:1034C0000410421A022A03DD811E89F8041003E069
:1034D000884201DA89F80400042802DB0120FDF7A4
:1034E000E7FD99F902000022401C80B22621FDF779
:1034F000E1F899F902000122C0EBC00000EB4000A6
:1035000006EB80002821D0F8C40080B2FDF7D2F885
:1035100099F902000122C0EBC00000EB400006EB6D
:1035200080005B21D0F8CC0080B2FDF7C3F899F998
:103530000200C0EBC00000EB400006EB8000D0F8BA
:10354000D000002200B25D21BBE405218BF81E10E3
:1035500097A068909CA06990A1A06A90AFF270209B
:103560006B908B486C90A44E92F8460020B10428D2
:1035700006D0242808D009E0917839B930A010E0AD
:10358000917819B934A00CE0917821B18006907837
:1035900005D510B104E099A003E09EA001E008B1B8
:1035A000A2A0679067A800EB8401D1E9012350F83D
:1035B0002410A4A0FDF7E0FD99F9010099F9041089
:1035C000421A022A03DD811E89F8041003E08842B2
:1035D00001DA89F804004C46042802DB0120FDF7DB
:1035E00067FD94F902000022401C80B22621FDF7FD
:1035F00061F894F90200012200EB400006EB401054
:103600002821806980B2FDF755F894F90200012263
:1036100000EB400006EB40105B21C06980B2FDF773
:1036200049F894F90200002200EB400006EB40103C
:103630005D21006A00B2FCF713FF94F902000DE16E
:10364000202020202020E220F0E0E1EEF2E5202002
:1036500020202020000000002020D1C8CBDCCDDBC2
:10366000C920CDC0C3D0C5C2212121200000000047
:10367000202020202020E220F0E5E7E5F0E2E52010
:10368000202020200000000020E7E0E1EBEEEAE847
:10369000F0EEE2E0ED20E8E7E2EDE52000000000DA
:1036A00020202020D0E0E1EEF2E0E5F220C0CFC201
:1036B000202020200000000020C0E2E0F0E8FF20F1
:1036C0002D20EFE5F0E5E3F0E5E221200000000029
:1036D000C0E2E0F0E8FF202D20E7E0E2FBF82E5505
:1036E000E2FBF52100000000C0E2E0F0E8FF202D41
:1036F00020E7E0EDE8E62E55E2FBF52100000000B2
:103700002020C0E2E0F0E8FF202D20EFEEF2E5F00F
:10371000FFEDE02000000000202020202020F1E22A
:10372000FFE7FC2121212020202020200000000094
:10373000202020202020C2DBCACBDED7C5CD202010
:1037400020202020000000002020202020CEF2F1A8
:10375000F3F2F1F2E2F3E5F2202020200000000075
:1037600020EFE5F0E2E8F7EDEEE520EFE8F2E0ED3E
:10377000E8E521200000000020202020202020C19A
:10378000CFD1204E26202020202020200000000025
:1037900025700100F0C7072020202020202044436E
:1037A0004443204E2620202020202020000000001E
:1037B0002055E8EDE2203D20202020202020202858
:1037C000C2202020000000002049E8EDE2203D203A
:1037D000202020202020205B41202020000000000D
:1037E0002074E8EDE2203D20202020202020205DD4
:1037F000B0D120200000000070D20720EEF2EAEBEA
:10380000FEF7E8EBF1FF2CEFE5F0E5E3F0E5E22071
:10381000000000002020EEF2F1F3F2F1F2E2F3E515
:10382000F22055E2FBF5202000000000202020209F
:10383000EDE520EFEEE4EAEBFEF7E5ED20202020B9
:10384000000000002020202020C8CDC2C5D0D2CE4C
:10385000D0204E26202020200000000000EB400059
:1038600006EB4010002390F846001322FCE30720EB
:103870008BF81E00DAA06890DFA06990E4A06A903F
:10388000E9A06B90EEA06C90F3A06D90F8485D46B7
:103890006E90AFF25420679092F84600F54E0428DF
:1038A00002D0242805D006E0917821B9AFF2582043
:1038B0000FE0917821B18006907807D418B106E026
:1038C000AFF2C80005E0AFF2B40002E010B1AFF211
:1038D000A400679067A901EB8400D0E9012351F8A7
:1038E0002410AFF2A000FDF747FC99F9010099F907
:1038F0000410421A022A03DD811E89F8041003E035
:10390000884201DA89F80400A97F4C46884202DB2C
:103910000120FDF7CDFB94F902000022401C80B28B
:103920002621FCF7C7FE94F90200354600EB400063
:1039300006EB401001228069282180B2FCF7BAFE14
:1039400094F90200012200EB400005EB4010292110
:10395000C06980B2FCF7AEFE94F90200002200EBD1
:10396000400005EB40105B21006A00B2FCF778FDD7
:1039700094F90200002200EB400005EB40105D21AD
:10398000C06A00B2FCF76CFD94F90200012200EB62
:10399000400005EB40103C21806A80B2FCF78AFEB3
:1039A00094F9020000EB400005EB4010406A80B241
:1039B0007FE09BF806005D46401CC0B28BF8060015
:1039C000282801D30020A8710720A87784A0689038
:1039D00089A0699094A06A90A7A06B9098A06C9021
:1039E0009DA06D90A2486E90AFF2AC306790A84851
:1039F000A979C07A14290FD8410601D5A5A100E004
:103A0000AAA1A34E679131464207097B0AD5052931
:103A100008D2AFF2BC3010E0010601D5A9A1F0E751
:103A2000AEA1EEE7800704D5052902D2AFF234201B
:103A300003E00A2902D9AFF20C20679067A901EBD5
:103A40008400D0E9012351F82410AAA0FDF794FBCB
:103A500099F9010099F90410421A022A03DD811E26
:103A600089F8041003E0884201DA89F80400A97F8C
:103A7000884202DB0120FDF71BFB344670880122DF
:103A80002821FCF717FE208801222921FCF712FECD
:103A9000A07A00225B21FCF7E3FCB4F904000022C9
:103AA0005D21FCF7DDFCE08801223C21FCF702FEF1
:103AB000208901223E2106F08BB96D4B93A299A17A
:103AC0009EA0FDF759FBA3490120A34C81F83C00BF
:103AD00000225B21E08D30E0A0A00290A5A0039021
:103AE000AAA0049089A00590AE480690D8E90123C9
:103AF00057F8241091A0FDF73FFB99F9010099F9BF
:103B00000410421A022A01DD801E01E0884201DA17
:103B100089F804000120FDF7CBFA8F4C0022212107
:103B2000208E80B2FCF7C6FD608E0022402180B25C
:103B3000FCF7C0FD0022A08E232180B2FCF7BAFD65
:103B40000122E08E5D2180B2B5E7494B96A29CA18F
:103B5000A1A0FDF711FB7F4901207F4C81F83C00BB
:103B60000246A08C5B2180B2FCF7A4FD01225D21FE
:103B7000E08CE8E79EA00290A3A00390A8A0049088
:103B8000ADA00590B2A00690B7A0864907909160BD
:103B9000689801F60C31C16068980161C0E1884203
:103BA00002DA00BF89F804000120FDF781FAB44C65
:103BB000206830B16FF002022121B2A0FCF767FD4E
:103BC00007E0644800222E382121B0F90000FCF7FC
:103BD00047FC606818B16FF0020240212CE355E108
:103BE0002055E2FBF5203D20202020202020202809
:103BF000C2202020000000002049E2FBF5203D20EB
:103C0000202020202020202941202020000000000A
:103C10002074E8EDE2203D20202020202020205BA1
:103C2000B0D12020000000002050E2FBF5203D2014
:103C3000202020202020205DC2F220200000000053
:103C40002055F1E5F2E8203D202020202020203CD6
:103C5000C2202020000000002055F8E8EDFB203DA8
:103C6000202020202020203EC22020200000000014
:103C70002570010070D207202074E1EF20203D2044
:103C8000202020202020205BB0D120200000000038
:103C9000F0D90720CFF0E8EEF0E8F2E5F220E8ED09
:103CA000E2E5F0F2EEF0FB2000000000CFF0E8EEDD
:103CB000F0E8F2E5F220F1E5F2FC202020202020BF
:103CC00000000000D0E0E1EEF2E020EEF220E8EDAE
:103CD000E2E5F0F2EEF0EEE200000000D0E0E1EE0E
:103CE000F2E020EEF220F1E5F2E820202020202072
:103CF0000000000020202020202020C1C0C9CFC00B
:103D0000D12020202020202000000000206620203C
:103D1000203D20202020205DC3F6202020202020D0
:103D20000000000020552020203D20202020205B86
:103D3000C220202020202020000000002020202061
:103D400020202020D1C5D2DC2020202020202020AF
:103D50000000000020C2072008C107202055F441C0
:103D6000202020202020202020202021C2202020B0
:103D7000000000002055F442202020202020202098
:103D800020202040C2202020000000002055F443C5
:103D9000202020202020202020202023C22020207E
:103DA00000000000E41C00002049EDE0E3F0203DAD
:103DB00020202020205DC0202020202000000000A6
:103DC0002055EDE0E3F0203D20202020205BC220A4
:103DD0002020202000000000202020202020CDC016
:103DE000C3D0D3C7CAC0202020202020000000005C
:103DF0002074E2EDE5F82EE2EEE7E42E202020200C
:103E000021B0D120000000002074EEF2F1E5EA209C
:103E1000DDCFD3202020202040B0D12000000000A2
:103E200020D1F3F52EEAEEEDF22EB9312020242038
:103E3000202020200000000020D1F3F52EEAEEED36
:103E4000F22EB93220202520202020200000000062
:103E500020D1F3F52EEAEEEDF22EB93320205E20CC
:103E6000202020200000000020D1F3F52EEAEEED06
:103E7000F22EB9342020262020202020000000002F
:103E800000DE0720EDE5E8F1EFF02E00EB48002220
:103E90004021B0F90200F1E2E84C4FF000026F3C23
:103EA0004FF024012078012873D0E5A0FCF7EFFB48
:103EB00060784FF0000201284FF0250101D0E0A00A
:103EC00000E0E1A0FCF7E3FBA0784FF0000201283E
:103ED0004FF05E0170D0DAA0FCF7D9FBE0784FF02C
:103EE000000201284FF0260102D0D5A005F08CBEBB
:103EF000D5A0FBE7AFF208100290AFF2F4000390F8
:103F0000D3A00790D8A00890DDA00990E2A0E849CE
:103F10000A905161689801F60C3181616898C1611D
:103F2000D8E9012357F82410E2A0FDF725F999F903
:103F3000010099F90410421A022A7FF730AE801E60
:103F400030E6AFF254100290AFF244100390DFA0BD
:103F50000490E4A00590E9A00690EEA00790F3A0DD
:103F60000890F8A00990D2480A9000F60C300B9007
:103F70000C90D8E9012357F82410CEA0FDF7FCF8E7
:103F800099F9010099F90410421A022A02DD801EF3
:103F900002E076E2884201DA89F804000120FDF7A8
:103FA00087F8EE4C206840B16FF002022121AFF299
:103FB0002C10FCF76CFB07E066E2A04800222121F0
:103FC000B0F90000FCF74CFA606838B16FF00202FB
:103FD0004021AFF25010FCF75AFB06E09748002250
:103FE0004021B0F90200FCF73BFAA06838B16FF04D
:103FF00002022321AFF27410FCF749FB06E08F4860
:1040000000222321B0F90400FCF72AFAD44C207BCB
:1040100038B16FF002023C21AFF29810FCF737FB89
:1040200005E0B4F90A0000223C21FCF719FA94F8E3
:10403000580038B16FF002023E21AFF2B810FCF721
:1040400026FB05E0B4F9560000223E21FCF708FAF1
:1040500099F9020000EB400101EB001004EB800035
:10406000007B10B1BF4802E037E0BE481830734C07
:1040700007906F3C4FF0000220784FF02401012898
:1040800030D0B9A0FCF703FB60784FF000020128A4
:104090004FF0250128D06AA0FCF7F9FAA0784FF07C
:1040A000000201284FF05E0120D065A0FCF7EFFA76
:1040B0000023207804221946FCF7C2FA0023607816
:1040C00008221946FCF7BCFA0023A0780C221946F6
:1040D000FCF7B6FAE078002310220021FCF7B0FAD2
:1040E00007F0FBB9A2A0CDE757A0D5E756A0DDE7C2
:1040F000A1A00290A6A0039086A004906C48059011
:1041000000F60C3006900790D8E9012357F82410E8
:1041100068A0FDF731F899F9010099F90410421AE5
:10412000022A01DD801E01E0884201DA89F80400DC
:104130000120FCF7BDFF894C206838B16FF0020206
:104140002321AFF2C020FCF7A2FA06E03B48002290
:104150002321B0F90000FCF783F9606838B16FF0F3
:1041600002022521AFF2E420FCF791FA06E0334881
:1041700000222521B0F90200FCF772F92F484FF018
:1041800000026F384FF024010078012801D076A09A
:10419000ACE677A0AAE684A0029089A003908EA046
:1041A0006A99049092A047F821006B9996A0486004
:1041B0006B999BA088606B999FA0C8603C4847F8AA
:1041C0002C0000F60C307060B060D8E9012357F87D
:1041D000241038A0FCF7D0FF99F9010099F90410D8
:1041E000421A022A01DD801E01E0884201DA89F8C4
:1041F00004000120FCF75CFF584C206838B16FF0D8
:1042000002022121AFF28430FCF741FA09E099F86B
:10421000040030B9094800222121B0F90000FCF760
:104220001FF9606838B16FF002024021AFF2AC3084
:10423000FCF72DFA13E10BE116E10000F2C10720B3
:10424000CDCED0CCC0000000C0C2C0D0C8DF0000BE
:1042500020D1F3F52EEAEEEDF22EB9312020202008
:10426000202024200000000020D1F3F52EEAEEEDFE
:10427000F22EB9322020202020202520000000002E
:1042800020D1F3F52EEAEEEDF22EB93320202020D6
:1042900020205E200000000020D1F3F52EEAEEED94
:1042A000F22EB934202020202020262000000000FB
:1042B000E41C00002020C2CDC5D8CDC8C520C4C094
:1042C000D2D7C8CAC8202020000000002074EEF217
:1042D000F1E5EA204D53414E2020202023B0D1208B
:1042E000000000002074E1E0F23120202020202096
:1042F000202020203CB04320000000002074E1E09A
:10430000F232202020202020202020203EB04320F8
:104310000000000020C4E0F2F72EE4E2E5F0E8201F
:1043200020242020202020200000000020C4E0F2D3
:10433000F72EE4FBECE02020202520202020202068
:104340000000000020C4E0F2F72EF3E4E0F0E020EB
:10435000205E2020202020200000000000DE07201A
:10436000D0C507204C210000C7C0CAD02E000000D5
:10437000CED2CAD02E00000020C4743120202020CC
:10438000202020202020202023B0D1200000000069
:1043900020C4743220202020202020202020202013
:1043A00025B0D120000000002074312020202020E2
:1043B000202020202020202021B0D120000000003B
:1043C0002074322020202020202020202020202087
:1043D00040B0D12000000000207433202020202095
:1043E000202020202020202023B0D1200000000009
:1043F00020D1CA312020202020202020242020204D
:10440000202020200000000020D1CA3220202020BF
:104410002020202025202020202020200000000017
:1044200020D1CA3320202020202020205E202020E0
:10443000202020200000000020D1CA34202020208D
:1044400020202020262020202020202000000000E6
:10445000FF4800224021B0F90200FCF701F8A068F3
:1044600038B16FF002022321AFF2E850FCF70FF9E8
:1044700012E5F74800222321B0F90400FBF7F0FF12
:104480000AE5AFF23C2011E5AFF2442024E5AFF29B
:10449000E8000290AFF2D8000390AFF2C4006A992E
:1044A0000490ECA047F821006B99F0A048606B994C
:1044B000F4A088606B99F9A0C860FE4847F82C000A
:1044C00000F60C307060B060D8E9012357F8241072
:1044D000AFF22020FCF750FE99F9010099F9041081
:1044E000421A022A01DD801E01E0884201DA89F8C1
:1044F00004000120FCF7DCFDEF4C206838B16FF0C0
:1045000002022121AFF28460FCF7C1F806E0D04836
:1045100000222121B0F90000FBF7A2FF606838B14A
:104520006FF002024021AFF2A460FCF7B0F806E0A1
:10453000C74800224021B0F90200FBF791FFA068B4
:1045400038B16FF002022321AFF2C860FCF79FF888
:1045500006E0BF4800222321B0F90400FBF780FFEA
:10456000BB4CF520733C2178012900D1F720B84DD0
:104570006F3D297801290BD0401E42B22421AFF2B1
:10458000403000BFFCF783F82078012806D00BE00C
:10459000801E42B22421AFF25030F3E76FF00302E5
:1045A0002421C6A0FCF773F8207828B96FF0050223
:1045B0002421C4A0FCF76BF86178F520012900D113
:1045C000F720697801290BD0401E42B22521AFF2B5
:1045D000903000BFFCF75BF86078012806D00BE054
:1045E000801E42B22521AFF2A030F3E76FF0030244
:1045F0002521B2A0FCF74BF8607828B96FF00502CE
:104600002521B0A0FCF743F8A178F520012900D1BD
:10461000F720A97801290BD0401E42B25E21AFF2EB
:10462000E03000BFFCF733F8A078012806D00BE09B
:10463000801E42B25E21AFF2F030F3E76FF003026A
:104640005E219EA0FCF723F8A07828B96FF0050240
:104650005E219CA0FCF71BF8E178F520012900D130
:10466000F720E97801290BD0401E42B22621AFF293
:10467000304000BFFCF70BF8E078012806D00BE0D3
:10468000801E42B22621AFF24040F3E76FF00302F2
:1046900026218AA0FBF7FBFFE078002846F01D8763
:1046A000821F04F0DBBA8AA002908FA00390814899
:1046B0000490D8E9012357F8241091A0FCF75CFD81
:1046C0000120FCF7F5FC62480022EA382121B0F80D
:1046D000480000EB800080B205F07ABB8EA002900B
:1046E00093A0039098A004909DA00590A2A006908E
:1046F000A7A00790ACA00890B1A00990B6A00A901E
:10470000BBA00B90C0A00C90C5A00D90CAA00E90AD
:10471000BAF91C00674907EB800008F10408416002
:1047200001F60C318160C160B8E80E000298FCF718
:1047300023FD99F9010099F90410421A022A01DDBA
:10474000801E01E0884201DA89F804000120FCF7AC
:10475000AFFC594C7834207801286DD06FF00302FB
:104760002121BBA0FBF793FF6078012865D06FF093
:1047700003024021B6A000BFFBF789FFA078012803
:104780005CD06FF003022321B1A000BFFBF77FFFD5
:10479000E078012853D06FF003022421ACA000BFC1
:1047A000FBF775FF207901284AD06FF0030225211D
:1047B000A7A000BFFBF76BFF6079012841D06FF025
:1047C00003025E21A2A000BFFBF761FFA0790128D0
:1047D00038D06FF0030226219DA000BFFBF757FFE2
:1047E000E07901282FD06FF003022A2198A000BFA2
:1047F000FBF74DFF207A012826D06FF00302282115
:1048000093A000BFFBF743FF607A01281DD06FF033
:10481000030229218EA000BFFBF739FFA07A0128EF
:1048200014D06FF003022B2189A000BFFBF72FFFEC
:10483000E07A01280BD00FE113E117E11BE11FE142
:1048400023E127E12BE12FE133E137E13BE13FE1D8
:10485000F2C1072020D1CA31202020202020202092
:1048600020202020202024200000000020D1CA3257
:104870002020202020202020202020202020252033
:104880000000000020D1CA3320202020202020203A
:104890002020202020205E200000000020D1CA34EB
:1048A0002020202020202020202020202020262002
:1048B00000000000E41C000000DE0720C7C0CCCAD6
:1048C000CD2E0000D0C0C7CECCCACD2E0000000037
:1048D0002046E2E5EDF22EF2E5EAF3F92E20202063
:1048E00020202125000000002046E2E5EDF22E6D9B
:1048F00061782E2028202040252920230000000058
:104900002020202020C2C5CDD2C8CBDFD2CED020DF
:1049100020202020000000002020C0C2D2CECCC029
:10492000D2DB20CDC0C3D0D3C7CECA200000000048
:1049300020C0E2F2EEECE0F220B93120202020206D
:10494000202021200000000020C0E2F2EEECE0F286
:1049500020B932202020202020204020000000000C
:1049600020C0E2F2EEECE0F220B93320202020203B
:10497000202023200000000020C0E2F2EEECE0F254
:1049800020B93420202020202020242000000000F6
:1049900020C0E2F2EEECE0F220B935202020202009
:1049A000202025200000000020C0E2F2EEECE0F222
:1049B00020B936202020202020205E20000000008A
:1049C00020C0E2F2EEECE0F220B9372020202020D7
:1049D000202026200000000020C0E2F2EEECE0F2F1
:1049E00020B938202020202020202A20000000008C
:1049F00020C0E2F2EEECE0F220B9392020202020A5
:104A0000202028200000000020C0E2F2EEECE0F2BE
:104A100020B9313020202020202029200000000053
:104A200020C0E2F2EEECE0F220B93131202020206B
:104A300020202B200000000020C0E2F2EEECE0F28B
:104A400020B931322020202020203D20000000000D
:104A5000C2DBCACB2E0000006FF003023D2102F042
:104A600036BA6FF002022121F9A07BE66FF0020254
:104A70004021F7A080E66FF002022321F4A085E632
:104A80006FF002022421F2A08AE66FF002022521D3
:104A9000EFA08FE66FF002025E21EDA094E66FF0CA
:104AA00002022621EAA099E66FF002022A21E8A07C
:104AB0009EE66FF002022821E5A0A3E66FF0020255
:104AC0002921E3A0A8E66FF002022B21E0A0ADE6C9
:104AD0006FF002023D21DEA005F096B8DEA1029142
:104AE000E3A10391E8A10491EDA10591F24906919A
:104AF00013E000BF99F9040007EB8001D1E901231D
:104B000057F82010EDA002F029BFD3A10291D8A13F
:104B10000391F0A10491E8490591A04202DA89F8D5
:104B20000400E7E7022AE5DD89F80430E2E7EF490F
:104B3000402E02DD002088850AE04EB1012E12D001
:104B4000022E1BD041DDA0422EDA89F804002FE0AE
:104B5000E74BE8A103F11502ECA0FCF70DFB0120E7
:104B600089F8010006E0E24AEEA31532F3A1E7A0BE
:104B7000FCF702FB002089F8040026E0A04202DADC
:104B800089F8040003E0022A01DD89F8043099F96C
:104B9000040010B1012803D017E0D54B15330FE006
:104BA000D34AE0A315320CE0022A01DD89F8043073
:104BB00099F90400A842F3D0B61EB042EDD0E5A3A7
:104BC000EAA2DEA1D1A0FCF7D7FA0120FCF770FA27
:104BD00099F804002821FBF7A9FD99F804005B214E
:104BE000401CC0B2FBF7A2FD99F804007B21801C99
:104BF000C0B2FBF79BFD06F070BCBD4B1A461146D8
:104C00000846FCF7B9FA08F0FF00552808D05028EC
:104C100069D042287ED053287DD04928FCD0EAE7CD
:104C2000C8F307405228E6D199F9040020B10128C1
:104C300004D0022804D009E0D2A302E0D7A300E008
:104C4000DCA3E2A2E7A1EDA0FCF796FAF0B2002205
:104C50004021FBF72FFDC6F3072000222321FBF79D
:104C600029FDC6F3074000222421FBF723FDC4F3EE
:104C7000074000222521FBF71DFDE0B200225E2146
:104C8000FBF718FD300E054600225B21FBF712FDF5
:104C9000C4F30720401E0C2802D3012060F30F2428
:104CA0009348C4F30721343800EB81000022282107
:104CB000FBF7EDFC28076FF00B0202D55D21D5A0B4
:104CC0000DE0680702D55D21D6A008E0A80702D54F
:104CD0005D21D8A003E0E80703D05D21D9A0FBF750
:104CE000D6FC022133E3C8F30740412897D1D9A06D
:104CF0000290A4A00390E8B28046412803D1C5F3F6
:104D00000720412851D0794801220021B430FCF716
:104D1000FAFA01E088E0DAE3D4A00490D9A0059083
:104D2000DEA006907148B03090F904C007EB8C000B
:104D3000001D0EC857F82C00FCF71EFA0AF0FF0001
:104D400000223E21FBF7B6FCCAF3072000223D21DA
:104D5000FBF7B0FCCAF3074000222921FBF7AAFCAD
:104D6000C5F3074000225B21FBF7A4FC00223C2195
:104D70004046FBF79FFCC5F30720401E0C2802D3DA
:104D8000012060F30F255A48C5F30721343800EBA2
:104D9000810000225D21FBF77AFC09F0FF00C9F3D6
:104DA000072100EB012080B2F3E1C2A00490C7A06C
:104DB00002AD0346059007CDFCF7DEF94B48002213
:104DC0002B21C08D1FFA80F0FBF774FCF0B200229B
:104DD0004021FBF76FFCC6F3072000222321FBF7DD
:104DE00069FCC6F3074000222421FBF763FCC4F3EF
:104DF000074000222521FBF75DFCE0B200225E2186
:104E0000FBF758FCC4F30720401E0C2819D200BF42
:104E10003748C4F30721343800EB810000222821F1
:104E2000FBF735FC012007E2C8F30740432809D00F
:104E3000532808D05A2807D0572806D04B2805D029
:104E4000D9E6B2E14EE1B4E1F9E18CE211E3000010
:104E5000C2CACB2E0000000020C2FBF02EE7E0F01B
:104E6000FFE420202020202020202020000000001F
:104E700020C0E2F22EE2FBF02EE7E0F0FFE420207B
:104E8000202020200000000020CA2EC52E20E1E0B6
:104E9000F2E0F0E5E8204E31202020200000000064
:104EA00020CA2EC52E20E1E0F2E0F0E5E8204E32E7
:104EB0002020202000000000E41C000020202020F2
:104EC00020D1CFC5D6D4D3CDCAD6C8C82020202063
:104ED0000000000020CA2EC52E20E1E0F2E0F0E53F
:104EE000E8202020202020200000000008C107200A
:104EF0001070010020C6F3F0EDE0EB20EFF3F1F2CB
:104F0000202020202020202000000000202020C67B
:104F1000D3D0CDC0CB20D1CEC1DBD2C8C920202078
:104F20000000000020CEF7E8F1F2E8F2FC20E6F302
:104F3000F0EDE0EB202020200000000020282020C1
:104F40002020202020202020202020202020202061
:104F500000000000207B2020202020202020202076
:104F6000202020202020202000000000205B202086
:104F70002020202020202020202020202020202031
:104F80000000000020203025282020305E20304006
:104F90003A30233A30242020000000002020EAEE9E
:104FA000E420E8F1F2EEF7EDE8EAE020205B2020D3
:104FB0000000000020202020202020202020202071
:104FC00020202020205D2020000000002020202024
:104FD00020202020C8C1DDCF20202020202020201C
:104FE00000000000202020E8EBE820E2EAEBFEF7DA
:104FF000E5EDE8E520202020000000002020202012
:10500000CFE5F0E5E7E0E3F0F3E7EAE02020202059
:1050100000000000737570657277697365722020F7
:10502000000000007761746368646F6720202020AF
:10503000202000006578742E72657365742020202E
:1050400020000000706F776572206F6E2020202096
:1050500020000000202020C0E2E0F0E8FF20F1E581
:10506000F2E8212121202020000000002020202023
:105070002020F3F1F2F0E0EDE5EDE020202020200B
:10508000000000002020305B5D2020303C20303EBE
:105090003A303D3A30292020000000002020202016
:1050A0002055ECE8ED3D20202BC2202020202020A0
:1050B0000000000020202020EDE520F3F1F2F0E0D8
:1050C000EDE5EDE020202020000000002020202041
:1050D0002055F1E5F2E83D20202BC22020202020A1
:1050E00000000000FAA00290FFA00390AFF26C1045
:1050F0000490E8B20090412803D1C5F3072041286D
:105100004AD00122002109F10400FCF7FCF8AFF2BB
:10511000A4000590AFF29400069099F904C007EB43
:105120008C00001D0EC857F82C00FCF725F80AF07B
:10513000FF0000223E21FBF7BDFACAF30720002240
:105140003D21FBF7B7FACAF3074000222921FBF7FC
:10515000B1FAC5F3074000225B21FBF7ABFA00224E
:105160003C210098FBF7A6FAC5F30720401E0C2847
:1051700002D3012060F30F25E148C5F3072100EBBE
:10518000810000225D21FBF782FA00BFC8F30720EF
:10519000401C00222B2117E6AFF2E80002AD0346C7
:1051A000059007CDFBF7E8FFF0E7012060F30F243F
:1051B0002EE6C7A00290D3A00390CBA00490AFF23C
:1051C0003C2002AD0346059007CDFBF7D5FFC8F3A1
:1051D0000720401C00222B21FBF76CFAF0B20022C2
:1051E0004021FBF767FAC6F3072000222321FBF7D3
:1051F00061FAC6F3074000222421FBF75BFAC4F3EF
:10520000074000222521FBF755FAE0B200225E217B
:10521000FBF750FAC4F30720401E0C2802D30120EC
:1052200060F30F24B648C4F3072100EB810000228D
:105230002821FBF72CFA0020B8498885DBE4B8A0C8
:105240000290BDA00390AFF2C4200490E8B2009099
:10525000412803D1C5F3072041287CD00122002139
:1052600009F10400FCF74FF8B9A00590AFF2EC107B
:10527000069099F904C007EB8C00001D0EC857F882
:105280002C00FBF779FF0AF0FF0000223E21FBF71C
:1052900011FACAF3072000223D21FBF70BFACAF3EB
:1052A000074000222921FBF705FAC5F30740002239
:1052B0005B21FBF7FFF900223C210098FBF7FAF98C
:1052C000C5F30720401E0C2802D3012060F30F25F0
:1052D0008B48C5F3072100EB810000225D21FBF71D
:1052E000D6F900BFC8F30720401C00222B21FBF792
:1052F000E1F9F0B200224021FBF7DCF9C6F3072008
:1053000000222321FBF7D6F9C6F30740002224210F
:10531000FBF7D0F9C4F3074000222521FBF7CAF9B7
:10532000E0B200225E21FBF7C5F9C4F30720401E5E
:105330000C2802D3012060F30F247148C4F3072125
:1053400000EB810000222821FBF7A1F9012173481D
:10535000818550E4FFE784A002AD0346059007CDA8
:10536000FBF70AFFBEE786A002908BA0039090A0F7
:105370000490AFF2F030059093A0069097A00790AC
:105380009CA00890A1A00990A6A00A9099F904C039
:1053900007EB8C00001D0EC857F82C00FBF7ECFE45
:1053A000C8F30720401C00222121FBF783F9F0B24B
:1053B00000224021FBF77EF9C6F3072000222321BB
:1053C000FBF778F9C6F3074000222421FBF772F9B6
:1053D000C4F3074000222521FBF76CF9E0B200225C
:1053E0005E21FBF767F9C4F30720401E0C2802D3A7
:1053F000012060F30F24DFF80881C4F3072108EBD4
:10540000810000222821FBF742F90AF0FF00002268
:105410006921FBF74FF9CAF3072000226C21FBF743
:1054200049F9CAF3074000227321FBF743F9C5F39A
:10543000074000227121FBF73DF9E8B200227221FA
:10544000FBF738F9C5F30720401E0C2802D30120D2
:1054500060F30F25C5F3072108EB810000227721B7
:10546000FBF715F90FFA8AF10A2091FBF0F080B2F0
:1054700068E172A0029077A003904DA00490AFF273
:10548000FC40059079A0069054A0079059A0089080
:105490005EA009907BA00A9099F904C007EB8C00EC
:1054A000001D0EC857F82C00FBF766FEC8F3072056
:1054B000401C00222121FBF7FDF8F0B20022402120
:1054C000FBF7F8F80022C6F307202321E6E04EE1BF
:1054D00020202020202020C0E2E0F0E8FF20202033
:1054E00020202020000000002020202020E1E0F2E9
:1054F000E0F0E5E8204E2B202020202000000000D6
:10550000DC6F010020202020EDE5F1E8ECECE5F275
:10551000F0E8E820202020200000000008C107203B
:10552000202020C2FBF0E0E2EDE8E2E0FEF9E8E94D
:10553000202020200000000020202020202020E724
:10554000E0F0FFE4202020202020202000000000A8
:10555000202020202020E7E0E2E5F0F8E5ED202003
:10556000202020200000000020202020EDE520E762
:10557000E0E2E5F0F8E5ED2020202020000000002A
:1055800020202020202020D0E0E7F0FFE420202071
:1055900020202020000000002020202020E1E0F238
:1055A000E0F0E5E8204E212020202020000000002F
:1055B000202020CDE0F7E0EBEE202020202020204E
:1055C0002020202000000000202020202020205526
:1055D000E1E0F23D20203CC200000000202020CA73
:1055E000EEEDE5F620202020202020202020202085
:1055F00000000000202030717720203072203069B8
:105600003A306C3A30732020000000002020202027
:10561000202020202055E1E0F23D20203EC2202025
:1056200000000000202020CEF2E4E0EDEE2020205B
:10563000202FE02AF72E2020000000002020CAEEB4
:10564000EDF2F0EEEBFC20E5ECEAEEF1F2E82020E2
:105650000000000020202020202020E1E0F2E0F0E7
:10566000E5E820202020202000000000202020202D
:10567000202020202055E1E0F23D20203CC22020C7
:1056800000000000202020A8ECEAEEF1F2FC20202F
:10569000202FE02AF72E202000000000FBF70AF858
:1056A000C6F3074000222421FBF704F8C4F30740A7
:1056B00000222521FAF7FEFFE0B200225E21FAF770
:1056C000F9FFC4F30720401E0C2802D3012060F329
:1056D0000F24DFF84084C4F3072108EB8100002287
:1056E0002821FAF7D4FF0AF0FF0000226921FAF717
:1056F000E1FFCAF3072000226C21FAF7DBFFCAF3AF
:10570000074000227321FAF7D5FFC5F307400022B6
:105710007121FAF7CFFFE8B200227221FAF7CAFF2F
:10572000C5F30720401E0C2802D3012060F30F258B
:10573000C5F3072108EB810000227721FAF7A7FFC4
:105740001FFA8AF001222F21FAF7B4FF200E310E42
:1057500000EB012080B201223C21FAF7ABFF4FEAB7
:105760001A4001223E21FAF7A5FF0521EFE5EAA044
:105770000290C8F307404C2808D0542808D0552878
:1057800008D0752808D04F2808D009E0E8A006E026
:10579000EDA004E0F2A002E0F7A000E0FCA003907E
:1057A000AFF620000490E8B20090412803D1C5F381
:1057B0000720412879D00122002109F10400FBF7DC
:1057C000A2FDAFF258700590AFF24870069099F9BB
:1057D00004C007EB8C00001D0EC857F82C00FBF727
:1057E000CBFC0AF0FF0000223E21FAF763FFCAF368
:1057F000072000223D21FAF75DFFCAF3074000228F
:105800002921FAF757FFC5F3074000225B21FAF779
:1058100051FF00223C210098FAF74CFFC5F3072006
:10582000401E0C2802D3012060F30F25B948C5F3B0
:10583000072100EB810000225D21FAF728FF00BF5D
:10584000C8F30720401C00222B21FAF733FFF0B2E7
:1058500000224021FAF72EFFC6F307200022232161
:10586000FAF728FFC6F3074000222421FAF722FFA7
:10587000C4F3074000222521FAF71CFFE0B2002202
:105880005E21FAF717FFC4F30720401E0C2802D34D
:10589000012060F30F249F48C4F3072100EB81002F
:1058A0000022282104F0B0B9FFE7AFF2F87002AD92
:1058B0000346059007CDFBF75FFCC1E7BA4B6D9936
:1058C000595C552913D0B9A10291BEA10391C3A17E
:1058D0000491C8A10591CDA10691D2A107918D494E
:1058E00049310891012A04DD89F8045005E0D3A16B
:1058F000EAE7A04201DA89F8040099F9040007EB0D
:10590000800157F820204B68D2A1D8A0FBF734FCC7
:105910000220FBF7CDFB99F902000022401C80B267
:105920005E21FAF7C7FEA04999F90200D83100229A
:1059300031F810002121FAF7BDFE9B4999F90200C8
:10594000DC31002231F91010724800EB8100402157
:10595000FAF79DFE944999F90200E031002231F8EE
:1059600010002321FAF7A6FE8F4999F90200E431CD
:10597000002231F810002421FAF79CFE8A4999F997
:105980000200E831002231F81000252104F020BA8D
:1059900036B1012E14D0BB49A0421DDA08711FE0B8
:1059A0005C4B4933AFF6B422B7A1BDA0FBF7E4FBD3
:1059B0000320FBF77DFBB34800214170017121E01A
:1059C000544B4933AFF68C22AFA1B5A0FBF7D4FB03
:1059D000AC490020087112E0012A01DD6798DDE77B
:1059E00091F90410614502D14A4B493301E0AFF609
:1059F0008423AFF6B822A4A1A9A0FBF7BDFB022027
:105A0000FBF756FB9F4C0022212194F90200401C19
:105A100080B2FAF74FFE94F90410A748405C2821A1
:105A2000FBF7ECFB94F9041039E02EB1012E0AD0FB
:105A3000A0420FDA287111E0364B4933AFF64C32F1
:105A400091A19EA03EE0334B4933AFF610328EA1B8
:105A50009AA044E0012A01DD6798EBE795F904106C
:105A6000614502D12B4B493301E0AFF60033AFF66D
:105A7000343285A191A048E0FBF71AFB95F90200AA
:105A80000022401C80B22121FAF714FE95F904107F
:105A90008948405C2821FBF7B1FB95F9041011F807
:105AA00009005B21FBF7AAFB53E42EB1012E10D0B5
:105AB000A04219DA28711BE0164B4933AFF6CC32FD
:105AC00071A184A0FBF758FB0020687028710320A7
:105AD000D2E7104B4933AFF69C326BA17DA0FBF7A8
