:020000040000FA
:10000000F8320820E1000000E5000000E7000000F1
:10001000E9000000EB000000ED000000000000001F
:10002000000000000000000000000000EF000000E1
:10003000F100000000000000F30000007D1300004C
:10004000F7000000AD010000D3010000F700000040
:10005000F7000000F7000000F7000000F7000000C4
:10006000F7000000F7000000F7000000F7000000B4
:10007000F7000000F7000000F7000000F7000000A4
:10008000F7000000F7000000F7000000F700000094
:10009000F7000000F70000007B060000F7000000FA
:1000A000F7000000F7000000F7000000F700000074
:1000B0009B200000F7000000F7000000F7000000A0
:1000C000F7000000F7000000F7000000DFF80CD098
:1000D00000F0B2F8004800479D140000F8320820F4
:1000E00005480047FEE7FEE7FEE7FEE7FEE7FEE71E
:1000F000FEE7FEE7FEE7FEE7CD000000FEE710B5F5
:1001000003F0B4FABDE8104003F06ABB03F01CBA78
:1001100002F0E4BF09B10020704702F057BD002093
:100120007047000070B50D4A0020A2F11401064688
:1001300001F10A030C5C54B11D5CAC4207D1145CA4
:100140002CB1641E14F0FF04145400D10E540C5C46
:100150001C54401CC0B20A28ECD370BD7C2A00108D
:100160000648B0F90810002907D0491E09B20181DC
:10017000002902D1084600F0AAB97047000000101B
:1001800090F900308B4200DA027090F9003093420F
:1001900000DD0170704790F900308B4200DA017089
:1001A00090F90010914200DD027070474FF040213D
:1001B000012008600B480168491C01600A48016879
:1001C00021F0FF01091D0160016841F080710160AB
:1001D000704706490120086002484168491C416097
:1001E0007047000058280010004003400080004085
:1001F000704710B50B4A002320244F2908D041290D
:1002000009D052290BD0532908D15360936004E0E0
:10021000C2E9010301E050609060147010BD90606D
:1002200010BD7047602800100146002000E0401C0F
:100230000A5C002AFBD17047064C074D06E0E068D7
:1002400040F0010394E8070098471034AC42F6D31D
:10025000FFF740FFDC4200001C43000070B58C1823
:1002600010F8015B15F0030201D110F8012B2B11DE
:1002700006D110F8013B03E010F8016B01F8016BA7
:10028000521EF9D1B3B110F8012B05F00C058A1AF2
:100290000C2D04D0A2EB851203F1020308E010F844
:1002A000015BA2EB0522F7E712F8015B01F8015BA5
:1002B0005B1EF9D5A142D3D3002070BD00B500224A
:1002C00000F008F8C04380B2010241EA102080B279
:1002D00000BD000005E000BF30F8023B891E5BBA9C
:1002E0001A440129F8DC11B1007802EB002290B227
:1002F00000EB124000EB104080B27047FFFFFFFFA1
:1003000000209E4A20211154401CC0B2C828FAD3B4
:1003100070470146994A0020401CC0B2135C8B42D2
:1003200001D0C828F8D3704710B50021944C0A2298
:10033000B0FBF2F302FB13006054491CC9B218462B
:100340000529F5D310BDF0B58E4B0121202719707A
:1003500005218B4A002601E01C7844B1541814F89A
:10036000015C25B9814202D904F8017C05E05418EA
:1003700014F8015D303525701E70491E11F0FF0123
:10038000EAD1F0BD70B50D4616461C46FFF7CCFF0E
:10039000601CC0B2FFF7D7FF05EB850006EB8000BD
:1003A000C1B2774A754B0020A04201D2155C5D5462
:1003B00006D3155C202D03D04CB15E1806F8015C05
:1003C000491E401CC0B2C9B20528EDD370BD5D54B2
:1003D000F6E730B5044608461546FFF79AFFFF28B2
:1003E00009D0664A2178002905D04319641C401CB5
:1003F000D154C0B2F6E730BD70B50D461446FFF7D4
:1004000093FF601CC0B2FFF79EFF2846FFF781FFF5
:100410005B4B5A4A002124B95D5C202D01D0155454
:100420000FE0A14201D25D5CF9E704D14FF02E0547
:1004300015545D5C02E05D5C202D02D0161806F8B4
:10044000015C401E491CC9B2C0B20529E3D370BD8E
:1004500017B501EB810002EB8000C2B29DF80030BD
:10046000494803F00F0100EB1313445C43498C54DB
:10047000521ED2B21B788B549DF80130521E03F0ED
:100480000F04D2B2045D8C54521E00EB1313D2B28F
:100490001B788B549DF80230521E03F00F04D2B229
:1004A000045D8C54521E00EB1313D2B21B788B5494
:1004B0009DF80330521E03F00F04D2B2045D8C5439
:1004C000521E00EB1310D2B2007888541EBD2F4B81
:1004D0001A88521E104400B218802D4A00EB80008A
:1004E00002442C4813680360127902714278114467
:1004F00041707047F0B5254D254FB5F9004004EB2C
:100500008406641C2C80234C3E4425683560257984
:100510003571207061702271A370F0BDF0B5054691
:100520000E461746FFF7ECFE144C0020401C15F851
:10053000011BC0B204F8011B1428F7D35FF00000C0
:10054000401C16F8011BC0B204F8011B1428F7D395
:100550005FF00000401C17F8011BC0B204F8011B3B
:100560001428F7D35FF00000401C13F8011BC0B241
:1005700004F8011B1428F7D3F0BD0000820000101E
:1005800006C0072052280010C14200003E000010A3
:1005900058000820780000102DE9F041FF4C206E33
:1005A00001F0F8FE6FF0DD052946206E02F00CF830
:1005B0000021206E02F008F841F2871204F2C221F5
:1005C000206E01F0D0FFF64E206E314601F0FCFFA8
:1005D000F449206E01F0F8FFF349206E01F0F4FFBA
:1005E0004FF020573946206E01F0EEFFEF49206EA4
:1005F00001F0EAFF4FF024584146206E01F0E4FF7D
:1006000000220121206E01F077FE2946206E01F0C4
:10061000DBFF47F694652946206E01F0D5FF41F2D5
:10062000F532E349206E01F09EFF3146206E01F065
:10063000CBFFE049206E01F0C7FFDB49206E891C2B
:1006400001F0C2FF3946206E01F0BEFFD749206E8F
:10065000891C01F0B9FF4146206E01F0B5FF2A4622
:100660000221206E01F048FE0021206E01F0ACFF57
:10067000206EBDE8F04101F0D2BDCF48016821F005
:10068000E06101607047F0B50020CC4A01464FF4AC
:10069000F4731154401C00B29842FADB00214FF071
:1006A000140C7A2301FB03F001EB81039B0001EBA7
:1006B00081041BB20CEB84041CE0B84DC04F6E35B6
:1006C000ED5C05EB450517F81560165407EB45057D
:1006D000401C6E781654401CAE781654401CEE78C0
:1006E0001654401C2E791654401C6D791554401C2C
:1006F0005B1C1BB29C42E0DC491C09B20429D0DB24
:10070000F0BD2DE9FF5FA54C00262079401CC0B24A
:100710002071142807D32671E078401CC0B2E07025
:10072000052800D3E6709D4D6435287800287DD1DA
:1007300095F9010030B195F904100A1A022A03DD77
:10074000801C03E02E7102E0884200DD28719DA329
:100750009CA29CA19BA0FFF7E1FEA08F0122232178
:10076000A046274680B2FFF747FEF88F01222421DA
:1007700080B2FFF741FE994C207A4FF000024FF013
:100780002501FFF739FE207900225E21FFF734FEB4
:10079000207800222621FFF72FFE207B00223C211B
:1007A000FFF72AFEA08B00227B21FFF725FE207E8B
:1007B0008B49002201EB80003E21FFF70AFE774CB7
:1007C000387C6E3460B13A20FFF7A3FD2027275410
:1007D0003A20FFF79EFD27543A20FFF79AFD275451
:1007E00095F90400012788B195F9011071B188428B
:1007F00002D184F83C7009E0401A012802D0022896
:1008000003D003E084F8287000E02775B8F84A00A8
:10081000002313221946444680B2FFF7B3FD00239C
:10082000092219462078FFF7ADFD00E07BE395F93A
:100830000100002380B201221946FFF7A3FD694899
:1008400001F016F812220121FFF702FE6548001F91
:1008500001F00EF812220221FFF7FAFD002309220F
:10086000012141F28710FFF78DFD5E48883800F0C6
:10087000FFFF80B200230E220121FFF783FDDFF886
:10088000648108F13008404600F0F2FF80B2002396
:1008900009220221FFF776FD5248283000F0E8FFD8
:1008A00013220321FFF7D4FD4F4D284600F0E0FF4F
:1008B00009220321FFF7CCFD284600F0D9FFC0B282
:1008C000012808D1284600F0D3FF000C4FF4257111
:1008D000B0FBF1F06084E08C08B1401EE08440463B
:1008E00000F0C6FF022806D1E08C20B9A08C48B1E8
:1008F000A6840A20E084284600F0BAFFC0B205288A
:1009000004D008E04FF6FF70A084F2E7284600F01C
:10091000AFFF00142085206E01F03CFD3349206EAE
:1009200001F052FE3249206E01F04EFE3149206E38
:1009300001F04AFE3049206E01F046FE2F49206E3C
:1009400001F042FE2E49206E01F03EFE2D49206E40
:1009500001F03AFE4FF47F41206E01F088FC4FF029
:10096000FF194946206E01F04DFC2749206E01F029
:100970002BFE618C64204FF48775CDE90210CDE920
:1009800000560A23B422C821206E01F04CFCCDE9A8
:1009900000570A23B422BB46C82137E014000010D8
:1009A000010000059400000115181007153000081B
:1009B0005D140010287F000100400340286E0010E5
:1009C0008D3C0000202020202020202020202020DE
:1009D0002020202020202020000000002040024075
:1009E0008D420000FC20300000903000C800000262
:1009F000070000260000FF04A000000D0200001FF9
:100A0000C012A04F00FFFF0401000003206E01F0A0
:100A100085FCFF49206E01F0D7FD4946206E01F0AC
:100A2000F1FBA08C1C22CDE90026FAA1CDE9020140
:100A3000642232239100206E01F0C1FB4FF08061EF
:100A4000206E01F0C1FD4FF4FE41206E01F00FFC5D
:100A5000EF49206E491C01F0B7FD4546404600F0C5
:100A600007FF032803D1ED49206E01F000FC192295
:100A70009623EBA1CDE90032CDE9026140F22628B0
:100A8000B246C82332224146206E01F001FC6FF0CD
:100A90007F41206E01F0EBFB0021206E01F0B2FBE4
:100AA000DB49206E093101F08FFD2E46284600F00B
:100AB000DFFE0B287ED06FF07B41206E01F084FDBD
:100AC000D9A04FF4C065CDE90050608CC8214042E8
:100AD00001EB400002B21E236421206E01F034FBC2
:100AE000CB49206E0A3101F06FFD304600F0C0FEA8
:100AF0000C287ED06FF07B41206E01F065FDCCA00C
:100B0000CDE90050608CFA21404201EB400002B276
:100B10001E236421206E01F017FBBD49206E0B31AE
:100B200001F052FD304600F0A3FE0D287ED06FF09C
:100B30007B41206E01F048FDBFA0CDE90050608CE4
:100B40004FF49677404207EB400002B21E23642127
:100B5000206E01F0F9FAAE49206E0C3101F034FD3F
:100B6000304600F085FE0E287ED06FF07B41206E6F
:100B700001F02AFDB2A0CDE90050608C4FF4AF79AE
:100B8000414209EB410002B21E236421206E01F0B4
:100B9000DBFA9F49206E0D3101F016FD304600F062
:100BA00067FE0F287ED06FF07B41206E01F00CFDB8
:100BB000A5A000E0A3E1CDE90050608C1E234142D6
:100BC0004FF4C87000EB410002B26421206E01F0C6
:100BD000BBFA8F49206E0E3101F0F6FC304600F072
:100BE00047FE10287ED06FF07B41206E01F0ECFCB8
:100BF00000E086E196A0CDE90050608C4FF4E171F1
:100C0000404201EB400002B21E236421206E01F03D
:100C10009BFA7F49206E0F3101F0D6FC304600F080
:100C200027FE11287ED06FF07B4100E06BE1206E43
:100C300001F0CAFC88A0CDE90050608C4FF4FA7135
:100C4000404201EB400002B21E236421206E01F0FD
:100C50007BFA6F49206E103101F0B6FC304600F08F
:100C600007FE12287DD000E04FE16FF07B41206E3F
:100C700001F0AAFC7AA0CDE90050608C1E2341420D
:100C800008EB410002B26421206E01F05DFA604978
:100C9000206E113101F098FC304600F0E9FD132878
:100CA0007ED000E033E16FF07B41206E01F08CFCE0
:100CB0006DA0CDE90050608C4FF41678414208EBEE
:100CC000410002B21E236421206E01F03DFA50491A
:100CD000206E123101F078FC304600F0C9FD142876
:100CE0007DD000E015E16FF07B41206E01F06CFCDF
:100CF0005FA0CDE90050608C40F28A21404201EBB8
:100D0000400002B21E236421206E01F01DFA5A49F0
:100D1000206E01F059FC5949206E01F055FC4FF04E
:100D2000804100E0F7E0206E01F04EFC5449206E57
:100D300001F04AFC4FF00451206E01F045FC6FF0C9
:100D40007F41206E01F093FA6FF07B41206E01F03D
:100D50003BFC4CA0CDE900501E2396226421206E5E
:100D600000E0DAE001F0F0F94FF47F41206E01F08D
:100D70007EFA4FF0FF11206E01F044FA4349206ED5
:100D800001F022FC412040F60306CDE900601F235C
:100D900014229621206E01F0F4F9C0201F2300E0F8
:100DA000BDE0CDE9006014223946206E01F0E9F97A
:100DB0001749206EC91C01F007FC208D5646CDE96D
:100DC00000A032234A464146206E01F0C5FA0521B3
:100DD000CDE900B101234A464146206E00E0A0E083
:100DE00001F09CFA2A49206E01F0EEFB29A0CDE922
:100DF00000503A461E231146206E01F0A5F927A0A7
:100E0000CDE900600123C2220821206E58E00000D5
:100E100002000003796573FF6E6F000000FFFF00A2
:100E200050726573730000004974656D31000000F5
:100E30004974656D320000004974656D330000002F
:100E40004974656D340000004974656D350000001B
:100E50004974656D360000004974656D3700000007
:100E60004974656D380000004974656D39000000F3
:100E70004974656D31300000C80000040900001F8E
:100E8000A00A40464D61696E0000000000FFFF04AB
:100E900000FF00044D616D610000000041424320ED
:100EA0000102030405060708090A0B0C0D0E0F10BA
:100EB0001112131415161718191A1B1C1D1E1F00CA
:100EC00001F042F9FFA0CDE900600123E0220821F2
:100ED000206E01F039F9AFF23C00CDE90060022349
:100EE0003A460821206E01F02FF90021206E01F012
:100EF0006BFB206E04B0BDE8F05F01F090B9F449DF
:100F0000DBE5F349F8E5F24913E6F1492FE6F0494C
:100F10004BE6EF4969E6EE4987E6ED49A7E6EC497D
:100F2000C3E6EB49E1E6BDE8FF9FF0B5E948016A99
:100F300041F400110162416B21F400114163016A27
:100F400021F0F8610162E449CA6CE44B02EA030251
:100F5000CA64016C41F480710164416D21F48071B7
:100F600041654FF0000100BF00BF00BF00BF00BFE0
:100F700000BF00BF00BF491CC9B2C829F3D3016C30
:100F800041F480710164416D41F480714165406BB1
:100F9000D34F60F0F860810D3C46B965A27DE36DEA
:100FA000E07D247EA1F5407603F07F054FF0010E31
:100FB0004FF0000CFF3E01D0994217D087F819C0BE
:100FC000042A00D220B1BA7E12B987F81BE07B75E3
:100FD000A04202D387F81BE07D7587F81AC0142061
:100FE000387687F816C087F817C01AE0521CD2B2BC
:100FF000BA75042A15D3401CC0B287F816C0F8751C
:10100000A0420ED37D7587F817C087F81BE087F8DC
:101010001AE0787E28B160083876022801D80220CC
:101020003876F965F0BD2DE9FC5FAD4F4FF0000853
:10103000F87E00281FD0A7F84680A7F8488087F8D8
:10104000028007F16400797D06784446F92913D0BF
:101050000122E72923D07929ECD07A2925D002462C
:1010600092F901301A465B1C5DB2531E5BB2752EBD
:1010700022D0002E65D07DE1752E0BD0786EC7F89A
:10108000690097F86800002387F86D0004211A466C
:1010900075206DE100210846FFF719FA6AE1532136
:1010A00000207A65FFF7A5F864E1387F10B13C773E
:1010B0007C765FE13A77FBE7EF290FD0F7290FD075
:1010C0000546012A14D0052AD5D0854A6432FD2967
:1010D00092F904202BD0FB292BD04BE1457000E086
:1010E000437004710B220021401CFFF749F841E1D5
:1010F000FD2907D1A8781E22401EA8700021A81C37
:10110000FFF749F8787DFB2807D1A8781E22401CFC
:10111000A8700021A81CFFF73EF8787DFE28AAD110
:101120007C852C706C70AC70EC702C7122E1521EBE
:1011300000E0521C027104220021281DFFF72BF849
:1011400018E1674A4FF4C064FE29166E12D0DFF82A
:1011500094B1DFF894916FF07B4AFB2915D0FD29FB
:101160003BD0EF2974D0F7296FD06B296ED073294B
:101170006DD0FFE0AFF2E420CDE9004064221B23F4
:101180001146304600F0E0FFF4E0457057494FF457
:10119000401000F0F3FB5946554800F0EFFB54486F
:1011A0005146001D00F0EAFB51485249083000F05A
:1011B000E5FB4F4849460C3000F0E0FB4C484E49F7
:1011C000103000F0DBFB4A480021143000F0D6FB61
:1011D00002214A4800F083FBCCE04370304601F026
:1011E000D9F84749386E01F0EFF95946386E01F0E9
:1011F000EBF94449386E01F0E7F93E49386E503159
:1012000001F0E2F94946386E01F0DEF93E49386EE8
:1012100001F0DAF92E49386E01F0D6F94FF47F412A
:10122000386E01F024F84FF47F01386E00F0EAFFC9
:101230002A2140F60300CDE900011F231422962144
:10124000386E00F09EFF82E002E024E087E08BE051
:10125000304601F09FF82A49386E373101F0B4F971
:101260005946386E01F0B0F92849386E01F0ACF9F2
:101270004FF47F01386E00F0FAFFFF21386E00F066
:10128000C1FF23A0CDE9004064221F231146386E20
:1012900000F05AFF5BE04570304601F07BF82249D0
:1012A000386E01F091F95946386E01F08DF95146CA
:1012B000386E01F089F94FF47F01386E00F0D7FFE6
:1012C000FF2133E0414243207F607B7D000000002E
:1012D00000FFFF0400C0092000C00240FF0FC0FF54
:1012E00014000010070000260200001F00C80002C2
:1012F000040030005000000D000F804C54203000DE
:10130000C80000020000FF04C012A04F00FF00044C
:10131000506C6561736520546170206F6E20746835
:101320006520646F74000000C8C8C802386E00F001
:1013300069FFAFF22400CDE9004064221B2311466F
:10134000386E00F001FF0021386E00F0C5FF00216B
:10135000386E01F039F9386E00F061FF0AE00023C1
:101360001A4619462C2003E000231A461946142079
:10137000FFF7C0F887F81B80BDE8FC9F2DE9F0411E
:10138000F84C0126F848E671A17C39B1016A41F0B8
:1013900080610162416B81F080614163E18E491C93
:1013A00009B2E186022977DB0025E586A67140694E
:1013B000C0F3C060E074217D884204D0B4F84210CC
:1013C000491CA4F842102075208F401C00B22087D1
:1013D000142801DB25876672A08D401C00B2A08511
:1013E0000A2859DBA5852672B4F84400401C00B2D7
:1013F000A4F84400B0F5FA7F07DB04F14004A580AF
:10140000608820806580A4F1400442F21077E08D6E
:10141000401C00B2E0850A2809DBE585A672FEF7CC
:10142000E7FEB4F91E00B84201DA401CE083208ECA
:10143000401C00B22086142806DB2586E672E07B7D
:1014400008B1E57300E0E673608E401C00B2608670
:10145000322806DB65862673207C08B1257400E0FF
:101460002674A08E401C00B2A086642814DBA586DA
:101470006673B4F92000B84201DA401C2084607C15
:1014800008B1657400E06674608F401C00B260872C
:101490003C2801DB6587A673BDE8F08100F0DCFA2B
:1014A000B04CB2480126A67400684FF4FA61B0FB54
:1014B000F1F14FF0E020491E416107210161AC4983
:1014C0000520A94D887081F8560081F8AA0081F89E
:1014D000FE0081F8520181F8A60181F8FA0128681E
:1014E00020F000602860286C40F080002864286CA0
:1014F00040F48070286400F030FD00F076FD00F0CC
:101500005CFD9C4911200872AFF648339AA2A0A155
:10151000AFF65030FFF702F8286840F4006028600A
:10152000A86940F40060A8613A20207000F05CF9DE
:101530009D482066286C40F480702864E86D40F473
:101540008070E865994F3846401EFDD1286C40F404
:1015500080702864A86D40F48070A8653D466D1EBB
:10156000FDD100F03CFA7F1EFDD1482000F053FA77
:101570008F48401EFDD1422000F04DFA042000F0BB
:101580004AFA00F02CFA682000F045FA894D284606
:1015900000F049F97C28FAD186484FF484612C3058
:1015A00000F0C2F983482E21303000F0BDF98148A7
:1015B0000021383000F0B8F97E480A213C3000F0B4
:1015C000B3F97C4840F20D21403000F0ADF9794884
:1015D0001721443000F0A8F9764800214C3000F083
:1015E000A3F974480A21503000F09EF97148002197
:1015F000643000F074F96F4800216C3000F06FF92E
:101600006C484FF44871343000F08EF969484FF45B
:10161000F071483000F088F96648FF21903000F002
:101620005EF96448FF21943000F059F962494FF4A3
:10163000401000F0A3F96149614800F09FF960484B
:101640006049001D00F09AF95D485F49083000F0DC
:1016500095F95B485D490C3000F090F958485C49B9
:10166000103000F08BF956484FF0045529461430DD
:1016700000F084F952485749183000F07FF950487B
:1016800055491C3000F07AF94C494D48491C20302E
:1016900000F074F94A485149243000F06FF9484885
:1016A0002946283000F06AF900214FF0301000F090
:1016B00065F940480221543000F011F93D480521F8
:1016C000703000F00CF9FEF767FF26480025643003
:1016D00005704348401EFDD1A57401F027FC6079D8
:1016E00000B16571E07900B1E571A07900B1A57133
:1016F000207A20B12572FFF718FCFFF794FC607A7E
:1017000000B16572A07A80B102F0ACFA2665A572CC
:10171000FEF7F7FFFEF7B7FF324800F06EFCFEF76A
:101720001FFDFEF7FFFCFEF71BFDE07A00B1E5723E
:10173000207B00B12573607B78B16573FEF771FD86
:101740002078401CC0B220703C2806D3257000F0E1
:1017500004FC00F04AFC00F030FCA07B0028BBD069
:10176000A573B9E71400001000C009205428001028
:10177000A863001000400240202020202020457453
:101780006865726E65742020202020200000000013
:1017900020202020C8EDE8F6E8E0EBE8E7E0F6E8F6
:1017A000FF202020000000002872001080A9030004
:1017B000C0D4010000203000070000260100001FF7
:1017C00004003000C6EF869B16FF1604C4EFC6A1C6
:1017D000C9EF06B21616FF044001000D005008982C
:1017E00080EE3600286E00109848016841F04041B4
:1017F0000160416821F003014160416841F00C0142
:101800004160416841F03001416091480121C1606F
:101810002021016070478E49886048680006FCD529
:101820008868C0B270478B4A00B50346106840F420
:1018300080101060D06940F48010D061C3F305407F
:10184000FFF7E9FFC3F30720FFF7E5FFD8B2FFF783
:10185000E2FF5520FFF7DFFF5520FFF7DCFF11689F
:1018600041F480111160916941F48011916100BDD2
:10187000784A10B50346106840F480101060D069B3
:1018800040F48010D061C3F30540FFF7C4FFC3F3F9
:101890000720FFF7C0FFD8B2FFF7BDFF5520FFF7C5
:1018A000BAFF5520FFF7B7FF60F307045520FFF795
:1018B000B2FF60F30F245520FFF7ADFF60F317442C
:1018C0005520FFF7A8FF60F31F641168204641F41C
:1018D00080111160916941F48011916110BD5D4AE0
:1018E00010B5034610680C4640F480101060D069B3
:1018F00040F48010D061C3F3054040F08000FFF752
:101900008AFFC3F30720FFF786FFD8B2FFF783FFF4
:101910002046FFF780FF106840F480101060906947
:1019200040F48010906110BD4A4A10B5034610681B
:101930000C4640F480101060D06940F48010D061F3
:10194000C3F3054040F08000FFF765FFC3F30720B5
:10195000FFF761FFD8B2FFF75EFFE0B2FFF75BFF72
:10196000C4F30720FFF757FF106840F480101060A1
:10197000906940F480109061284610BD10B5354A3A
:1019800004460B46106840F480101060D06940F4A3
:101990008010D061C4F3054040F08000FFF73BFFAA
:1019A000C4F30720FFF737FFE0B2FFF734FFD8B2E8
:1019B000FFF731FFC3F30720FFF72DFFC3F3074005
:1019C000FFF729FF180EFFF726FF106840F480107C
:1019D0001060906940F480109061284610BD1D4A47
:1019E00000B5106840F480101060D06940F4801099
:1019F000D0610020FFF70FFF0020FFF70CFF002051
:101A0000FFF709FF106840F480101060906940F4FF
:101A10008010906100BD0F4A00B5116841F480113B
:101A20001160D16941F48011D161FFF7F4FE00200B
:101A3000FFF7F1FE0020FFF7EEFE106840F4801083
:101A40001060906940F48010906100BD00C00240B9
:101A50000000024000C0092030B54E482021C0F8E7
:101A6000A01100BFD0F8A0114906FBD500F18000FD
:101A70000322C0F884204FF40031C0F828114FF041
:101A80000001C0F82C114FF00103C0F88C30424C1B
:101A9000446003604FF0AA03C3604FF05504C46074
:101AA000A0F18000D0F888506D01FBD540F8802F60
:101AB000C360C460C0F88810384A4264C0F8481156
:101AC0008168A0F180006FEA11618A073449D0F87B
:101AD0000C2102F0030207D092B3012A46D0022A59
:101AE0004AD0032A51D13BE02AB1012A11D0022A5F
:101AF00027D0032A49D150F8882FC2F30E02521C76
:101B000053000268C2F30742521CB3FBF2F2254BAA
:101B10000CE050F8882FC2F30E02521C53000268EA
:101B2000C2F30742521CB3FBF2F21F4B5A43C36F7E
:101B3000A0F18800DBB203F10103B2FBF3F223E072
:101B40000EE050F8882FC2F30E02521C53000268B8
:101B5000C2F30742521CB3FBF2F24FF4FA43E5E73B
:101B6000D0F804210F4BD2B2521C0BE0D0F8042164
:101B70000D4BD2B2521C05E0D0F804214FF4FA43C9
:101B8000D2B2521CB3FBF2F20A6043F23A01016096
:101B900030BD000000C00F404F0003004AF100417B
:101BA0005428001000093D0080969800FE48016A04
:101BB00021F07F510162816B41F40011816300BF0C
:101BC00000BF00BF00BF00BF00BF00BF00BF00BF1D
:101BD00000BFC16B41F48021C16300BF00BF00BFE3
:101BE00000BF00BF00BF00BF00BF00BF00BF816BD0
:101BF00041F400218163416B8900FCD47047EA48BD
:101C0000016A21F07F510162816B41F4001181630F
:101C100000BF00BF00BF00BF00BF00BF00BF00BFCC
:101C200000BF00BFC16B41F48021C16300BF00BF92
:101C300000BF00BF00BF00BF00BF00BF00BF00BFAC
:101C4000816B41F480118163416B8900FCD4704742
:101C5000D54A00B50346106A40F430101062FFF711
:101C6000A5FF00BF00BF00BF00BF00BF00BF00BF97
:101C700000BF00BF00BFD06B40F48020D06300BF26
:101C800000BF00BF00BF00BF00BF00BF00BF00BF5C
:101C900000BFD06B40F40010D06300BF00BF00BF96
:101CA00000BF00BF00BF00BF00BF00BF00BF106A81
:101CB00040F07F501062906B40EA83509063D06B8D
:101CC0006FEA0301C9B240EA8150D06300BF00BF90
:101CD00000BF00BF00BF00BF00BF00BF00BF00BF0C
:101CE000D06B40F40020D06300BF00BF00BF00BF36
:101CF00000BF00BF00BF00BF00BF00BF00BDAA4AB9
:101D000000B50346106A40F480201062106A40F467
:101D100040101062FFF773FF00BF00BF00BF00BF9D
:101D200000BF00BF00BF00BF00BF00BFD06B40F4CA
:101D30008020D06300BF00BF00BF00BF00BF00BF56
:101D400000BF00BF00BF00BFD06B40F40010D063E5
:101D500000BF00BF00BF00BF00BF00BF00BF00BF8B
:101D600000BF00BF106A40F07F501062906B40EAE5
:101D700083509063D06B6FEA0301C9B240EA81508F
:101D8000D06300BF00BF00BF00BF00BF00BF00BFE7
:101D900000BF00BF00BFD06B40F48010D06300BF15
:101DA00000BF00BF00BF00BF00BF00BF00BF00BF3B
:101DB00000BF00BD7C4A00B50346106A40F44020D5
:101DC0001062106A40F400101062FFF7EFFE00BFCF
:101DD00000BF00BF00BF00BF00BF00BF00BF00BF0B
:101DE00000BF906B40F48020906300BF00BF00BF35
:101DF00000BF00BF00BF00BF00BF00BF00BFD06B6F
:101E000040F40010D06300BF00BF00BF00BF00BFA0
:101E100000BF00BF00BF00BF00BF106A40F07F508E
:101E20001062906B40EA83509063D06B6FEA0301BD
:101E3000C9B240EA8150D06300BF00BF00BF00BFFD
:101E400000BF00BF00BF00BF00BF00BFD06B40F4A9
:101E50000020D06300BF00BF00BF00BF00BF00BFB5
:101E600000BF00BF00BF00BF184600BD4E4A00B50E
:101E70000346106A40F480201062106A40F440105B
:101E80001062FFF7BCFE00BF00BF00BF00BF00BF75
:101E900000BF00BF00BF00BF00BF906B40F48020B8
:101EA000906300BF00BF00BF00BF00BF00BF00BF06
:101EB00000BF00BF00BFD06B40F40010D06300BF74
:101EC00000BF00BF00BF00BF00BF00BF00BF00BF1A
:101ED00000BF106A40F07F501062906B40EA835060
:101EE0009063D06B6FEA0301C9B240EA8150D063BE
:101EF00000BF00BF00BF00BF00BF00BF00BF00BFEA
:101F000000BF00BFD06B40F48010D06300BF00BFA3
:101F100000BF00BF00BF00BF00BF00BF00BF00BFC9
:101F200000BD10B540F0B8042046FFF791FE2046F2
:101F3000BDE81040E3E610B50446FFF789FE2046F1
:101F4000BDE81040DBE610B540F0C0042046FFF7C6
:101F50007FFE2046BDE81040D1E61348016A41F0FB
:101F60007F510162016A41F470110162016841F020
:101F7000C04101600021C26942F08042C261491C37
:101F80006429F8DB09494FF0000200BF521C8A4265
:101F9000FBDB0022836943F080438361521C322AB9
:101FA000F8DB4FF0000003E000C009207088020059
:101FB00000BF401C8842F6DB704730B50024204645
:101FC000FFF7AFFF0020FFF7B6FF00250020FFF767
:101FD000F1FE0020FFF74AFF6D1CEDB23C2DF5D954
:101FE000641CE4B2032CEAD930BD00B5AF20FFF782
:101FF0002FFEAF205DF804EB81E6F0B584460020AB
:10200000FFF7A1FF5FF0000606EB4600C0EB86106D
:102010000CEB400404F13D053046FFF782FF002041
:10202000FFF789FF00272078FFF7C4FE2878FFF725
:102030001DFF7F1C641C6D1CFFB23D2FF3D3761C6B
:10204000F6B2032EE0D9F0BD34484FF08051016064
:10205000704733484FF0805101607047F0B54FF042
:10206000A045D5F828112F4E0388021D56F831409F
:10207000DB1C9B0803D080CA5B1E80C4FBD1008898
:1020800006EBC102401E40F04040491C506003294D
:1020900000D10021C5F82811F0BD70B54FF0A04562
:1020A00034E000BFC5F8E80F00072FD5D5F8184178
:1020B00028E01C48203850F8340041001CD5C0F3FB
:1020C0000A06F61E40F2EA518E4215D81649084219
:1020D00012D146F0004000F0A7FA68B1114A011D84
:1020E000403AF61C52F83420B30803D040CA5B1EB5
:1020F00040C1FBD101F08AFA641C042C00D10024F9
:10210000C5F81841D5F81401A042D2D1D5F8E00F96
:10211000D5F8E41F0840C5D170BD000000E100E023
:1021200080E100E0D00008200000901B70B505465B
:102130000C460846FEF778F8401C82B22146284635
:10214000BDE8704000F00FBA2DE9F0470F46DDE919
:102150000889054616461C466FF0F30100F034FA74
:10216000394666F31F41284600F02EFA214668F3EF
:102170001F41284600F028FA49462846BDE8F047A6
:10218000D4E72DE9F0470F46DDE9088905461646F4
:102190001C466FF0D10100F017FA394666F31F4173
:1021A000284600F011FA214668F31F41284600F046
:1021B0000BFA49462846BDE8F04700F005BA2DE97C
:1021C000F05F0D460AA98046B1E8800E16461C460F
:1021D0006FF0ED0100F0F8F966F31F45294640461F
:1021E00000F0F2F967F31F442146404600F0ECF995
:1021F00049EA0A41404600F0E7F959464046BDE841
:10220000F05F93E770B50D4604466FF0F60100F0FD
:10221000DBF929462046BDE8704000F0D5B96FF0E3
:10222000FE0100F0D1B92DE9F05F0D460AA9804604
:10223000B1E8800E16461C466FF0EF0100F0C4F9BD
:1022400066F31F452946404600F0BEF967F31F4478
:102250002146404600F0B8F949EA0A41404600F0FC
:10226000B3F959464046BDE8F05F00F0ADB970B52E
:102270000D464A490446082008806FF0F5012046C3
:1022800000F0A2F929462046BDE8704000F09CB954
:102290002DE9F05F0F460AA98246B1E8200B1646E9
:1022A0001C466FF0F20100F08FF9394666F31F41CA
:1022B000504600F089F9214665F31F41504600F071
:1022C00083F9414669F31F41504600F07DF95946B4
:1022D0005046BDE8F05F29E770B50D4604466FF043
:1022E000EA0100F071F92946204600F06DF9204618
:1022F000BDE8704000F016B970B50E4614460546AC
:102300006FF0D40100F060F93146284600F05CF926
:1023100021462846BDE8704000F056B92DE9F04747
:102320000F46DDE90889054616461C466FF0D301C5
:1023300000F04AF9394666F31F41284600F044F997
:10234000214668F31F41284600F03EF949462846D9
:10235000BDE8F04700F038B92DE9F0470F46DDE958
:102360000889054616461C466FF0D20100F02CF98C
:10237000394666F31F41284600F026F9214668F3E6
:102380001F41284600F020F949462846BDE8F0479D
:1023900000F01AB96FF0FF0100F016B95E000010EE
:1023A00070B5924B0029064619681446C2F30540E1
:1023B000C2F3072541F480111960D96941F48011F5
:1023C000D9610CD040F08000FFF725FA2846FFF7CE
:1023D00022FAE0B2FFF71FFA0220B07170BDFFF7DA
:1023E0001AFA2846FFF717FAE0B2FFF714FA552059
:1023F000FFF711FA0120F0E7428802F54212CFE719
:1024000070B5807900250C4602280AD00020FFF71D
:1024100002FA04460020FFF7FEF944EA00252846A8
:1024200070BDE0B2FFF7F7F9200AFFF7F4F9F6E71D
:1024300070B50646807900250C4602280CD0002194
:102440003046FFF7DDFF044600213046FFF7D8FF96
:1024500044EA0045284670BDA1B23046FFF7D0FFE0
:10246000210C3046FFF7CCFFF4E760490A6842F4DC
:1024700080120A608A6942F480128A6100218171A7
:10248000704710B50A4604460021FFF789FF002176
:102490002046FFF7B5FF03462046FFF7E6FF534906
:1024A000086840F480100860886940F480108861F2
:1024B000184610BD70B514460A4605460121FFF7BF
:1024C0006FFF21462846FFF79BFF2846BDE8704076
:1024D000CBE770B514460A4605460121FFF760FFB9
:1024E00021462846FFF7A4FF2846BDE87040BCE718
:1024F00042881144C1F30B02D21C40F6FC710A4021
:1025000042803B49D6E710B539490446091FFFF719
:10251000B8FF6188081AC0F30B00A0F6FC704042B7
:1025200080B210BD2DE9F041314E0446361F371DF3
:1025300031462046FFF7A5FF054639462046FFF7FE
:10254000A0FF8542F4D139462046FFF79AFF60800C
:10255000BDE8F08170B505460C462846FFF7D3FF6D
:10256000A042FAD370BD2DE9F04180460F461646D1
:1025700034464046FFF7C7FFA04203D24046FFF76C
:10258000C2FF0446A1B20D464046FFF7E3FF2A46CC
:1025900001214046FFF730FF002504E03878FFF7BF
:1025A0003AF97F1C6D1C641EF8D24046FFF75DFFB0
:1025B000A9B24046FFF79CFF4046FFF7B3FF701BF0
:1025C0000604360CD4D1C3E770B50D460446042189
:1025D000FFF7C0FF61882A4601F542112046FFF748
:1025E00078FF2046BDE87040042181E700C0092043
:1025F000FC203000084400EB104080B2704701021C
:1026000041EA102080B2704702E008C8121F08C1DA
:10261000002AFAD170477047002001E001C1121F63
:10262000002AFBD1704700002DE9F0470027DFF8B2
:10263000909000280CDA2349D9F8002020F00040BF
:102640000968024401EB4101B2EB910F18D8012750
:1026500005460F3020F003060FB9FFF7FAFC1A4CBD
:10266000D4E90002011B891AB1420CD20446006869
:102670000028F5D127B9FFF7E7FC0020FDF73EFD64
:102680000020BDE8F08772B1101921680160206058
:1026900000F10808C0F80460D9F800103144C9F806
:1026A000001027B105E004F108086660F4E7FFF7C1
:1026B000CBFCA8F800500020A8F802004046E0E754
:1026C0006C280010743C00001CC007202DE9F04766
:1026D0000746894690460026284C294D0BE0207875
:1026E00038B10422394604F10A0000F03DFC01280B
:1026F00035D00E34761C28888642F0DB21493846D6
:1027000000F0ECFBD0B91F4804220021001D00F0AE
:1027100051FC10B10020BDE8F0870026174C0AE0FC
:10272000207830B106224946201D00F01DFC01280A
:102730001AD00E34761C28888642F1DB404600F021
:1027400027F80028E7D00D49C0EBC00001EB40049A
:102750000E3C0422394604F10A0000F015FC062262
:102760004946201D00F010FC07480088E07007482B
:102770000078A070032020700120CCE77C28001096
:102780007A3C0000B47200107C3C00007E3C0000EB
:10279000F0B50546012116480E46164A03E00378B7
:1027A00053B10E30491C13889942F8DD1248104B82
:1027B0000488002001210DE0067045700846F0BD38
:1027C0005F78012F04D1DF78A74201D83C46084644
:1027D0000E33491C1788B942F2DD0028EFD0044AB5
:1027E000C0EBC00102EB410101F80E6D4D70F0BD70
:1027F0007C2800107A3C00007C3C00002DE9F0476A
:1028000081460F4600253D4C3D4E0BE0207838B107
:102810000422494604F10A0000F0A6FB012815D065
:102820000E346D1C30888542F0DB3649484600F096
:1028300055FBDFF8C880334D01284FF0040209D062
:102840000021281D00F0B6FBE8BB1DE0207803281E
:102850004ED350E04946281D00F086FB012806D1E2
:1028600004220021281D00F0A5FB00B900273846EE
:10287000FFF78EFF06003CD0C6EBC60108EB410413
:102880000E3C042249461DE000271C4C0BE020783A
:1028900038B10422291D04F10A0000F065FB01286B
:1028A000D4D00E347F1C30888742F0DB0020FFF745
:1028B0006FFF06001DD0C6EBC60108EB41040E3CBD
:1028C0000422291D00E013E004F10A0000F05CFB83
:1028D00006220D49201D00F057FB0C480078A0701F
:1028E0000B480078E070304600F012F902202070AA
:1028F0000020BDE8F0872046FBE700007C280010A0
:102900007A3C0000B4720010D24200007E3C00000D
:102910007F3C00002DE9F0470026DFF8D480DFF887
:10292000D490B246344F5DE0B9F80050691C89B2CA
:10293000A9F800103A88914201D3A9F800A02F49C4
:10294000C5EBC50001EB40042078C8B3E07820B1A6
:10295000401E10F0FF00E07043D1607801280AD1DA
:102960000422274904F10A0000F0FEFA012806D0EB
:102970006078012818D010F0FF0F02D031E084F801
:1029800001A004221F4904F10A0000F0EDFA012819
:1029900017D02078032818D0A07800B3401E10F07C
:1029A000FF00A0701BD012E02078032817D0A07879
:1029B000A8B1401E10F0FF00A07010D0022005E06A
:1029C0000FE011480088E0700BE00420207098F8B8
:1029D0000000E070681CBDE8F04700F099B884F88A
:1029E00000A0761C388886429EDBBDE8F087000098
:1029F0007F3C0000782800107A3C00007C28001002
:102A0000B8720010D84200007C3C00002DE9F04173
:102A100006460025134C00F10E08134F0DE02078F8
:102A200048B1012807D0042204F10A01404600F011
:102A30009BFA012806D00E346D1C38888542EEDBE7
:102A4000BDE8F081062206F10801201D00F09CFA85
:102A500006480088E07006480078A07003202070C7
:102A6000EEE700007C2800107A3C00007C3C00006F
:102A70007E3C00002DE9F04105460E462A20FFF776
:102A8000D3FD044605F1080106220F46001D00F0A3
:102A90007BFA06221C4904F10A0000F075FA4FF493
:102AA000C16020824FF4807060820820A0820620DE
:102AB000A0750420E075268304F12400062239461F
:102AC000064600F061FA05F10E0104F12A00042225
:102AD000054600F059FA06220B4904F11A0000F0ED
:102AE00053FA0422094904F1200000F04DFA0122B2
:102AF00031462846FFF7EAFD2046FFF7AFFA2046A9
:102B0000BDE8F04100F0AEB800C00720B47200107C
:102B100070B505462A20FFF787FD044606222349A3
:102B2000001D00F031FA0622214904F10A0000F0EC
:102B30002BFA4FF4C16020824FF48071618208202B
:102B4000A0820620A0750420E07521830622184982
:102B500004F11A0000F018FA0422164904F12000CA
:102B600000F012FA4FF0060265B1002104F12400D2
:102B700000F018FA1049C5EBC50001EB4001042232
:102B8000091F06E0094904F1240000F0FDF9094994
:102B9000042204F12A0000F0F7F92046FFF75EFA5C
:102BA0002046BDE8704000F05DB80000D242000051
:102BB00000C00720B47200107C28001006220249D1
:102BC000001D00F0D1B9000000C0072070B5044618
:102BD00000F12205204E04222049284600F0C4F9C5
:102BE00038BB0422002104F11E0000F0E3F908B113
:102BF000002070BD28780E21B1EB101F0ED10120EE
:102C00002071002060715E20A071687800F07F0064
:102C1000E071A8782072E87860720FE0284600F032
:102C20006FF930B901212846FFF7E8FD0028E0D010
:102C3000061D06223146201D00F0A6F9062208498D
:102C400004F10A0000F0A0F9082020822046FFF7D6
:102C500005FA012070BD0000D2420000D8420000F9
:102C600000C0072070B500282AD0A0F10806154C36
:102C70000025FFF7EEF909E0254624682068800763
:102C800003D0FFF7E1F9022010E064B1B442F3D1C0
:102C90000D4861680B4B0268511A01609C4209D1D2
:102CA0000020606008E0FFF7CFF90120BDE8704028
:102CB000FDF724BA20682860BDE87040FFF7C4B96A
:102CC00070BD00001CC007206C28001001784278FD
:102CD000090641EA02418278C07841EA02210843AC
:102CE00070470000F8B504460F46808AFFF787FC5E
:102CF000054621880E30814245D3A07C0421B1EBEA
:102D0000101F40D1264907EB870001EB800104F139
:102D100022000422064600F027F958BB042221496C
:102D2000304600F021F928BB6FBB31780E223046C7
:102D3000B2EB111F04D1FDF7F2F9012815D00EE016
:102D400004223146684600F01FF9154800990268D0
:102D500080684A40024202D10843401C05D0204608
:102D6000FFF72CFF78B1E07E02E0E07E022801D080
:102D7000112808D104F1120000F016F818B9208BC0
:102D800030F0C00001D00020F8BDA07C0007800E0C
:102D900000F10E016180281A20800120F8BD00009A
:102DA000B4720010D842000001780907890EFDF7BF
:102DB00085BA00002DE9F041214C8046214F207852
:102DC000C0070AD02049404600F088F840BB0422E2
:102DD000FF21404600F0EEF810BB1B4D2078143563
:102DE000800704D52946404600F078F800BB164E0F
:102DF00020782836400704D53146404600F06EF86A
:102E0000D0B92078800702D52078000710D4207828
:102E1000400702D52078C0060ED42078C00704D021
:102E2000002038700848BDE8F0812078800703D57D
:102E3000012038702846F6E7022038703046F2E765
:102E4000703C000018C00720B47200102DE9F0415A
:102E50000446DDF818800F461646012A08D0022ED7
:102E600006D0062E04D0112E02D00020BDE8F0813D
:102E7000194D45216888401C68802088A174143051
:102E800080B2E374FFF7BBFBA0826888FFF7B7FB53
:102E9000E0820020208384F81A80E676A0833846FA
:102EA000FFF788FF0146042204F11E0000F06CF8D1
:102EB0000422394604F1220000F066F804F1120001
:102EC000FFF772FFA08320882230208029782046D7
:102ED000BDE8F041FDF71EB918C0072018B50C4633
:102EE00001460422684600F04FF8206800994840E7
:102EF000A168084201D0002018BD012018BD0000C3
:102F000038B5044601460422684600F03DF80648FC
:102F1000826800980243521C01D0002038BD02494B
:102F20002046FFF7DBFF38BDB47200100C480021CB
:102F30008278012A04D0017080F80110FDF7DFB813
:102F4000817081880122491C8BB28380C1888B42A9
:102F500004D1044B1B881944C18042700270EDE714
:102F600070280010783C000010B508E003780C7859
:102F7000A34201D0002010BD401C491C521E002A53
:102F8000F4D1012010BD000030B5134606E000BFAB
:102F9000054611F8014B401C2C705B1E002BF7D12D
:102FA000104630BD03E000BF00F8011B521E002A8E
:102FB000FAD170473AB103788B4201D000207047B4
:102FC000401C521EF6E701207047704770B501881B
:102FD0002A2941D3418A4FF4807399423CD1818A96
:102FE000082939D1817D062936D1C17D042933D103
:102FF000028B00F11204B2F5806F2DD00ADC4FF481
:10300000007500F12A009A4217D0AA4224D1042266
:10301000124909E024304FF41065B2F5006F0FD06B
:10302000AA4219D106220E49FFF79EFF002813D0AD
:103030002046BDE87040FFF7E9BC0422074901E0E3
:1030400006220749FFF790FF002805D029462046B1
:10305000BDE87040FFF70EBD70BD0000B4720010F7
:1030600000C0072070472DE9F84304464188001D41
:103070000E18258830462946FDF720F928B9307802
:1030800048B3082801D1707810B10020BDE8F8835A
:1030900005F12200FFF7C8FA00F126070021397078
:1030A0007970018580462A1F311D381DFFF76CFF9E
:1030B00029463846FDF702F97880A8F800508023A9
:1030C000009340460023012204F11E01FFF7BEFEDB
:1030D0004046FFF7C7FD0120D8E700002DE9F05F6B
:1030E000428800F1040B02EB0B050646287B6FF0CB
:1030F000030101EA900014287ED3318881427BD3FA
:103100000244081A1FFA80F8728006F1120128465C
:1031100000F016FB5FEA000A06F11E076DD00022E0
:103120000421381DFDF7D6F8024604213846FDF784
:10313000D1F80146F07EFFF75DFA01463088FFF7CF
:1031400059FA024631882846FDF7C4F8C043000406
:10315000000C51D10AEB4A0101EBCA00F9494FF0CA
:10316000100901EB800414F82C0D0B2879D2DFE84C
:1031700000F04444C4F9F7F6F5F4F3F20600687B76
:10318000410704D5A07840F00800A070CEE1810787
:1031900013D5C00630D5281DFFF798FDA169401C46
:1031A000884229D105F10800FFF790FD6169884246
:1031B00022D100BF84F82290B0E1D4E904129142F8
:1031C0003FD0C00618D505F108000746FFF77EFD81
:1031D00001466069814215D120610021204600F03E
:1031E000FDFCA078221D40F00800A070A76A23898A
:1031F00004215046B84701E07DE0CCE0A07820F003
:1032000008001DE0A07840071BD53846FFF75EFD9B
:1032100001466069001F814213D12061676A042260
:1032200038883918363107F13A00FFF7ADFE3A21F8
:10323000384600F001FA04203880A07820F004001D
:10324000A070281DFFF742FDA16988420AD0281D01
:10325000FFF73CFDA169401C8842ABD1A08BE08305
:10326000A8E76AE1A178B8F1000F41F00800A0706A
:103270000DD0E08958B17188A66A01EB0B02434674
:1032800005215046B047A16901EB0800A061687BA9
:10329000C00717D0D4E90401884213D1221DA56AC2
:1032A000238902215046A847A069401CA06160699B
:1032B000401C6061112084F82200504600F0C2FBDF
:1032C00008211BE1A178B8F1000F21F00800A070DF
:1032D0000FD084F822906078000707D5E089404538
:1032E00002D9A0EB080000E00020E081504600F089
:1032F000A9FBA08BE083BDE8F09F687B410701D567
:103300000221FBE0C10601D4800704D439462846D7
:1033100000F024FCF4E7221DA66A23890021504610
:10332000B047C0B32946504600F054FB00F0FEF908
:103330002061401C6061281DFFF7C8FC401CA06193
:10334000122084F82200504600F07CFBA07820F088
:103350000100A07053E0E6E0BDE0A3E08FE062E092
:1033600036E0FFE7687B41077AD4C10714D005F146
:103370000800FFF7ABFC61698842BCD1281DFFF74C
:10338000A5FC401CA0616069206184F82290504631
:1033900000F058FB11E040E0C10616D505F1080029
:1033A000FFF794FC61698842A5D1281DFFF78EFCC8
:1033B000A16988429FD160692061221DA56A238985
:1033C00001215046A8470A2198E0800793D424E0C1
:1033D000687B410744D4122636EA000111D08007E9
:1033E0001BD52946504600F0F5FA281DFFF76EFC64
:1033F000401CA06184F82260504600F023FB0321AA
:103400007CE005F10800FFF761FC61698842B4D1F6
:103410002946504600F0DEFAB0E739462846BDE8B6
:10342000F05F00F09BBB687B41077FD4C10718D0D9
:1034300005F108000646FFF749FC6169884205D09E
:103440003046FFF743FC2169884296D1281DFFF7DB
:103450003DFC404400F10100A061606920611AE078
:1034600064E0C0067FF547AF05F10800FFF72EFCCA
:1034700001466069814297D1062120613EE0687B68
:10348000410753D4C0073FF436AF281DFFF71EFC99
:103490004044401CA06184F82290504600F0D2FACB
:1034A00009212BE0687B410740D4C10609D505F10D
:1034B0000800FFF70BFC014660698142A7D120613B
:1034C000EEE7C007DFD0281DFFF700FC404400F105
:1034D0000100A0616EE6687B410727D4C10612D5C2
:1034E00005F10800FFF7F2FB0146606981428ED1C9
:1034F000206160780221C00700D101212046BDE88B
:10350000F05F00F075BBC007BDD0281DFFF7DEFBE4
:103510004044401CA061112084F822005046BDE8C0
:10352000F05F00F08FBA687B4107CAD5221DA56AFB
:10353000238903215046A847DBE7BDE8F05F05205B
:10354000FCF7DCBD082900102DE9F8430546418849
:10355000001D0C18A088FFF752F8082848D301274F
:10356000284EDFF8A48047E03078022842D16088F6
:10357000FFF745F8718888423CD117F0FF0737D034
:10358000717905F11E09890724D5E08810B300225E
:10359000042105F12200FCF79DFE02460421484665
:1035A000FCF798FE0146E87EFFF724F88046A088E5
:1035B000FFF725F84146FFF71DF88046A088FFF782
:1035C0001EF8014642462046FCF784FEC043000434
:1035D000000C0DD12088FFF712F8024628884946D2
:1035E000083883B20093B56804F108033846A84749
:1035F000BDE8F8830C367F1C98F800008742B3DDE5
:10360000F6E700001C000820803C0000084A30B4A7
:10361000D2E90034591C01F01F01A14205D0054C2C
:1036200044F82300116030BC704730BCFFF71ABB70
:1036300010C007203472001070B50180A0F108049A
:103640000F31606821F00305A8420CD9FEF701FD97
:103650006068411B04480268511A01606560BDE85A
:103660007040FEF7F1BC70BD6C28001070B5FFF71C
:10367000ACFC27480078012801D1FFF74BF9254918
:10368000D1E90020824241D0234A52F82040401C18
:1036900000F01F004860208A082806D0B0F5C16FEE
:1036A0002FD12046FFF792FC2BE000212046FFF7A8
:1036B00019FB10B304F11E00042200210546FFF798
:1036C00079FC28B9012204F10A012846FEF7FEFF21
:1036D000E07E012806D0022808D006280ED0112846
:1036E0000FD107E02046FFF7BEFC0AE02046FFF7B7
:1036F000B9FC06E02046FCF709FD02E02046FCF795
:1037000007FD2046BDE87040FFF7ACBA70BD000071
:103710007128001010C00720347200100A0E0270C9
:103720000A0C42700A0A8270C170704703484FF653
:10373000FF71008801EB0040704700007428001002
:103740002DE9F04105460127234C01F10C08234ED9
:1037500017E02078022812D02888FEF750FF218930
:1037600088420CD16888FEF74AFF6189884206D1F9
:1037700004224146201DFFF7F7FB012809D02C3415
:103780007F1C30788742E4DD687B10F0150F20D174
:1037900002E0F8B2BDE8F08180071AD501270E4C8F
:1037A00014E0207802280FD16888FEF728FF61898D
:1037B000884209D104224146201DFFF7E5FB2888F5
:1037C000FEF71DFF2081E4E72C347F1C3078874210
:1037D000E7DD0020DEE7000008290010813C000042
:1037E0002DE9F0477448754B007898B1754A00216F
:1037F000734814780BE0028C0AB1521E0284012C2B
:1038000003D1C28B0AB1521EC2832C30491C1A78D4
:103810009142F0DB00264FF011084FF0020A6A4F88
:103820006A4D9946A8E0297899F80000814201D9AB
:10383000012028702878624900EB400202EBC000AA
:1038400001EB800414F82C0D0B2877D2DFE800F090
:103850009090905959778677776C0600D4E90420C8
:10386000A178A0EB0200C90700D038B1E18B91B17B
:1038700000287DD0208C00287AD120E0A07820F08C
:103880000100A07084F822806069401C6061287883
:1038900000F0D8F811E084F822806069401C606173
:1038A000287800F0CFF8A078221D40F00800A07022
:1038B000A66A238902212878B047052175E094F88B
:1038C0002300A8B104F11C04401EE0714FF0180061
:1038D000A071A1684FF0000328780A88164600F00E
:1038E000C3F8A06806803888A080208860805FE0E8
:1038F0000021204600F072F9A07840F00800A07086
:1039000042E0208CD0B994F82300E0B3401E84F844
:103910002300287800F096F821783888032901D010
:103920002B480088208443E0208C38B960785146C9
:10393000C00700D10121204600F05AF918E0208C80
:10394000B0B994F82300F0B1401E84F8230084F845
:103950002280287800F076F83888E3E7208C38B9A0
:1039600094F8230078B1401E84F82300388820841E
:103970002878401C2870761C99F800108E42FFF4BD
:1039800052AFBDE8F087FFE7042084F822002878D2
:1039900000F058F8221DA66A238903212878B04731
:1039A00060785146C00700D10121204600F020F97F
:1039B0002878401C2870E4E770280010813C000043
:1039C0000829001071280010843C00000CC007205A
:1039D000883C0000F0B50A7B6FF0030303EA920411
:1039E000143C2BD01431002240F2B45324E08D5CFF
:1039F000002D23D0012D02D0022D18D101E0521C40
:103A00001AE08E187578042D11D100EB40050C4F8B
:103A100005EBC005768807EB85052C3D76BA9E42FE
:103A200000D91E46AE81AE7846F00206AE708D1803
:103A30006D78002D02D02A44A242D8D3F0BD0000F8
:103A40000829001070B505463A20FEF7EDFD044642
:103A5000002301461A46284600F006F82046BDE835
:103A60007040FFF7FFB800002DE9F8430D461746F8
:103A7000984678B137490978491C88420AD800EB42
:103A8000400101EBC000344901EB80042C3CA089CB
:103A9000B84202D20020BDE8F88305F1260660890D
:103AA000FEF7ADFD30802089FEF7A9FD7080216909
:103AB000301D4144FFF732FE06F10800A169FFF70F
:103AC0002DFE5020307394F822007073E089FEF7C9
:103AD00096FDF081002030827082A07881070ED59B
:103AE00020F00200A07040F20240688705F13A071A
:103AF000A089FEF784FD7880602030730427201DA4
:103B0000FFF758F900220421FCF7E4FB02460421E8
:103B1000201DFCF7DFFB01460620FEF76BFD01468A
:103B20001437B8B28046FEF765FD02463946304686
:103B3000FCF7D0FBC04380B2FEF761FD3082A5F8F0
:103B4000008080230093E3780622211D2846FFF79A
:103B50007DF9A0E7813C00000829001070B51D4EDA
:103B600005461D4B3278407B02EB420404EBC20257
:103B700003EB820440072CD40422201DFFF704FA33
:103B80002888FEF73CFD20816888FEF738FD6081BB
:103B90000020E070697BC9060BD505F10800FFF72E
:103BA00095F82061042084F82200281DFFF78EF884
:103BB00007E02061142084F82200281DFFF786F812
:103BC000401CA0613078BDE87040401CC0B2FFF7D7
:103BD00039BF70BD813C00000829001070B5044653
:103BE000406A0D4608B1FFF73DF8656270BD000000
:103BF00070B504460170164D00200B291BD2DFE87A
:103C000001F01C1C1C200C1515151506120011497D
:103C10000988218484F823000DE00F490F4A0988A0
:103C20002184117805E0A08BE0830AE02A88012135
:103C3000228484F82310E08370BD00212046FFF722
:103C4000CDFF074928882084087884F8230070BDB8
:103C5000843C0000863C00008A3C00008C3C000054
:103C6000823C0000014901208870704770280010D4
:103C7000390000000040000064000A0096000402C1
:103C80000507050090011400C8006400070000004B
:103C9000000000007F3E1C080000080C0E0C08000D
:103CA0000000000000000000000000000000000014
:103CB0000000000000000000000000000000000004
:103CC00000000000000000000000000000000000F4
:103CD00000000000000000000000000000000000E4
:103CE00000000000000000000000000000000000D4
:103CF00000000000000000000000000000000000C4
:103D000000000000000000000000000000000000B3
:103D100000000000000000000000000000000000A3
:103D20000000000000000000000000000000000093
:103D30000000000000000000000000000000000083
:103D40000000000000000000000000000000000073
:103D50000000000000005F00000000000000000004
:103D6000143E143E1400242A7F2A120023130864F0
:103D70006200364955225000000000060000003E57
:103D8000410000000000413E000014083E081400FD
:103D900008083E0808000050300000000808080825
:103DA00008000000606000004020100804003E5140
:103DB00049453E0000427F400000426151494600B3
:103DC0002141454B31001814127F1000274545450D
:103DD00039003C4A49493000017109050300364960
:103DE00049493600064949291E00003636000000C0
:103DF00000563600000000081422000014141414A9
:103E00001400002214080000020151090600324982
:103E100079413E007E1111117E007F4949493600EB
:103E20003E41414122007F4141221C007F494949D6
:103E300041007F09090901003E41415172007F089C
:103E400008087F0000417F4100002040413F010001
:103E50007F08142241007F40404040007F020C0256
:103E60007F007F0408107F003E4141413E007F09F2
:103E7000090906003E4151215E007F0919294600CB
:103E800046494949310001017F0101003F4040405E
:103E90003F001F2040201F003F4038403F00631478
:103EA0000814630007087008070061514945430082
:103EB000007F410000000408102040000000417F06
:103EC00000000402010204004040404040000000A5
:103ED000000000002054545478007F4844443800C7
:103EE000384444442000304848507E0038545454EC
:103EF0001800087E09010200085454543C007F1049
:103F00000808700000447D4000002040443D00004F
:103F10007E102844000000417F4000007C0418040B
:103F200078007C08040478003844444438007C1449
:103F300014140800081414147C007C0804040800FD
:103F4000485454542000043F444020003C4040204A
:103F50007C001C2040201C003C4030403C00442899
:103F6000102844000C5050503C004464544C440011
:103F700000083641000000007F00000000413608C4
:103F80000000000000000000000000000000000031
:103F90000000000000000000000000000000000021
:103FA0000000000000000000000000000000000011
:103FB00000000406070604000000000000000000E6
:103FC00000000000000000000000000000000000F1
:103FD00000000000000000000000000000000000E1
:103FE00000000000000000000000000000000000D1
:103FF00000000000000000000000000000000000C1
:1040000000000000000000000000000000000000B0
:1040100000000000000000000000000000000000A0
:1040200000000000000000000000081C3E7F0000AF
:104030000000000000007F3E1C0800081838180827
:104040000000000000000000000000000000000070
:104050000000000000000000000000000000000060
:104060000000000000001C3E3E3E1C00000000005E
:1040700000000000000000000000000000007C556F
:104080005445000000000000000000000000000097
:104090000000000000000000000000000000000020
:1040A000000000000000000000000000000000060A
:1040B0000909060000242E24000000000000000072
:1040C00000000000000000000000000000000000F0
:1040D0000000000000000000000000000000385553
:1040E000545518007C10207B0B00000000000000DD
:1040F00000000000000000000000000000000000C0
:1041000000000000000000203038302000007E1148
:1041100011117E007F49494931007F4949493600E4
:104120007F0101010300603E21217F007F49494951
:10413000410077087F0877004149494936007F20D0
:1041400010087F007F2011087F007F0814224100A3
:10415000407E01017F007F020C027F007F0808087B
:104160007F003E4141413E007F0101017F007F0908
:10417000090906003E414141220001017F01010081
:104180004728100807001C227F221C006314081413
:1041900063007F404040FF00070808087F007F4021
:1041A0007F407F007F407F40FF00017F48487000D4
:1041B0007F4438007F007F48484830002241494909
:1041C0003E007F083E413E00462919097F002054E9
:1041D000545478003C4A4A4931007C545428000029
:1041E0007C0404040C00603824247C0038545454AB
:1041F00018006C107C106C004444545428007C203F
:1042000010087C007C2012087C007C1028440000F0
:10421000403804047C007C0810087C007C101010DE
:104220007C003844444438007C0404047C007C1442
:104230001414080038444444000004047C040400BE
:104240000C5050503C0018247E241800442810289C
:1042500044007C404040FC00001C10107C007C406E
:104260007C407C007C407C40FC00047C5050200062
:104270007C5020007C007C50505020002844545436
:1042800038007C1038443800085434147C20202036
:1042900000FFEDE200F4E5E200ECE0F000E0EFF01A
:1042A00000ECE0E900E8FEED00E8FEEB00E0E2E310
:1042B00000F1E5ED00EEEAF200EDEEFF00E4E5EAE4
:1042C0000030313233343536373839414243444592
:1042D0004600FFFFFFFFFFFFFFFFFFFF1C43000043
:1042E000000000107C2800005C020000CC69000087
:1042F00000C007201C00000008260000CC69000058
:104300007C280010744A000018260000E8690000AC
:104310001CC00720DC7200001826000002120001F9
:104320000369140001000DFF48656C6C6F20576F26
:10433000726C640001051E2D201509070A180F155F
:10434000110608080F0D060D060E1011111104209C
:1043500024111106060C0E0D0F1813101010131057
:104360001511131313101712131210111213171221
:10437000160F171B0C0027181712090E090E12082A
:104380000E0F0D0F0E0B0F1006090E0717100F0F53
:10439000100B0D0A100F140D100E0B060B0B7F12D5
:1043A00001831604B4161CB81624BC23EC03940134
:1043B0001C01022010B4100A11111211111312065F
:1043C00011B411B81004141110BA000522171212FA
:1043D00014AE2194218752189400FF00484E00002B
:1043E00078DAED9D5D8C63479580CBFFFF6D7B0098
:1043F0008924A4ED24249112141B0D111289E2D6F4
:104400006AC5A25D16F7033C2014DC6857E20184FC
:104410001D7818102C363C208432B147E28904D92B
:104420009348EC039BB86723962060EC1E1816296E
:10443000516E87B04CE0616E07F19F81DB76B7FB70
:10444000D7BE67CB3DB7CE394EAE35D333EDDBEEBD
:1044500021359A9E6F6ED72DDFBA5575EA9C53A70A
:10446000CADE48281C888613B170301A967FA2E1F4
:10447000607846FE8C849233C99948D0EB0F46236E
:104480003351AFDF1F0CF902BE400893CF37FC1940
:104490008BC8140E47A2BE5044DE68FD2F1C0F8748
:1044A00043FE805FFE0CC90243FE50D8E70BFBE3DE
:1044B000E150381C0CF9C3C15828184CF863E18846
:1044C0005B0811957FDF2EFFBE4DBC99F69DEA007B
:1044D000B060C74BC924E669B3FC00FF00ED917BD7
:1044E0007FCACB99C77BDFA2AD50FE42C78E978EA5
:1044F000519ED16738EF54DD5D8F5E5C543C0BD02C
:10450000505CDD48601E6D81F2EBFFD14F239B8034
:104510006FC26864D614C35C7403391BD9C43CF3FE
:10452000B19EE2E6621EF3E701F0197CDA9F1D6B93
:10453000F7AA7CE7093B7E89DABDBACCF23BC8D347
:10454000965A00695BAEB03C07C4934E1ED9D61D87
:104550005BBEAD409CC82BF68240F6310E98C4C1BC
:104560000171748738B581EC2AAF250B56A78FC22D
:104570003055DEC85BC3F136867F3CEF7CBBC7019C
:104580007AB6DC99414E31CEAD121756889B35E490
:104590000890ACDBAB7BC9E27599CD86F7DE5DE2B6
:1045A000FAABE287050FA4FD974574EB55C9B3BB81
:1045B0007BBFC86C4BAE77AC4CC7E10EF574DA4FDD
:1045C000E05D7DEBEECC36D4BB4A50F6417B55091D
:1045D000EBDF417E5BF5937F83BB2114DCBBC7B16E
:1045E000812C53BF3CA0AB6B92F3C316146E68488A
:1045F0000EEF8D9F282424BBA03D85C33D64CA16C1
:104600009BDDB2E47CAD59AB5BB229B7D6FCA61AF0
:10461000FD8141F3E94D1C2FBAA6047A6CBBF92D3C
:10462000F5DACAAF364F590DEC868566AD78F91DBF
:1046300046FBB2FCD8AE43E3FDEC251C3905009ADD
:104640009BFEFB01536579212D4736A65BFA8865F1
:10465000F82DE375CA7333E6BF4D562DABBA40163D
:104660005918E7EE0536C76DB0E7999B5639FF69D3
:1046700003D519977E91E47C52CEDE8ADD8FD3EB91
:10468000F1C20E1BA594E7B32EBD84E3CEA0723E0B
:104690006D3CEB9C5ED716D16DE22263833808C473
:1046A00029C6CD1F21FF041E447E619BCA840EE3F0
:1046B00012B1C93EB737F20C7800FF00B452A44FD4
:1046C0005C606C109F3089AB7F22864F120F02C452
:1046D000EB8C1789279D7C724E59B3E5648E586424
:1046E000F6C3FE0171B04F1CDD457615379023529D
:1046F000A940EECF51FE694B724EDFB4E56ED49601
:10470000531DE2CC2A717505390235E4E86E82F258
:104710004C5D9F6F888C12E85A57349177DC28E8FB
:1047200035B887B8D96A217F1172C89FDB8D23976E
:104730006E632CE2EB0EDAB06B76BC447D5ECA9FF2
:10474000CC61F0D4B53BC0962D972207CE5396622C
:10475000B26BD404E9DE15B289B87D74303CE11443
:10476000D91DAAA64A0D4993DEA557A435A654B66D
:104770009519D4BB523D34CB4468B7D960F620E9D3
:1047800063DA803EA1C044570E6F15EE16BA2B4473
:1047900093541BD1FCBD934D4975E1EC7A14CCEFD9
:1047A0005BFCD0D0B87AC9AAD6EFF2DD8FEF587A89
:1047B000F85CAEE30765DAE63A9E00FF00CB75E0F1
:1047C000CCF308ED9778EFE5322DDBC7F504983F81
:1047D000B77D9E4927D65E57C19E67A0BF407A38F5
:1047E000EA78C669E3FD56A77141DAC85A7E2ED928
:1047F000858DACE58FD8BBAE5B37EB678C7F52CD38
:104800003D2C470D72B72C7FFE1A9FED1A74DA43C8
:1048100091E1C379643D41F38BF21472DE1B0363B3
:10482000F8DBA543D1690F5EB6B3EA0E992481285F
:104830008EE183F05D08A324B4DA35B27ECEADE418
:10484000E45E7B290E83892C5C947F58B57DF254FD
:1048500025C8663A57E405629D5C80E24153677261
:104860002C73153C711B56BEE7CB0E29477929A93D
:104870009D4A5ABCE7A07C234F9F0D9BE904760F0D
:104880009887B5B5E11BBCDD3FC1DABAFF7A462B8C
:10489000D89E7F7DC3B43B2C335E61C37F0CBBD2FB
:1048A00007E0AB7C6DCECE57699CBB47AD4FB97F5F
:1048B0009876015B0AD017981158B200FF00635731
:1048C0005239E35CC785508357EA786E5444F45FED
:1048D000BC0B35F7DC88AFF2B5A9F5559E44AD6E3B
:1048E000A8C293C9753C804B79C2F375340B440060
:1048F000F86BA3EBFF183059399B76E5BF992698E2
:1049000052CC291A6796739C995F64C54923B647B0
:104910001C650E9608733884BB4C228D99AD23FF1D
:1049200033E6731DB4DEF5FB77F7C537542A2FE75E
:10493000B0999A8B855514E8155C0A2F4AC96BDA31
:10494000B00F92A884F84D170EE6A1A4EED9F0ECB2
:10495000E64D7D2514E2BD08F6B8CC5A6C932CD8F0
:1049600078EFC0EB185EB5655FCB7C4AB07AA99949
:10497000037EF0F2F7945909776340800B4E507034
:10498000800EDB28931FE21AC9C74C12708165A301
:1049900046DC5236CB0B1FB8A0E685A16B1C9D1DD3
:1049A000EFD307952B3DF341A5E134F91B55773340
:1049B000EB572FBD5F68C4AC5ABA37A300FF00CBDA
:1049C0008505E217D5BD83E253383A0B837B3A0F56
:1049D0005FB0FE93483D69EAEAB554EFEC65D4EC6C
:1049E000B7EB5F4B59550BAC13CF2C7B76EAD6DB7C
:1049F000FAD0BCF8B253639EE9086ECDC4768C6CD5
:104A0000CCA2948A6FA45092454D03AFFBD8FC15FD
:104A100090F3D487D530BA00EF540A98315F7D4DBA
:104A2000ADC819D928FA8135A93F2C935E81B3A569
:104A30004FEF7FC470689AD3B3FBE3A39EDCCCFF37
:104A4000712BEB5FC557999ECF1C05CDDA64997F1A
:104A5000167F06FE6CEEC583A9FBBDBCDDD9331401
:104A6000D8BCCC1747667A9365FE59FC19F486FDCD
:104A7000331F9C2147F8B5C7E813A44D813D3DCCB9
:104A8000420C5A606629FF03B6E5FC5DA462C38E42
:104A9000DD40B60967912C9F4E5CE1DEBFBBC4C709
:104AA000DD38BEC8ACBB53535C175AD11CE5643229
:104AB00021DE4CB24D17AFCC134F3E66A700FF006E
:104AC0008499C116670658813D508BCC71175B37AE
:104AD000F4B390A22893E129A68A96B9239AFAB052
:104AE000DBA4CB016656C626BD16EDD32E08E6B76D
:104AF000A9D0FC525E258F437C0DAB9B9E59BF46CF
:104B0000E6E5C8F28BABEC73F1ADF8F40BCEB57BF8
:104B100081DADA4F2259E44CE2FC07898F4759DFEA
:104B200098344F3879B557A88E6C254C3B4D5AC6F2
:104B30007759DBC95ECCB48F26197501D207449E24
:104B40001C1F2E83E6AF285B9AAE77B96CA4B85CC5
:104B5000CE934E7ED6C7CAACCFC329EAF3271271D3
:104B6000F6A464E28B285B4388015B1D2C766D34D0
:104B700038CF5F9936075FA13C55F6CE03FA2BCEAE
:104B8000F5F9106B8C14EB6FE51562A3C4C605CD67
:104B90005331A66F173AEF45E9A535AA6AFC7A2189
:104BA0008D1C60AB0E9CE5DC573F4D25551D5B8E83
:104BB00093BA6BD79699ED36C24FFC9CDFBB00FFD2
:104BC00000486384DAF1D888864E1EBEEF6669EC31
:104BD0004859D7B593757ECDC1768F6DF3C6639571
:104BE000A4D7EF6131211136976506FF4BE3973D5E
:104BF000BF512B7750CE27E224F3135477A352EC06
:104C0000B0B156B31B8393366779C8C3088B548FF2
:104C100098E6A3E430C28E26789AA503A6FDFBE4AD
:104C200011637C338C41AE292F7BB7A1BE73CDCEEF
:104C3000E7F7329339C6E972176B98A53E6CD4A892
:104C4000AFE6D9520C67E314E6F180886D10B3FD2E
:104C500053B5C21A93758BD4EEAF3858F757B86E68
:104C6000D3203BA2D865FA498FDE03C96A6374CCAE
:104C7000B6B1CC1F31F9EF67FD618639FD8B4CE190
:104C8000D3A90FF8E0E8E9FCC58E3DBF774C5C0C7A
:104C9000BF3EEEDEA35EF771E9836DFB2E3096A971
:104CA00027A14FD4F9E43DC31423ACE5DB0D135B1E
:104CB000526751629C791E7EAF2C73E98835F518D6
:104CC000E778FF0C33D4198FCD7F54D277B80DFE1F
:104CD00027924B0FC3364D54FF02D45BDF47B146DA
:104CE0000FC34ED6EEDEEF1C560F1EB56550C768DB
:104CF0009D41FD447C9ED99E230A908B969B44C483
:104D0000A4CA64985AF7A1311B5CEF5AB8F2209FED
:104D10007472DD8EEDE53700FE4FD5F09CF0A835BE
:104D200089E1BF056BF68344F0F9F2B2E23A868777
:104D300040021E69294E42BAA8F81888BCDDF52C3D
:104D400094547EADD1C472FE3571D3F3851587EAD4
:104D5000CEC3D5E33CFE99295B2DB2EF5CD05A2639
:104D6000BB8694B6C86E748B4CA2A04932DF83C652
:104D70006D8B82CE5D2CAA66681EA97D0A5169E002
:104D8000CC38B54F8AEFB51FDDFBFF565D55B2DE5F
:104D90001668D0D6DB6EAD4DF9CD346355C7FAB980
:104DA0003B3476EFD8BDFF9D00FF004BC4CE396E7B
:104DB0004E0E70DEB995D995D58DBBF13DE80D81CC
:104DC000D1EECC9C153C027024AA66C1D6FC1D29EC
:104DD000A7BA711766BB95C7949D646BD0136FF724
:104DE000C193BCDDB1ED96EE440577B4DD29C05D1D
:104DF00032C62D0C63A4BBF6D7731DBB7296DE665C
:104E0000B4ED3E17064F3957F7EB3AEF62CB96AF4A
:104E1000E65E9E67CC33DCB075BF0A7660BC57C8CF
:104E2000E546B11FD5CDBB50FEE88B0285BB1CBF4C
:104E3000C7D276E37DA18A0A0D67991F1D7C72BCDB
:104E4000A3053F1CEF151AEF834319EFD7B3F761A2
:104E5000C27BEB1CA8FBD4F2E4D368CF9D28331FA0
:104E6000D737315C5784594CA9FB99BE7387780CAE
:104E7000F58D2DD25BD079546FC75041AFB7EBD8C9
:104E80000DEBE7A92E75839C2CDC575937ABE8CF87
:104E9000A9AFCDECD267F9B1F2F273F5367B861E7D
:104EA00071CCBCD1FBFCEBE6B810AB391B9E78DDB6
:104EB000A5529DB35E7A5D5AD44DC503D94315C33F
:104EC0005C90B81D4736D68A86E2E777F4B2E29F57
:104ED00002282F6FBDAD6DC5910B1D62DF1CF13037
:104EE000CEF28DEC40BBA3CB5DD69DD84C10438D4C
:104EF000F11AF1C53EF179F814725BBB449C01E2F2
:104F0000206361302EECD83CCFE4E7F77E45D8E84B
:104F1000D5437DBEC4F4F036CDD73847CB918F2B27
:104F200057529F2766D7797E5E0E2FFFF0F479F3F4
:104F300059DB71B7F4162E8B8A4C9F2FACDAE5192A
:104F400019B3ACCCA9D6EB26D2EE556AF7609DDA40
:104F5000BD0E64C7E59300FF0093C4C9C163CC755F
:104F6000E19B9FAE7667EC261B7F5456AF533BE622
:104F70007BC4B13EB18FCEFA1B9DEF8A4E2DC07B14
:104F80005FBC84167691B6350B78F2AE33E8534D9C
:104F900033ED84DBE3E67FE26F1E62F5757D5463DB
:104FA00053345FB5A6A25EF887070033B078837FDD
:104FB000D61DDB2B1404B29D398B64B19B24FF15E5
:104FC000F31F3AC9134E5A8DFC0C93E28ECD78290B
:104FD0006CDD69A8B11F012027EF97064E850E46AC
:104FE00077042E2A074C81FBE03C90A55541A31481
:104FF000667A29ED1CCA7768BB49BC470BCCE11D1A
:105000000DE5A78FC5E5BA800D8516F34816994FB3
:105010003BE358BBCBBA07B6ACB893A0393C42EDE2
:10502000F2DAB917D2714858CA19CCE761DEF23208
:105030006A35A9E958D5ACB6756DC58A51C87721CE
:10504000D7B5DE5C7C6710DBB1DE5C14B683CA3A90
:105050000FC2BA07F05CBB00FF0055A146B94B4A2E
:10506000FFA6EA1C5A49149D39B3521A172EF4CBE5
:10507000E952EF526D9D5F4FA11F26DAC7296BB829
:10508000918FECB226F769335FB74EE2CD0FB47E55
:1050900031B3CDD6DC3B784A9D0B2A3E354784E5BB
:1050A0009D9A43C7754606C3A3F354B5E6C8AFAE91
:1050B0002DD26279BE4B2BABB1AD91FE4C225CE799
:1050C0007DB87B1464DD708D6087315620992CB3D8
:1050D00041682CB2998166BC0C6BEB2669245E1E7C
:1050E0007AC6BA46911C322EE30CAE51FAD8337010
:1050F0009E786AC2A23D4F789FC8581EF33C134861
:105100003C5E97C7F1F2F85EA1336D83C703F32DC0
:10511000D97C7F68801F55C8CF296201C423FB0555
:1051200078C0310F44F64FB40B78D990E52CA5C068
:10513000A1F0D8E79978CAB170008DC9EA016E670D
:1051400014A9F514B670B311188837D3A453E084AA
:105150004C8F586A1400DF8D00FF00E15C7A1070FC
:105160003BA30B2EA119E7334561990C166429AFB7
:1051700030BF9819607E51E8521EAD81EC856C619C
:105180006A4FE3BEE7E2CF482D65F18401164FEE8A
:105190007A0FC56057019768860711AFD2BBAAAED8
:1051A000E2BB322946E533667DC5A9BA24B9182E7B
:1051B0005D053F4E67E78EC41EBF74DF26D947B436
:1051C000BF5B2B85766CAF2FCFF2339DB00B6BCFCF
:1051D00070DFFE74C5197A353A5A25CFF602EBA76F
:1051E000EFC7EB4CFB71F3298E5D177AE37EDB7220
:1051F00078F90EA876ECE5F2FD11F61CFAEB97D7DC
:10520000D958A6BD30A7CA142F9DC5B9C03D1247B5
:105210004DD705940AEB6CEC20BF039E5E9FD6F140
:10522000CEE3B20A268BBF9DCFD07EA2AF9FE471A2
:1052300074D8B7791FD02B812C6B771CE33EEDB56A
:1052400043D9751DA0E3A2459EB6C28B32F94EBD6F
:10525000FA5FB264A2B140932A00FF00533F0F8A65
:10526000A72DDD025FFA05EBABF4FD1AA7EAD4EE39
:1052700059EC03B2CFA7ECAE0BA854D7ECCAB9D9FE
:105280002CB3A99BCE34F393EB57D44D9287F71AE6
:10529000D7FEB5245725DB47E4FCC05ECE9F7B8854
:1052A000E47C29CCE5FC35F3C4FD75AC5E4F8F7111
:1052B00086BF277D1DEFEA3A781AEA7E47E270EA58
:1052C000CE990ED1121F673BF18A7F38A0BA5F1DBD
:1052D000CFB2FEA9D13EA92F9059A3E95D6612D1A4
:1052E0005E096D87EC23AD44FE10AD84CBEFC37334
:1052F0002C4DA7341A7DFE9098BDCFFA80CBD2E911
:1053000095F3CF7CF1D2F1B3E751D6E16A86B6745A
:105310009F799BE5B3DD9375D664B527BBAC497225
:10532000BF3C8575B797F34BF71D3939BFDFF4BA2A
:105330003DE3B41FF014C5DB437A643F60CFE6FA67
:10534000701F19E62FF23DE04EEE8B3CA8765F9E73
:105350001D67C76DDB5EE7761F2F00FF00E7BF0606
:10536000F3D33A27DE028FBE6C678330DBE4EA6C4E
:10537000994AD1D626BAF96FD52BDA53A31CFD8AE8
:1053800083ED9EA5F6C2F07939DE6F3F72BACD7E0D
:10539000D34DC6AF698E3651CB90E3FA181AC5F0DB
:1053A000DC27C80E622163AEF7E3B603F1EF24CC2D
:1053B0007D6CEB803869FCEAD0EB586FD8B24FFFB8
:1053C0000B3675902DB18ECB3F96B9BD56A0EE230E
:1053D00082C6F41E1C66CC877E45CCBF0F717FACA5
:1053E0002D663659DF400EC10FA7F53B56A25B1460
:1053F00056E01F886A9BE41869DCCDAF92EE9ABF35
:10540000406B2B3326ADB984D8163A0FF0C38CA667
:10541000B6DD65DDAB0BE1CBD509F485BE68452271
:10542000B8C10D1D656D1B1F186C14ADB7523FB987
:10543000BEABBEF42E6F2CEA86D5BDE3B05055EB63
:105440005E6148E4D4E4E7EB8BD8943AAD7C30C796
:10545000FC6CCB74CADA6C9F4C101F00FF00FF3A43
:1054600035831F8542EB3E995DF25C6A6DB489021B
:1054700090CE6D4C6FBB67589F2FD33A459A6627E5
:10548000ED11AA57F13C854CA676692847499D1134
:105490007EF635813C90CBC5D6E3F829DC065BAEC1
:1054A000FC5BC5B1BABBD9961A3770875D943D5C79
:1054B000950E1FF4B2A8E859B65C4FB3DDDE1C3779
:1054C0004F3E40E7CE9E7FAC41EB13F5B6F80CFCA7
:1054D0005171B07F7BAB66716A4D1DE9536FE75721
:1054E000D541C5F573E5557596417DB8FE621D330E
:1054F0005B5F62D7DBF98E885BF9DBB23FE7D72DC4
:105500009E8113C68AC554FDC716C583F04B67EA52
:105510009EE91C0D9E867476C1F7E2CF50FF2C0FDA
:10552000D4F0D44A30A756DBB4E740A89390A49DAA
:1055300022D42E6AEDB390502742C9FC4FA93015F2
:10554000590E6A76671702C61FC5D14AAE77133661
:10555000E1B92794947AFC1B30A019DB1C36939E8A
:10556000A667F69CA5C34D72FC7B5E5E4EE241369B
:1055700052FAB4EC98E7E1F77A18FB218DF963BB96
:10558000746FA1C7CA5941F64085AEEF33FD3FE2C3
:10559000481B9A871100FF005D7B7054D7793FF755
:1055A000EEF3EEE3DE9531C606076DD20760C05A12
:1055B000F7AFBA36ECFA9FCED440576967326363CF
:1055C000909C4CDD26262365A693B499B82B321304
:1055D000F78FC6AC8233EEF411246C9C693B2952E0
:1055E0005CDA7F9278173B4999A91B2904C7A93334
:1055F000C3CA89ED6043B47777A5D5631FA7F77554
:10560000BEEF135E150984EEAECB65103FAECE3D06
:10561000F79CEF7CEFF3B8BE7028125443B7A9A1F2
:10562000A01A56435135ACA831E3673474BB7ABB3A
:105630001A557CFE6028D4A579030125EC0BF8FCF3
:1056400021B8FCBE7038ACDCA646A36A24ACAA7EA6
:10565000E3F92ED5A8231A8E44A3B71928E00B042A
:10566000438A1232FEF815C5EF57FCAA623C1708B0
:10567000FA9490A628C18D1EC6986CFC8D187FEFF9
:1056800034FE6E62B7AE9B7271E35A74B08733F921
:10569000BBF00BC6EE2500FF00985D13F35F1FC73C
:1056A000FBDB780ACBA4F388351D715F1EDEBB8D52
:1056B00027A03DCD17DC21856F52A040810F099CAA
:1056C000E1EF0B28CDC5A0B07F081F0C6D2FBE24C5
:1056D00070E41F364C8B52D10ACB0C3BD8E877CF05
:1056E00094B8AF2319C265A689F7FAE65812AA2D15
:1056F0003CF43D78C1E6E6C976E0133E05E3C536E5
:105700004FE1384AFA6AF8E4FAB1473089DD9E8EF3
:1057100093358DF359EC0B7B6CAD69A271BD2D3ABD
:1057200089633360B4B5DFC12A697794E02D04DF63
:105730004FF09F127C8AE049C4BE61C4D138E26F49
:105740009A74B1A5F084D59C7336D9DE8931E9808D
:105750005D88C74D812E5A78CE1674EB67D9FAD979
:10576000E33E0985CEC930ADCC8084A037D8470848
:105770007E98E0A7099E44BCA5977557A82C3BB816
:10578000166772CEC1E67BBAD7A98F23AF5B227CA6
:1057900068C1C0AFDD133700FF00D8D873FC358B6C
:1057A000A1878D615412A203DCE415EBFABA811FC4
:1057B00071F0EE3897CF0BED6BD433EEE0BE211EC7
:1057C0009C7708F76BA37C216E179931709F5DC899
:1057D000F887B3F08C09E5A2F95EB969724A71C124
:1057E0006ACF48B383F4496EC89078A566E1FF3A62
:1057F000E5E589471DEB1D36BA2848123CCAEF146F
:1058000046C56774B157906A982B551BCA4DA37C47
:10581000D1265578D62089432A9E37EA8FB8AB67C0
:10582000B53F2BFC0C70B56B0CECE910EB16264861
:105830008BB324D86EB6713A8182F40AD6B4BD898E
:10584000D69B654711433D26D65185F40912EE3E9D
:10585000EE9D8E0B793CD1FC5AC7D99D23F538E0DB
:105860006FF701A9B4B8865D9746FAF181B7F16187
:10587000293B486A82F27F12CB8E832F54783FD621
:1058800006FE09F804A64D04BB68DCF273B49B3B2A
:10589000081E45ACC4113F0100FF007684CBC388CD
:1058A00043685FF87182FB01D3F7D2F6748E7FA252
:1058B000438B659E4857D0DF409BC2A531C487FA11
:1058C000109F2465B0BC87A7929516F5B78F7F22ED
:1058D000B485467C8CD562EADBDC4DF0EF11FC79B7
:1058E000C091CF9D053E09D5139DE7CB120AB22486
:1058F000D32A4812E48195E0AD88CF1D643DA29E75
:10590000DC2BACE3BC7BCD881847400F4CB282E85F
:10591000CC62D90302333B170481293522606CF431
:10592000DC3E20843EF053813DE5EE92101E8D4713
:10593000F26E138573941D33066444C732A2576F09
:1059400026EE7C1D8B2D3668A8B5D6B1ABC3063DBF
:10595000DA4BC7AEF2EA2371F1F7357D3F128BC403
:10596000B3ABC5C93265DC7618775DB443CA18A3FA
:10597000D5E364CBCC78659F28558CB11721F134E1
:105980002481B7152D052031E45B888237C7268E28
:10599000E02BD255C461E2D3FA00FF00D0813BB7BF
:1059A000136F8F7D9BB50755A0FD33E050BECCF93A
:1059B00065C71DCD7D59D3B7D704A98C11CE0ED99B
:1059C00014B1526A93CEB06B22A5162DE3FD805D13
:1059D0007EF0EA7A98CFACBFF783EF5DDA9E75BCB4
:1059E0007E3B87F85F08B34AD7CE001DBAC4479CF8
:1059F000A0C853DFC8B73B9D31435ED9E9AE5A32E8
:105A0000CA374144B8783AAAE37DA582E5E5DA06CB
:105A1000FEBB8228078CFA87AE9D858ADFC42CD412
:105A2000FFE5DBAF9FDD89C168D866B01747E93075
:105A300021854C499421D8ED9C924EEC0EDA8B1BBB
:105A4000B33B3170614CBBB640A840187ADD724A56
:105A5000461340803DC6F84027AF9A77B8269E3857
:105A6000BA7142E09DCD733DAB353D15D715CA0DDA
:105A7000D010E5375996303AD249E453BE0B70B88E
:105A800079A6E3B2D40E9F582AC5884F4D03E0B5DE
:105A90001AE8F00067371F9B1AB300FF00A7CC2C51
:105AA0000273B83A8C4F9C06272B3268148B4F1C1C
:105AB00061582D4E962443A3943F106BDCE213DB18
:105AC000F4009B9C5A81E9C9B687E9B9797CA21395
:105AD0003E29BB6A79229F3A7D457803D1C6C7EF3C
