:020000040000FA
:1000000038030820E1000000E5000000E7000000E0
:10001000E9000000EB000000ED000000000000001F
:10002000000000000000000000000000EF000000E1
:10003000F100000000000000F30000009311000038
:10004000F7000000AD010000D3010000F700000040
:10005000F7000000F7000000F7000000F7000000C4
:10006000F7000000F7000000F7000000F7000000B4
:10007000F7000000F7000000F7000000F7000000A4
:10008000F7000000F7000000F7000000F700000094
:10009000F7000000F700000099050000F7000000DD
:1000A000F7000000F7000000F7000000F700000074
:1000B0000F1F0000F7000000F7000000F70000002D
:1000C000F7000000F7000000F7000000DFF80CD098
:1000D00000F0B2F80048004713130000380308206E
:1000E00005480047FEE7FEE7FEE7FEE7FEE7FEE71E
:1000F000FEE7FEE7FEE7FEE7CD000000FEE710B5F5
:1001000003F0B8F9BDE8104003F06EBA03F020B96F
:1001100002F0E8BE09B10020704702F05DBC00208B
:100120007047000070B50D4A0020A2F11401064688
:1001300001F10A030C5C54B11D5CAC4207D1145CA4
:100140002CB1641E14F0FF04145400D10E540C5C46
:100150001C54401CC0B20A28ECD370BDB0C10720AB
:100160000648B0F90810002907D0491E09B20181DC
:10017000002902D1084600F0AAB9704700C0072044
:1001800090F900308B4200DA027090F9003093420F
:1001900000DD0170704790F900308B4200DA017089
:1001A00090F90010914200DD027070474FF040213D
:1001B000012008600B480168491C01600A48016879
:1001C00021F0FF01091D0160016841F080710160AB
:1001D000704706490120086002484168491C416097
:1001E00070470000A4010010004003400080004060
:1001F000704710B50B4A002320244F2908D041290D
:1002000009D052290BD0532908D15360936004E0E0
:10021000C2E9010301E050609060147010BD90606D
:1002200010BD704720C007200146002000E0401CA0
:100230000A5C002AFBD17047064C074D06E0E068D7
:1002400040F0010394E8070098471034AC42F6D31D
:10025000FFF740FFE44000002441000030B58C1857
:1002600010F8012B12F00F0301D110F8013B120915
:1002700006D110F8012B03E010F8015B01F8015BD7
:100280005B1EF9D101E001F8013B521EFBD1A142F6
:10029000E6D3002030BD00B5002200F007F8C043CF
:1002A00080B2010241EA102080B200BD05E000BF2B
:1002B00030F8023B891E5BBA1A440129F8DC11B1FF
:1002C000007802EB002290B200EB124000EB1040ED
:1002D00080B27047084400EB104080B270470102C2
:1002E00041EA102080B2704702E008C8121F08C11E
:1002F000002AFAD17047704770477047FFFFFFFF31
:1003000000209E4A20211154401CC0B2C828FAD3B4
:1003100070470146994A0020401CC0B2135C8B42D2
:1003200001D0C828F8D3704710B50021944C0A2298
:10033000B0FBF2F302FB13006054491CC9B218462B
:100340000529F5D310BDF0B58E4B0121202719707A
:1003500005218B4A002601E01C7844B1541814F89A
:10036000015C25B9814202D904F8017C05E05418EA
:1003700014F8015D303525701E70491E11F0FF0123
:10038000EAD1F0BD70B50D4616461C46FFF7CCFF0E
:10039000601CC0B2FFF7D7FF05EB850006EB8000BD
:1003A000C1B2774A754B0020A04201D2155C5D5462
:1003B00006D3155C202D03D04CB15E1806F8015C05
:1003C000491E401CC0B2C9B20528EDD370BD5D54B2
:1003D000F6E730B5044608461546FFF79AFFFF28B2
:1003E00009D0664A2178002905D04319641C401CB5
:1003F000D154C0B2F6E730BD70B50D461446FFF7D4
:1004000093FF601CC0B2FFF79EFF2846FFF781FFF5
:100410005B4B5A4A002124B95D5C202D01D0155454
:100420000FE0A14201D25D5CF9E704D14FF02E0547
:1004300015545D5C02E05D5C202D02D0161806F8B4
:10044000015C401E491CC9B2C0B20529E3D370BD8E
:1004500017B501EB810002EB8000C2B29DF80030BD
:10046000494803F00F0100EB1313445C43498C54DB
:10047000521ED2B21B788B549DF80130521E03F0ED
:100480000F04D2B2045D8C54521E00EB1313D2B28F
:100490001B788B549DF80230521E03F00F04D2B229
:1004A000045D8C54521E00EB1313D2B21B788B5494
:1004B0009DF80330521E03F00F04D2B2045D8C5439
:1004C000521E00EB1310D2B2007888541EBD2F4B81
:1004D0001A88521E104400B218802D4A00EB80008A
:1004E00002442C4813680360127902714278114467
:1004F00041707047F0B5254D254FB5F9004004EB2C
:100500008406641C2C80234C3E4425683560257984
:100510003571207061702271A370F0BDF0B5054691
:100520000E461746FFF7ECFE144C0020401C15F851
:10053000011BC0B204F8011B1428F7D35FF00000C0
:10054000401C16F8011BC0B204F8011B1428F7D395
:100550005FF00000401C17F8011BC0B204F8011B3B
:100560001428F7D35FF00000401C13F8011BC0B241
:1005700004F8011B1428F7D3F0BD0000760000102A
:1005800014C00720A2010010C94000003200001072
:10059000844200106C000010FF48016821F0E06107
:1005A00001607047F0B50020FC4A01464FF4F47337
:1005B0001154401C00B29842FADB00214FF0140C99
:1005C0007A2301FB03F001EB81039B0001EB810423
:1005D0001BB20CEB84041BE0F14DF24FED5C05EB1C
:1005E000450517F81560165407EB4505401C6E7855
:1005F0001654401CAE781654401CEE781654401C1D
:100600002E791654401C6D791554401C5B1C1BB28E
:100610009C42E1DC491C09B20429D1DBF0BD2DE983
:10062000FF5FDF4C00266E3C2079401CC0B2207179
:10063000142807D32671E078401CC0B2E07005286A
:1006400000D3E670D64D0A3D28780A287ED195F968
:10065000010030B195F904100A1A022A03DD801C4A
:1006600003E02E7102E0884200DD2871CEA3CEA205
:10067000CDA1CDA0FFF752FFA08F01222321A046DC
:10068000274680B2FFF7B8FEF88F0122242180B2FE
:10069000FFF7B2FECA4C207A4FF000024FF025015E
:1006A000FFF7AAFE207900225E21FFF7A5FE207841
:1006B00000222621FFF7A0FE207B00223C21FFF72D
:1006C0009BFEA08B00227B21FFF796FE207EBD497A
:1006D000002201EB80003E21FFF77BFE387CB04C0E
:1006E00060B13A20FFF715FE202727543A20FFF784
:1006F00010FE27543A20FFF70CFE275495F904000A
:10070000012788B195F9011071B1884202D184F8AE
:100710003C7009E0401A012802D0022803D003E00F
:1007200084F8287000E02775B8F84A0000231322E7
:100730001946444680B2FFF725FE002309221946D8
:100740002078FFF71FFE95F9010000E0F3E2002397
:1007500080B201221946FFF715FE9B4800F0C2FF48
:1007600080B2002309220121FFF70CFE96480838C9
:1007700000F0B8FF80B200230E220121FFF702FE35
:100780009148001F00F0AEFF80B200231322012128
:10079000FFF7F8FDDFF8308208F1B008404600F0BE
:1007A000A1FF80B2002309220221FFF7EBFDA8F18F
:1007B000040000F097FF13220221FFF749FE824850
:1007C000A83000F08FFF13220321FFF741FE7F4D79
:1007D000284600F087FF09220321FFF739FE28464B
:1007E00000F080FFC0B2012808D1284600F07AFF4F
:1007F000000C4FF42571B0FBF1F06084E08C08B17F
:10080000401EE084404600F06DFF022806D1E08CD7
:1008100020B9A08C48B1A6840A20E084284600F0C4
:1008200061FFC0B2052804D008E04FF6FF70A08435
:10083000F2E7284600F056FF00142085206E01F0F4
:10084000D1FC6349206E01F0D7FD6249206E01F0B2
:10085000D3FD6149206E01F0CFFD6049206E01F0AB
:10086000CBFD5F49206E01F0C7FD5E49206E01F0AF
:10087000C3FD5D49206E01F0BFFD4FF47F41206E46
:1008800001F02FFC4FF0FF1A5146206E01F0F4FBEF
:100890005649206E01F0B0FD618C64204FF48775DD
:1008A000CDE90210CDE900560A23B422C821206EFA
:1008B00001F0F3FBCDE90057B9460A23B422C82161
:1008C000206E01F053FC4949206E491C01F094FD53
:1008D0005146206E01F0D0FBA08C1C22CDE90026F1
:1008E00043A1CDE902014FF4C87A32236422514674
:1008F000206E01F09EFB4FF08061206E01F07CFDC8
:100900004FF4FE41206E01F0ECFB3849206E891C4B
:1009100001F072FD4546404600F0E4FE032803D195
:100920003549206E01F0DDFB1922962333A1CDE974
:100930000032CDE9026140F2262BB046C8233222B4
:100940005946206E01F0DEFB6FF07F41206E01F012
:10095000C8FB0021206E01F08FFB2449206E0A3174
:1009600001F04AFD2E46284600F0BCFE0B287ED042
:100970006FF07B41206E01F03FFD22A04FF4C06577
:10098000CDE90050608CC821404201EB400002B22A
:100990001E236421206E39E0004003408CCC0720E8
:1009A00076000010953A00002020202020202020F2
:1009B00020202020202020202020202000000000B7
:1009C00020400240954000007C2030000090300024
:1009D000C8000002070000260000FF04A000000D70
:1009E0000200001FC012A04F00FFFF04010000031F
:1009F000796573FF6E6F000000FFFF005072657332
:100A0000730000004974656D3100000001F0D6FAF2
:100A1000FA49206E01F0F0FC304600F063FE0C282D
:100A20007DD06FF07B41206E01F0E6FCF4A0CDE9B3
:100A30000050608CFA21404201EB400002B21E23BC
:100A40006421206E01F0BAFAEC49206E491C01F0D5
:100A5000D3FC304600F046FE0D287DD06FF07B4180
:100A6000206E01F0C9FCE8A0CDE9005000E04DE1A6
:100A7000608C4FF49671404201EB400002B21E239D
:100A80006421206E01F09AFADC49206E891C01F085
:100A9000B3FC304600F026FE0E287DD06FF07B417F
:100AA000206E01F0A9FCDAA0CDE90050608C4FF473
:100AB000AF77404207EB400002B21E236421206E54
:100AC00001F07CFACD49206EC91C01F095FC30463E
:100AD00000F008FE0F287DD06FF07B41206E01F002
:100AE0008BFCCDA0CDE90050608C1E2341420AEB67
:100AF000410002B26421206E01F060FABF49206E0D
:100B0000091D01F079FC304600F0ECFD10287ED084
:100B10006FF07B41206E01F06FFCC1A000E0F8E0B7
:100B2000CDE90050608C4FF4E171404201EB400090
:100B300002B21E236421206E01F040FAAF49206EFC
:100B4000491D01F059FC304600F0CCFD11287DD044
:100B50006FF07B41206E00E0DDE001F04DFCB2A0C3
:100B6000CDE90050608C4FF4FA71404201EB400037
:100B700002B21E236421206E01F020FA9F49206EEC
:100B8000891D01F039FC304600F0ACFD12287ED002
:100B90006FF07B41206E00E0BFE001F02DFCA4A0CF
:100BA000CDE90050608C1E2341420BEB410002B2A4
:100BB0006421206E01F002FA9049206EC91D01F0F7
:100BC0001BFCB246304600F08DFD13287ED06FF03E
:100BD0007B4100E0A3E0206E01F00EFC96A0CDE981
:100BE0000050608C4FF41676404206EB400002B293
:100BF0001E236421206E01F0E1F98049206E083146
:100C000001F0FAFB504600F06DFD142800E088E08A
:100C10007ED06FF07B41206E01F0EEFB88A0CDE925
:100C20000050608C40F28A21404201EB400002B249
:100C30001E236421206E01F0C1F98349206E01F06A
:100C4000DBFB8249206E01F0D7FB00E06BE04FF048
:100C50008041206E01F0D0FB7D49206E01F0CCFB7D
:100C60004FF00451206E01F0C7FB6FF07F41206E02
:100C700001F037FA6FF07B41206E01F0BDFB75A0EB
:100C8000CDE900501E2396226421206E00E04CE046
:100C900001F094F94FF47F41206E01F022FA4FF0F9
:100CA000FF11206E01F0E8F96C49206E01F0A4FB01
:100CB000218D40F60400CDE900011F231422962166
:100CC000206E01F098F94D49C91F00E02FE0206E19
:100CD00001F092FB218D3223CDE900813A46314665
:100CE000206E01F061FA0521CDE9009101233A4619
:100CF0003146206E01F03AFA0021206E01F07CFBB3
:100D0000206E04B0BDE8F05F01F0C3B9534931E68D
:100D10000FE0524987E65149A2E65049C0E64F49E3
:100D2000DCE64E49F6E64D4914E74C4932E74B49BB
:100D30004FE74A496FE7BDE8FF9FF0B54848016AB1
:100D400041F400110162416B21F400114163016A19
:100D500021F0F86101624349CA6C434B02EA030285
:100D6000CA64016C41F480710164416D21F48071A9
:100D700041654FF0000100BF00BF00BF00BF00BFD2
:100D800000BF00BF00BF491CC9B2C829F3D3016C22
:100D900041F480710164416D41F480714165406BA3
:100DA000324F60F0F860810D3C46B965A27DE36D7D
:100DB000E07D247EA1F5407603F07F054FF0010E23
:100DC0004FF0000CFF3E01D0994251D087F819C076
:100DD000042A00D220B1BA7E12B987F81BE07B75D5
:100DE000A04202D387F81BE07D7587F81AC0142053
:100DF000387687F816C087F817C054E00C00000357
:100E00004974656D320000004974656D330000005F
:100E10004974656D340000004974656D350000004B
:100E20004974656D360000004974656D3700000037
:100E30004974656D380000004974656D3900000023
:100E40004974656D31300000C80000040900001FBE
:100E5000A00A40464D61696E0000000000FFFF04DB
:100E600000C0092000C00240FF0FC0FF08000010B2
:100E7000521CD2B2BA75042A15D3401CC0B287F8EE
:100E800016C0F875A0420ED37D7587F817C087F895
:100E90001BE087F81AE0787E28B1600838760228CF
:100EA00001D802203876F965F0BD2DE9FC5FFC4FD2
:100EB0004FF00008F87E00281FD0A7F84680A7F85A
:100EC000488087F8028007F16400797D06784446FF
:100ED000F92913D00122E72923D07929ECD07A29E6
:100EE00025D0024692F901301A465B1C5DB2531EB2
:100EF0005BB2752E22D00A2E65D046E1752E0BD03E
:100F0000786EC7F8690097F86800002387F86D00CD
:100F100004211A46752036E100210846FFF7D7FA6A
:100F200033E1532100207A65FFF763F92DE1387F23
:100F300010B13C777C7628E13A77FBE7EF290FD0B8
:100F4000F7290FD00546012A14D0052AD5D0D44A56
:100F50006432FD2992F904202BD0FB292BD014E117
:100F6000457000E0437004710B220021401CFFF724
:100F700007F90AE1FD2907D1A8781E22401EA870B2
:100F80000021A81CFFF707F9787DFB2807D1A87876
:100F90001E22401CA8700021A81CFFF7FCF8787DD9
:100FA000FE28AAD17C852C706C70AC70EC702C7112
:100FB000EBE0521E00E0521C027104220021281DA9
:100FC000FFF7E9F8E1E0B64A4FF4C064FE29166E77
:100FD00012D0DFF8D0B2DFF8D0926FF07B4AFB2955
:100FE00014D0FD293AD0EF2973D0F7296ED06B29A0
:100FF0006DD073296CD0C8E0ACA0CDE9004064226C
:101000001B231146304600F0D9FFBEE04570A949C8
:101010004FF4401000F0ECFB5946A74800F0E8FB05
:10102000A5485146001D00F0E3FBA348A349083042
:1010300000F0DEFBA04849460C3000F0D9FB9E488A
:101040009F49103000F0D4FB9B480021143000F081
:10105000CFFB02219B4800F07CFB96E043703046BA
:1010600001F0C0F89849386E01F0C6F95946386E5B
:1010700001F0C2F99549386E01F0BEF98F49386E1A
:10108000503101F0B9F94946386E01F0B5F990498F
:10109000386E01F0B1F98F49386E01F0ADF94FF4B7
:1010A0007F41386E01F01DF84FF47F01386E00F07B
:1010B000E3FF2A2140F60300CDE900011F2314229B
:1010C0009621386E00F097FF4CE002E024E051E0FA
:1010D00055E0304601F086F87B49386E373101F033
:1010E0008BF95946386E01F087F97B49386E01F06B
:1010F00083F94FF47F01386E00F0F3FFFF21386E63
:1011000000F0BAFF75A0CDE9004064221F2311460C
:10111000386E00F053FF25E04570304601F062F86C
:101120007449386E01F068F95946386E01F064F977
:101130005146386E01F060F94FF47F01386E00F0CF
:10114000D0FFFF21386E00F097FF64A0CDE900408A
:1011500064221B231146386E00F030FF0021386EE8
:1011600000F0F4FF0021386E01F046F9386E00F00F
:1011700090FF0AE000231A4619462C2003E00023C2
:101180001A4619461420FFF7B5F987F81B80BDE809
:10119000FC9F2DE9F041424C01265748E671A17CA5
:1011A00039B1016A41F080610162416B81F0806177
:1011B0004163E18E491C09B2E18602296EDB0025FC
:1011C000E586A6714069C0F3C060E074217D884265
:1011D00004D0B4F84210491CA4F842102075208FA6
:1011E000401C00B22087142801DB25876672A08D81
:1011F000401C00B2A0850A2850DBA5852672B4F8F1
:101200004400401C00B2A4F84400B0F5FA7F07DBAC
:1012100004F14004A580608820806580A4F140042A
:1012200042F21077E08D401C00B2E0850A2809DB0D
:10123000E585A672FEF7DCFFB4F91E00B84201DABC
:10124000401CE083208E401C00B22086142806DB60
:101250002586E672E07B08B1E57300E0E673608EF8
:10126000401C00B26086322806DB65862673207C2F
:1012700008B1257400E02674A08E401C00B2A08640
:10128000642844DBA5866673B4F92000B84201DA0D
:10129000401C2084607C10B1657430E037E02DE0A4
:1012A00008000010070000260200001F4D616D615C
:1012B0000000000000C80002040030005000000DD3
:1012C000000F804C54203000C80000020000FF04D2
:1012D000C012A04F00FFFF0400FF0004506C6561C6
:1012E000736520546170206F6E2074686520646F90
:1012F00074000000C8C8C80200C009206674608F6E
:10130000401C00B260873C2801DB6587A673BDE8FE
:10131000F08100F0DBFAB04CB0480126A6740068FA
:101320004FF4FA61B0FBF1F14FF0E020491E41614A
:1013300007210161AA480521AA4D817080F8561045
:1013400080F8AA1080F8FE1080F8521180F8A611DB
:1013500080F8FA11286820F000602860286C40F0BE
:1013600080002864286C40F48070286400F02FFD11
:1013700000F075FD00F05BFD9B4911200872AFF68F
:10138000D8139AA29FA1AFF6E010FFF7C7F828681C
:1013900040F400602860A86940F40060A8613A2029
:1013A000207000F05BF99D482066286C40F4807046
:1013B0002864E86D40F48070E865994F3846401E17
:1013C000FDD1286C40F480702864A86D40F48070D2
:1013D000A8653846401EFDD100F03BFA7F1EFDD1C6
:1013E000482000F052FA8F48401EFDD1422000F004
:1013F0004CFA042000F049FA00F02BFA682000F0C3
:1014000044FA894D284600F048F97C28FAD18648EC
:101410004FF484612C3000F0C1F983482E21303024
:1014200000F0BCF980480021383000F0B7F97E4860
:101430000A213C3000F0B2F97B4840F20D214030E7
:1014400000F0ACF978481721443000F0A7F976484D
:1014500000214C3000F0A2F973480A21503000F00E
:101460009DF971480021643000F073F96E48002145
:101470006C3000F06EF96C484FF44871343000F075
:101480008DF969484FF4F071483000F087F96648EB
:10149000FF21903000F05DF96348FF21943000F0A7
:1014A00058F962494FF4401000F0A2F960496148D0
:1014B00000F09EF95F486049001D00F099F95D4811
:1014C0005E49083000F094F95A485D490C3000F04C
:1014D0008FF958485B49103000F08AF955484FF0B1
:1014E00004552946143000F083F952485649183003
:1014F00000F07EF94F4855491C3000F079F94C490D
:101500004C48491C203000F073F94A4850492430B7
:1015100000F06EF947482946283000F069F90021AB
:101520004FF0301000F064F93F480221543000F0D1
:1015300010F93D480521703000F00BF926490A20CA
:10154000643108704348401EFDD10025A57401F0A8
:10155000F3FB607900B16571E07900B1E571A079C4
:1015600000B1A571207A20B12572FFF7E6FBFFF7E5
:101570009CFC607A00B16572A07A80B102F076FAC4
:101580002665A572FFF74BF8FFF70CF8324800F01C
:101590006EFCFEF7E5FDFEF7C5FDFEF7E1FDE07A26
:1015A00000B1E572207B00B12573607B78B1657373
:1015B000FEF737FE2078401CC0B220703C2806D3CE
:1015C000257000F004FC00F04AFC00F030FCA07B29
:1015D0000028BBD0A573B9E7080000101CC0072085
:1015E0000CC2072000C0092000400240202020201B
:1015F000202045746865726E6574202020202020AC
:101600000000000020202020C8EDE8F6E8E0EBE82C
:10161000E7E0F6E8FF202020000000008CD0072043
:1016200080A90300C0D4010000203000070000267C
:101630000100001F04003000C6EF869B16FF160451
:10164000C4EFC6A1C9EF06B21616FF044001000D93
:101650000050089880EE36008CCC0720984801682E
:1016600041F040410160416821F00301416041685F
:1016700041F00C014160416841F030014160914806
:101680000121C1602021016070478E49886048684F
:101690000006FCD58868C0B270478B4A00B5034687
:1016A000106840F480101060D06940F48010D06160
:1016B000C3F30540FFF7E9FFC3F30720FFF7E5FF9A
:1016C000D8B2FFF7E2FF5520FFF7DFFF5520FFF705
:1016D000DCFF116841F480111160916941F48011BF
:1016E000916100BD784A10B50346106840F480103F
:1016F0001060D06940F48010D061C3F30540FFF75B
:10170000C4FFC3F30720FFF7C0FFD8B2FFF7BDFF48
:101710005520FFF7BAFF5520FFF7B7FF60F3070426
:101720005520FFF7B2FF60F30F245520FFF7ADFF00
:1017300060F317445520FFF7A8FF60F31F6411689A
:10174000204641F480111160916941F4801191614A
:1017500010BD5D4A10B5034610680C4640F4801079
:101760001060D06940F48010D061C3F3054040F0B0
:101770008000FFF78AFFC3F30720FFF786FFD8B288
:10178000FFF783FF2046FFF780FF106840F48010CA
:101790001060906940F48010906110BD4A4A10B505
:1017A000034610680C4640F480101060D06940F485
:1017B0008010D061C3F3054040F08000FFF765FF63
:1017C000C3F30720FFF761FFD8B2FFF75EFFE0B277
:1017D000FFF75BFFC4F30720FFF757FF106840F4E3
:1017E00080101060906940F480109061284610BD10
:1017F00010B5354A04460B46106840F4801010605E
:10180000D06940F48010D061C4F3054040F08000FE
:10181000FFF73BFFC4F30720FFF737FFE0B2FFF706
:1018200034FFD8B2FFF731FFC3F30720FFF72DFFD6
:10183000C3F30740FFF729FF180EFFF726FF1068D4
:1018400040F480101060906940F480109061284648
:1018500010BD1D4A00B5106840F480101060D069BA
:1018600040F48010D0610020FFF70FFF0020FFF749
:101870000CFF0020FFF709FF106840F48010106093
:10188000906940F48010906100BD0F4A00B5116866
:1018900041F480111160D16941F48011D161FFF7E9
:1018A000F4FE0020FFF7F1FE0020FFF7EEFE1068C7
:1018B00040F480101060906940F48010906100BD89
:1018C00000C002400000024000C0092030B54E4870
:1018D0002021C0F8A01100BFD0F8A0114906FBD507
:1018E00000F180000322C0F884204FF40031C0F8DA
:1018F00028114FF00001C0F82C114FF00103C0F87F
:101900008C30424C446003604FF0AA03C3604FF038
:101910005504C460A0F18000D0F888506D01FBD55B
:1019200040F8802FC360C460C0F88810384A426411
:10193000C0F848118168A0F180006FEA11618A0740
:101940003449D0F80C2102F0030207D092B3012AE7
:1019500046D0022A4AD0032A51D13BE02AB1012ABB
:1019600011D0022A27D0032A49D150F8882FC2F378
:101970000E02521C53000268C2F30742521CB3FB12
:10198000F2F2254B0CE050F8882FC2F30E02521CE5
:1019900053000268C2F30742521CB3FBF2F21F4B22
:1019A0005A43C36FA0F18800DBB203F10103B2FB1D
:1019B000F3F223E00EE050F8882FC2F30E02521C1F
:1019C00053000268C2F30742521CB3FBF2F24FF419
:1019D000FA43E5E7D0F804210F4BD2B2521C0BE0DA
:1019E000D0F804210D4BD2B2521C05E0D0F80421EE
:1019F0004FF4FA43D2B2521CB3FBF2F20A6043F244
:101A00003A01016030BD000000C00F404F000300EC
:101A10004AF100411CC0072000093D008096980053
:101A2000FE48016A21F07F510162816B41F400118F
:101A3000816300BF00BF00BF00BF00BF00BF00BF89
:101A400000BF00BF00BFC16B41F48021C16300BF74
:101A500000BF00BF00BF00BF00BF00BF00BF00BF8E
:101A600000BF816B41F400218163416B8900FCD48C
:101A70007047EA48016A21F07F510162816B41F4AD
:101A80000011816300BF00BF00BF00BF00BF00BFE7
:101A900000BF00BF00BF00BFC16B41F48021C16324
:101AA00000BF00BF00BF00BF00BF00BF00BF00BF3E
:101AB00000BF00BF816B41F480118163416B8900DD
:101AC000FCD47047D54A00B50346106A40F4301084
:101AD0001062FFF7A5FF00BF00BF00BF00BF00BF3F
:101AE00000BF00BF00BF00BF00BFD06B40F480202C
:101AF000D06300BF00BF00BF00BF00BF00BF00BF7A
:101B000000BF00BF00BFD06B40F40010D06300BF27
:101B100000BF00BF00BF00BF00BF00BF00BF00BFCD
:101B200000BF106A40F07F501062906B40EA835013
:101B30009063D06B6FEA0301C9B240EA8150D06371
:101B400000BF00BF00BF00BF00BF00BF00BF00BF9D
:101B500000BF00BFD06B40F40020D06300BF00BFC7
:101B600000BF00BF00BF00BF00BF00BF00BF00BF7D
:101B700000BDAA4A00B50346106A40F480201062F6
:101B8000106A40F440101062FFF773FF00BF00BFFF
:101B900000BF00BF00BF00BF00BF00BF00BF00BF4D
:101BA000D06B40F48020D06300BF00BF00BF00BFF7
:101BB00000BF00BF00BF00BF00BF00BFD06B40F43C
:101BC0000010D06300BF00BF00BF00BF00BF00BF58
:101BD00000BF00BF00BF00BF106A40F07F5010621E
:101BE000906B40EA83509063D06B6FEA0301C9B2F7
:101BF00040EA8150D06300BF00BF00BF00BF00BFFC
:101C000000BF00BF00BF00BF00BFD06B40F480101A
:101C1000D06300BF00BF00BF00BF00BF00BF00BF58
:101C200000BF00BF00BF00BD7C4A00B50346106A7C
:101C300040F440201062106A40F400101062FFF778
:101C4000EFFE00BF00BF00BF00BF00BF00BF00BF6E
:101C500000BF00BF00BF906B40F48020906300BFC6
:101C600000BF00BF00BF00BF00BF00BF00BF00BF7C
:101C700000BFD06B40F40010D06300BF00BF00BFB6
:101C800000BF00BF00BF00BF00BF00BF00BF106AA1
:101C900040F07F501062906B40EA83509063D06BAD
:101CA0006FEA0301C9B240EA8150D06300BF00BFB0
:101CB00000BF00BF00BF00BF00BF00BF00BF00BF2C
:101CC000D06B40F40020D06300BF00BF00BF00BF56
:101CD00000BF00BF00BF00BF00BF00BF184600BD6F
:101CE0004E4A00B50346106A40F480201062106A24
:101CF00040F440101062FFF7BCFE00BF00BF00BF01
:101D000000BF00BF00BF00BF00BF00BF00BF906B9F
:101D100040F48020906300BF00BF00BF00BF00BF41
:101D200000BF00BF00BF00BF00BFD06B40F4001079
:101D3000D06300BF00BF00BF00BF00BF00BF00BF37
:101D400000BF00BF00BF106A40F07F501062906B70
:101D500040EA83509063D06B6FEA0301C9B240EA56
:101D60008150D06300BF00BF00BF00BF00BF00BFF5
:101D700000BF00BF00BF00BFD06B40F48010D06335
:101D800000BF00BF00BF00BF00BF00BF00BF00BF5B
:101D900000BF00BF00BD10B540F0B8042046FFF7FB
:101DA00091FE2046BDE81040E3E610B50446FFF77B
:101DB00089FE2046BDE81040DBE610B540F0C004C7
:101DC0002046FFF77FFE2046BDE81040D1E61348CD
:101DD000016A41F07F510162016A41F470110162B0
:101DE000016841F0C04101600021C26942F08042B7
:101DF000C261491C6429F8DB09494FF0000200BFA9
:101E0000521C8A42FBDB0022836943F080438361DA
:101E1000521C322AF8DB4FF0000003E000C009201A
:101E20007088020000BF401C8842F6DB704730B566
:101E300000242046FFF7AFFF0020FFF7B6FF002584
:101E40000020FFF7F1FE0020FFF74AFF6D1CEDB206
:101E50003C2DF5D9641CE4B2032CEAD930BD00B5A1
:101E6000AF20FFF72FFEAF205DF804EB81E6F0B561
:101E700084460020FFF7A1FF5FF0000606EB460056
:101E8000C0EB86100CEB400404F13D053046FFF733
:101E900082FF0020FFF789FF00272078FFF7C4FEAC
:101EA0002878FFF71DFF7F1C641C6D1CFFB23D2FBF
:101EB000F3D3761CF6B2032EE0D9F0BD34484FF0D0
:101EC00080510160704733484FF080510160704786
:101ED000F0B54FF0A045D5F828112F4E0388021D0C
:101EE00056F83140DB1C9B0803D080CA5B1E80C4BF
:101EF000FBD1008806EBC102401E40F04040491C67
:101F00005060032900D10021C5F82811F0BD70B53B
:101F10004FF0A04534E000BFC5F8E80F00072FD50B
:101F2000D5F8184128E01C48203850F8340041000A
:101F30001CD5C0F30A06F61E40F2EA518E4215D8AF
:101F40001649084212D146F0004000F073FA68B119
:101F5000114A011D403AF61C52F83420B30803D050
:101F600040CA5B1E40C1FBD101F054FA641C042C32
:101F700000D10024C5F81841D5F81401A042D2D1EF
:101F8000D5F8E00FD5F8E41F0840C5D170BD0000BA
:101F900000E100E080E100E0D8D007200000901BC5
:101FA00070B505460C460846FEF73EF9401C82B265
:101FB00021462846BDE8704000F0FDB92DE9F04704
:101FC0000F46DDE90889054616461C466FF0F30109
:101FD00000F012FA394666F31F41284600F00CFA69
:101FE000214668F31F41284600F006FA4946284674
:101FF000BDE8F047D4E72DE9F0470F46DDE9088951
:10200000054616461C466FF0D10100F0F5F9394639
:1020100066F31F41284600F0EFF9214668F31F419F
:10202000284600F0E9F949462846BDE8F04700F0A7
:10203000E3B92DE9F05F0D460AA98046B1E8800EAC
:1020400016461C466FF0ED0100F0D6F966F31F4509
:102050002946404600F0D0F967F31F442146404628
:1020600000F0CAF949EA0A41404600F0C5F959466C
:102070004046BDE8F05F93E770B50D4604466FF04B
:10208000F60100F0B9F929462046BDE8704000F09D
:10209000B3B96FF0FE0100F0AFB92DE9F05F0D4666
:1020A0000AA98046B1E8800E16461C466FF0EF0183
:1020B00000F0A2F966F31F452946404600F09CF95E
:1020C00067F31F442146404600F096F949EA0A4169
:1020D000404600F091F959464046BDE8F05F00F0F7
:1020E0008BB970B50D4641490446082008806FF051
:1020F000F501204600F080F929462046BDE87040F1
:1021000000F07AB92DE9F05F0F460AA98246B1E8DE
:10211000200B16461C466FF0F20100F06DF93946AF
:1021200066F31F41504600F067F9214665F31F41F1
:10213000504600F061F9414669F31F41504600F0F6
:102140005BF959465046BDE8F05F29E770B50D468A
:1021500004466FF0EA0100F04FF92946204600F0EE
:102160004BF92046BDE8704000F004B92DE9F04776
:102170000F46DDE90889054616461C466FF0D30177
:1021800000F03AF9394666F31F41284600F034F969
:10219000214668F31F41284600F02EF9494628469B
:1021A000BDE8F04700F028B92DE9F0470F46DDE91A
:1021B0000889054616461C466FF0D20100F01CF94E
:1021C000394666F31F41284600F016F9214668F3A8
:1021D0001F41284600F010F949462846BDE8F0475F
:1021E00000F00AB96FF0FF0100F006B952000010CC
:1021F00070B58A4B0029064619681446C2F305409B
:10220000C2F3072541F480111960D96941F48011A6
:10221000D9610CD040F08000FFF737FA2846FFF76D
:1022200034FAE0B2FFF731FA0220B07170BDFFF767
:102230002CFA2846FFF729FAE0B2FFF726FA5520D4
:10224000FFF723FA0120F0E7428802F54212CFE7B8
:1022500070B5807900250C4602280AD00020FFF7CF
:1022600014FA04460020FFF710FA44EA0025284635
:1022700070BDE0B2FFF709FA200AFFF706FAF6E7A9
:1022800070B50646807900250C4602280CD0002146
:102290003046FFF7DDFF044600213046FFF7D8FF48
:1022A00044EA0045284670BDA1B23046FFF7D0FF92
:1022B000210C3046FFF7CCFFF4E758490A6842F496
:1022C00080120A608A6942F480128A610021817159
:1022D000704710B50A4604460021FFF789FF002128
:1022E0002046FFF7B5FF03462046FFF7E6FF4B49C0
:1022F000086840F480100860886940F480108861A4
:10230000184610BD70B514460A4605460121FFF770
:102310006FFF21462846FFF79BFF2846BDE8704027
:10232000CBE770B514460A4605460121FFF760FF6A
:1023300021462846FFF7A4FF2846BDE87040BCE7C9
:1023400042881144C1F30B02D21C40F6FC710A40D2
:1023500042803349D6E710B531490446091FFFF7DB
:10236000B8FF6188081AC0F30B00A0F6FC70404269
:1023700080B210BD2DE9F041294E0446361F371DAD
:1023800031462046FFF7A5FF054639462046FFF7B0
:10239000A0FF8542F4D139462046FFF79AFF6080BE
:1023A000BDE8F08170B505460C462846FFF7D3FF1F
:1023B000A042FAD370BD2DE9F0410E4607461446FF
:1023C00000251146FFF7EEFF224601213846FFF7B0
:1023D0003BFF04E03078FFF758F9761C6D1C641E53
:1023E000F8D23846FFF769FFA9B23846FFF7A8FFD1
:1023F0003846BDE8F041BDE770B50D4604460421FE
:10240000FFF7D0FF61882A4601F542112046FFF709
:1024100088FF2046BDE87040042191E700C00920F4
:10242000FC203000002001E001C1121F002AFBD176
:10243000704700002DE9F0470027DFF89090002852
:102440000CDA2349D9F8002020F000400968024442
:1024500001EB4101B2EB910F18D8012705460F306F
:1024600020F003060FB9FFF72EFD1A4CD4E9000245
:10247000011B891AB1420CD2044600680028F5D12C
:1024800027B9FFF71BFD0020FDF738FE0020BDE84F
:10249000F08772B1101921680160206000F108080E
:1024A000C0F80460D9F800103144C9F8001027B111
:1024B00005E004F108086660F4E7FFF7FFFCA8F800
:1024C00000500020A8F802004046E0E72CC007209A
:1024D0007C3A0000BC0100102DE9F0470746894610
:1024E00090460026284C294D0BE0207838B1042274
:1024F000394604F10A0000F03DFC012835D00E34C5
:10250000761C28888642F0DB2149384600F0ECFB37
:10251000D0B91F4804220021001D00F051FC10B169
:102520000020BDE8F0870026174C0AE0207830B183
:1025300006224946201D00F01DFC01281AD00E3449
:10254000761C28888642F1DB404600F027F80028F8
:10255000E7D00D49C0EBC00001EB40040E3C042263
:10256000394604F10A0000F015FC06224946201DF8
:1025700000F010FC07480088E07007480078A07061
:10258000032020700120CCE7BC410010823A0000FB
:10259000FCFA0720843A0000863A0000F0B50546B0
:1025A000012116480E46164A03E0037853B10E3057
:1025B000491C13889942F8DD1248104B048800200A
:1025C00001210DE0067045700846F0BD5F78012FCF
:1025D00004D1DF78A74201D83C4608460E33491C97
:1025E0001788B942F2DD0028EFD0044AC0EBC001E1
:1025F00002EB410101F80E6D4D70F0BDBC410010C1
:10260000823A0000843A00002DE9F04781460F46E7
:1026100000253D4C3D4E0BE0207838B10422494660
:1026200004F10A0000F0A6FB012815D00E346D1C41
:1026300030888542F0DB3649484600F055FBDFF82C
:10264000C880334D01284FF0040209D00021281D15
:1026500000F0B6FBE8BB1DE0207803284ED350E025
:102660004946281D00F086FB012806D104220021DE
:10267000281D00F0A5FB00B900273846FFF78EFFA4
:1026800006003CD0C6EBC60108EB41040E3C042218
:1026900049461DE000271C4C0BE0207838B104228D
:1026A000291D04F10A0000F065FB0128D4D00E3486
:1026B0007F1C30888742F0DB0020FFF76FFF0600A9
:1026C0001DD0C6EBC60108EB41040E3C0422291DB7
:1026D00000E013E004F10A0000F05CFB06220D4963
:1026E000201D00F057FB0C480078A0700B480078C4
:1026F000E070304600F012F9022020700020BDE8A2
:10270000F0872046FBE70000BC410010823A000041
:10271000FCFA0720DA400000863A0000873A000001
:102720002DE9F0470026DFF8D480DFF8D490B246D8
:10273000344F5DE0B9F80050691C89B2A9F8001067
:102740003A88914201D3A9F800A02F49C5EBC500F2
:1027500001EB40042078C8B3E07820B1401E10F0AF
:10276000FF00E07043D1607801280AD10422274994
:1027700004F10A0000F0FEFA012806D06078012872
:1027800018D010F0FF0F02D031E084F801A004222D
:102790001F4904F10A0000F0EDFA012817D0207853
:1027A000032818D0A07800B3401E10F0FF00A070DE
:1027B0001BD012E02078032817D0A078A8B1401EC3
:1027C00010F0FF00A07010D0022005E00FE01148CB
:1027D0000088E0700BE00420207098F80000E070A2
:1027E000681CBDE8F04700F099B884F800A0761C9A
:1027F000388886429EDBBDE8F0870000873A0000FB
:1028000038C00720823A0000BC41001000FB0720BE
:10281000E0400000843A00002DE9F0410646002522
:10282000134C00F10E08134F0DE0207848B1012839
:1028300007D0042204F10A01404600F09BFA012867
:1028400006D00E346D1C38888542EEDBBDE8F08181
:10285000062206F10801201D00F09CFA06480088B7
:10286000E07006480078A07003202070EEE70000BA
:10287000BC410010823A0000843A0000863A000011
:102880002DE9F04105460E462A20FFF7D3FD044608
:1028900005F1080106220F46001D00F07BFA062212
:1028A0001C4904F10A0000F075FA4FF4C16020825F
:1028B0004FF4807060820820A0820620A07504205A
:1028C000E075268304F1240006223946064600F00E
:1028D00061FA05F10E0104F12A000422054600F018
:1028E00059FA06220B4904F11A0000F053FA0422A7
:1028F000094904F1200000F04DFA01223146284632
:10290000FFF7EAFD2046FFF7E3FA2046BDE8F04175
:1029100000F0AEB800000010FCFA072070B50546C4
:102920002A20FFF787FD044606222349001D00F0F8
:1029300031FA0622214904F10A0000F02BFA4FF483
:10294000C16020824FF4807161820820A08206203D
:10295000A0750420E07521830622184904F11A00AD
:1029600000F018FA0422164904F1200000F012FACF
:102970004FF0060265B1002104F1240000F018FABE
:102980001049C5EBC50001EB40010422091F06E018
:10299000094904F1240000F0FDF90949042204F179
:1029A0002A0000F0F7F92046FFF792FA2046BDE82A
:1029B000704000F05DB80000DA4000000000001038
:1029C000FCFA0720BC41001006220249001D00F05D
:1029D000D1B900000000001070B5044600F12205D6
:1029E000204E04222049284600F0C4F938BB0422B6
:1029F000002104F11E0000F0E3F908B1002070BDD1
:102A000028780E21B1EB101F0ED10120207100207B
:102A100060715E20A071687800F07F00E071A87896
:102A20002072E87860720FE0284600F06FF930B944
:102A300001212846FFF7E8FD0028E0D0061D062208
:102A40003146201D00F0A6F90622084904F10A00CB
:102A500000F0A0F9082020822046FFF739FA012073
:102A600070BD0000DA400000E040000000000010EF
:102A700070B500282AD0A0F10806154C0025FFF7F4
:102A800022FA09E0254624682068800703D0FFF772
:102A900015FA022010E064B1B442F3D10D48616828
:102AA0000B4B0268511A01609C4209D10020606002
:102AB00008E0FFF703FA0120BDE87040FDF71EBBF8
:102AC00020682860BDE87040FFF7F8B970BD0000CD
:102AD000BC0100102CC0072001784278090641EAA9
:102AE00002418278C07841EA022108437047000021
:102AF000F8B504460F46808AFDF7F1FB05462188AC
:102B00000E30814245D3A07C0421B1EB101F40D18F
:102B1000264907EB870001EB800104F12200042223
:102B2000064600F027F958BB04222149304600F040
:102B300021F928BB6FBB31780E223046B2EB111F52
:102B400004D1FDF7ECFA012815D00EE0042231463D
:102B5000684600F01FF915480099026880684A40ED
:102B6000024202D10843401C05D02046FFF72CFF4B
:102B700078B1E07E02E0E07E022801D0112808D181
:102B800004F1120000F016F818B9208B30F0C000E4
:102B900001D00020F8BDA07C0007800E00F10E01DE
:102BA0006180281A20800120F8BD0000FCFA07206F
:102BB000E040000001780907890EFDF76CBB0000BA
:102BC0002DE9F041214C8046214F2078C0070AD0E2
:102BD0002049404600F088F840BB0422FF214046CF
:102BE00000F0EEF810BB1B4D20781435800704D59B
:102BF0002946404600F078F800BB164E207828366B
:102C0000400704D53146404600F06EF8D0B9207830
:102C1000800702D52078000710D42078400702D51D
:102C20002078C0060ED42078C00704D00020387069
:102C30000848BDE8F0812078800703D5012038706E
:102C40002846F6E7022038703046F2E7783A00006E
:102C5000B8010010FCFA07202DE9F0410446DDF828
:102C600018800F461646012A08D0022E06D0062EDE
:102C700004D0112E02D00020BDE8F081194D45216D
:102C80006888401C68802088A174143080B2E37486
:102C9000FDF725FBA0826888FDF721FBE08200207C
:102CA000208384F81A80E676A0833846FFF788FFF1
:102CB0000146042204F11E0000F06CF8042239469B
:102CC00004F1220000F066F804F11200FFF772FF31
:102CD000A08320882230208029782046BDE8F0415A
:102CE000FDF718BAB801001018B50C4601460422C9
:102CF000684600F04FF8206800994840A1680842F3
:102D000001D0002018BD012018BD000038B50446D0
:102D100001460422684600F03DF8064882680098A3
:102D20000243521C01D0002038BD02492046FFF763
:102D3000DBFF38BDFCFA07200C4800218278012A0D
:102D400004D0017080F80110FDF7D9B98170818835
:102D50000122491C8BB28380C1888B4204D1044B71
:102D60001B881944C18042700270EDE730C0072013
:102D7000803A000010B508E003780C78A34201D037
:102D8000002010BD401C491C521E002AF4D1012015
:102D900010BD000030B5134606E000BF054611F82F
:102DA000014B401C2C705B1E002BF7D1104630BD30
:102DB00003E000BF00F8011B521E002AFAD1704741
:102DC0003AB103788B4201D000207047401C521E5C
:102DD000F6E701207047000070B501882A2941D329
:102DE000418A4FF4807399423CD1818A082939D1B4
:102DF000817D062936D1C17D042933D1028B00F1B2
:102E00001204B2F5806F2DD00ADC4FF4007500F18A
:102E10002A009A4217D0AA4224D10422124909E07A
:102E200024304FF41065B2F5006F0FD0AA4219D1CB
:102E300006220E49FFF79EFF002813D02046BDE86A
:102E40007040FFF7E9BC0422074901E00622074968
:102E5000FFF790FF002805D029462046BDE87040C6
:102E6000FFF70EBD70BD0000FCFA07200000001047
:102E70002DE9F84304464188001D0E182588304688
:102E80002946FDF708FA28B9307848B3082801D157
:102E9000707810B10020BDE8F88305F12200FFF73B
:102EA000C9FA00F126070021397079700185804642
:102EB0002A1F311D381DFFF76DFF29463846FDF7E3
:102EC000EAF97880A8F80050802300934046002358
:102ED000012204F11E01FFF7BFFE4046FFF7C8FDC7
:102EE0000120D8E72DE9F05F428800F1040B02EBE6
:102EF0000B050646287B6FF0030101EA90001428B9
:102F00007ED3318881427BD30244081A1FFA80F8AD
:102F1000728006F11201284600F016FB5FEA000AF3
:102F200006F11E076DD000220421381DFDF7BEF901
:102F3000024604213846FDF7B9F90146F07EFDF757
:102F4000C9F901463088FDF7C5F90246318828469F
:102F5000FDF7ACF9C0430004000C51D10AEB4A0163
:102F600001EBCA00F9494FF0100901EB800414F895
:102F70002C0D0B2879D2DFE800F04444C4F9F7F6B1
:102F8000F5F4F3F20600687B410704D5A07840F021
:102F90000800A070CEE1810713D5C00630D5281DEA
:102FA000FFF79AFDA169401C884229D105F108006C
:102FB000FFF792FD6169884222D100BF84F8229018
:102FC000B0E1D4E9041291423FD0C00618D505F112
:102FD00008000746FFF780FD01466069814215D170
:102FE00020610021204600F0FDFCA078221D40F069
:102FF0000800A070A76A238904215046B84701E061
:103000007DE0CCE0A07820F008001DE0A07840072B
:103010001BD53846FFF760FD01466069001F8142FD
:1030200013D12061676A042238883918363107F1D4
:103030003A00FFF7AFFE3A21384600F001FA0420CB
:103040003880A07820F00400A070281DFFF744FD10
:10305000A16988420AD0281DFFF73EFDA169401CE6
:103060008842ABD1A08BE083A8E76AE1A178B8F1F0
:10307000000F41F00800A0700DD0E08958B17188B0
:10308000A66A01EB0B02434605215046B047A169F1
:1030900001EB0800A061687BC00717D0D4E90401E8
:1030A000884213D1221DA56A238902215046A847D0
:1030B000A069401CA0616069401C6061112084F817
:1030C0002200504600F0C2FB08211BE1A178B8F1B4
:1030D000000F21F00800A0700FD084F822906078D3
:1030E000000707D5E089404502D9A0EB080000E0C1
:1030F0000020E081504600F0A9FBA08BE083BDE8F2
:10310000F09F687B410701D50221FBE0C10601D495
:10311000800704D43946284600F024FCF4E7221D39
:10312000A66A238900215046B047C0B329465046BD
:1031300000F054FB00F0FEF92061401C6061281D86
:10314000FFF7CAFC401CA061122084F82200504600
:1031500000F07CFBA07820F00100A07053E0E6E0D6
:10316000BDE0A3E08FE062E036E0FFE7687B410767
:103170007AD4C10714D005F10800FFF7ADFC6169EE
:103180008842BCD1281DFFF7A7FC401CA0616069E4
:10319000206184F82290504600F058FB11E040E096
:1031A000C10616D505F10800FFF796FC6169884253
:1031B000A5D1281DFFF790FCA16988429FD16069C5
:1031C0002061221DA56A238901215046A8470A21B2
:1031D00098E0800793D424E0687B410744D412260A
:1031E00036EA000111D080071BD52946504600F071
:1031F000F5FA281DFFF770FC401CA06184F82260DE
:10320000504600F023FB03217CE005F10800FFF7A6
:1032100063FC61698842B4D12946504600F0DEFA69
:10322000B0E739462846BDE8F05F00F09BBB687BFD
:1032300041077FD4C10718D005F108000646FFF703
:103240004BFC6169884205D03046FFF745FC216997
:10325000884296D1281DFFF73FFC404400F1010051
:10326000A061606920611AE064E0C0067FF547AFA5
:1032700005F10800FFF730FC01466069814297D1F3
:10328000062120613EE0687B410753D4C0073FF42C
:1032900036AF281DFFF720FC4044401CA06184F895
:1032A0002290504600F0D2FA09212BE0687B4107BA
:1032B00040D4C10609D505F10800FFF70DFC014611
:1032C00060698142A7D12061EEE7C007DFD0281DE9
:1032D000FFF702FC404400F10100A0616EE6687B4C
:1032E000410727D4C10612D505F10800FFF7F4FB0A
:1032F0000146606981428ED1206160780221C00759
:1033000000D101212046BDE8F05F00F075BBC00789
:10331000BDD0281DFFF7E0FB4044401CA0611120F8
:1033200084F822005046BDE8F05F00F08FBA687B59
:103330004107CAD5221DA56A238903215046A84703
:10334000DBE7BDE8F05F0520FCF7D8BE3CC00720F6
:103350002DE9F84305464188001D0C18A088FCF7AC
:10336000BEFF082848D30127284EDFF8A48047E095
:103370003078022842D16088FCF7B1FF718888421A
:103380003CD117F0FF0737D0717905F11E09890785
:1033900024D5E08810B30022042105F12200FCF7B7
:1033A00085FF024604214846FCF780FF0146E87E7F
:1033B000FCF790FF8046A088FCF791FF4146FCF7A0
:1033C00089FF8046A088FCF78AFF014642462046D6
:1033D000FCF76CFFC0430004000C0DD12088FCF703
:1033E0007EFF024628884946083883B20093B568B4
:1033F00004F108033846A847BDE8F8830C367F1C63
:1034000098F800008742B3DDF6E70000484200105C
:10341000883A0000084A30B4D2E90034591C01F05F
:103420001F01A14205D0054C44F82300116030BCB7
:10343000704730BCFFF71CBBB0010010B842001051
:1034400070B50180A0F108040F31606821F0030518
:10345000A8420CD9FEF737FD6068411B044802689A
:10346000511A01606560BDE87040FEF727BD70BD70
:103470002CC0072070B5FCF73FFF274800780128D3
:1034800001D1FFF74DF92549D1E90020824241D011
:10349000234A52F82040401C00F01F004860208A58
:1034A000082806D0B0F5C16F2FD12046FFF794FC55
:1034B0002BE000212046FFF71BFB10B304F11E0098
:1034C000042200210546FFF77BFC28B9012204F104
:1034D0000A012846FFF700F8E07E012806D00228FE
:1034E00008D006280ED011280FD107E02046FFF79C
:1034F000BFFC0AE02046FCF700FF06E02046FCF790
:1035000005FE02E02046FCF703FE2046BDE87040C1
:10351000FFF7AEBA70BD000031C00720B001001047
:10352000B84200100A0E02700A0C42700A0A827039
:10353000C170704703484FF6FF71008801EB0040EF
:103540007047000034C007202DE9F04105460127EF
:10355000234C01F10C08234E17E02078022812D0EA
:103560002888FCF7BCFE218988420CD16888FCF7CA
:10357000B6FE6189884206D104224146201DFFF72C
:10358000F9FB012809D02C347F1C30788742E4DD18
:10359000687B10F0150F20D102E0F8B2BDE8F08191
:1035A00080071AD501270E4C14E0207802280FD18D
:1035B0006888FCF794FE6189884209D1042241465B
:1035C000201DFFF7E7FB2888FCF789FE2081E4E750
:1035D0002C347F1C30788742E7DD0020DEE70000D6
:1035E0003CC00720893A00002DE9F0477448754B2C
:1035F000007898B1754A0021734814780BE0028C6A
:103600000AB1521E0284012C03D1C28B0AB1521E90
:10361000C2832C30491C1A789142F0DB00264FF00F
:1036200011084FF0020A6A4F6A4D9946A8E02978BE
:1036300099F80000814201D9012028702878624958
:1036400000EB400202EBC00001EB800414F82C0DEB
:103650000B2877D2DFE800F0909090595977867761
:10366000776C0600D4E90420A178A0EB0200C9071A
:1036700000D038B1E18B91B100287DD0208C00289A
:103680007AD120E0A07820F00100A07084F8228098
:103690006069401C6061287800F0D8F811E084F877
:1036A00022806069401C6061287800F0CFF8A07823
:1036B000221D40F00800A070A66A23890221287804
:1036C000B047052175E094F82300A8B104F11C046B
:1036D000401EE0714FF01800A071A1684FF0000388
:1036E00028780A88164600F0C3F8A0680680388853
:1036F000A080208860805FE00021204600F072F901
:10370000A07840F00800A07042E0208CD0B994F876
:103710002300E0B3401E84F82300287800F096F8D8
:1037200021783888032901D02B480088208443E081
:10373000208C38B960785146C00700D1012120465D
:1037400000F05AF918E0208CB0B994F82300F0B1D9
:10375000401E84F8230084F82280287800F076F850
:103760003888E3E7208C38B994F8230078B1401EFC
:1037700084F82300388820842878401C2870761C20
:1037800099F800108E42FFF452AFBDE8F087FFE7D2
:10379000042084F82200287800F058F8221DA66A38
:1037A000238903212878B04760785146C00700D1AB
:1037B0000121204600F020F92878401C2870E4E719
:1037C00030C00720893A00003CC0072031C00720E4
:1037D0008C3A0000AC010010903A0000F0B50A7B72
:1037E0006FF0030303EA9204143C2BD0143100223F
:1037F00040F2B45324E08D5C002D23D0012D02D083
:10380000022D18D101E0521C1AE08E187578042D93
:1038100011D100EB40050C4F05EBC005768807EB96
:1038200085052C3D76BA9E4200D91E46AE81AE7803
:1038300046F00206AE708D186D78002D02D02A4435
:10384000A242D8D3F0BD00003CC0072070B50546A9
:103850003A20FEF7EFFD0446002301461A462846AB
:1038600000F006F82046BDE87040FFF701B90000FF
:103870002DE9F8430D461746984678B1374909783F
:10388000491C88420AD800EB400101EBC0003449D2
:1038900001EB80042C3CA089B84202D20020BDE894
:1038A000F88305F126066089FCF719FD3080208930
:1038B000FCF715FD70802169301D4144FFF732FE91
:1038C00006F10800A169FFF72DFE5020307394F82F
:1038D00022007073E089FCF702FDF0810020308245
:1038E0007082A07881070ED520F00200A07040F20F
:1038F0000240688705F13A07A089FCF7F0FC788060
:10390000602030730427201DFFF75AF9002204219C
:10391000FCF7CCFC02460421201DFCF7C7FC014645
:103920000620FCF7D7FC01461437B8B28046FCF7F6
:10393000D1FC024639463046FCF7B8FCC04380B2A1
:10394000FCF7CDFC3082A5F8008080230093E3785B
:103950000622211D2846FFF77FF9A0E7893A0000DB
:103960003CC0072070B51D4E05461D4B3278407B8C
:1039700002EB420404EBC20203EB820440072CD4A6
:103980000422201DFFF706FA2888FCF7A8FC2081F6
:103990006888FCF7A4FC60810020E070697BC906A0
:1039A0000BD505F10800FFF797F82061042084F893
:1039B0002200281DFFF790F807E02061142084F80A
:1039C0002200281DFFF788F8401CA0613078BDE870
:1039D0007040401CC0B2FFF739BF70BD893A00008B
:1039E0003CC0072070B50446406A0D4608B1FFF799
:1039F0003FF8656270BD000070B504460170164D59
:103A000000200B291BD2DFE801F01C1C1C200C1528
:103A100015151506120011490988218484F8230020
:103A20000DE00F490F4A09882184117805E0A08B29
:103A3000E0830AE02A880121228484F82310E083AD
:103A400070BD00212046FFF7CDFF0749288820845C
:103A5000087884F8230070BD8C3A00008E3A00008C
:103A6000923A0000943A00008A3A0000014901208D
:103A70008870704730C00720390000000040000007
:103A800064000A0096000402050705009001140076
:103A9000C800640007000000000000007F3E1C0812
:103AA0000000080C0E0C08000000000000000000E0
:103AB0000000000000000000000000000000000006
:103AC00000000000000000000000000000000000F6
:103AD00000000000000000000000000000000000E6
:103AE00000000000000000000000000000000000D6
:103AF00000000000000000000000000000000000C6
:103B000000000000000000000000000000000000B5
:103B100000000000000000000000000000000000A5
:103B20000000000000000000000000000000000095
:103B30000000000000000000000000000000000085
:103B40000000000000000000000000000000000075
:103B500000000000000000000000000000005F0006
:103B60000000000000000000143E143E1400242A4F
:103B70007F2A120023130864620036495522500040
:103B8000000000060000003E410000000000413E31
:103B9000000014083E08140008083E080800005001
:103BA00030000000080808080800000060600000FD
:103BB0004020100804003E5149453E0000427F402D
:103BC00000004261514946002141454B3100181423
:103BD000127F10002745454539003C4A49493000CD
:103BE000017109050300364949493600064949294A
:103BF0001E000036360000000056360000000008A7
:103C000014220000141414141400002214080000DC
:103C1000020151090600324979413E007E1111111D
:103C20007E007F49494936003E41414122007F41A3
:103C300041221C007F49494941007F0909090100CF
:103C40003E41415172007F0808087F0000417F41DA
:103C500000002040413F01007F08142241007F40C6
:103C6000404040007F020C027F007F0408107F006C
:103C70003E4141413E007F09090906003E41512174
:103C80005E007F0919294600464949493100010172
:103C90007F0101003F4040403F001F2040201F00A7
:103CA0003F4038403F006314081463000708700861
:103CB0000700615149454300007F410000000408AE
:103CC000102040000000417F0000040201020400B7
:103CD0004040404040000000000000002054545488
:103CE00078007F4844443800384444442000304839
:103CF00048507E00385454541800087E09010200D0
:103D0000085454543C007F100808700000447D4063
:103D100000002040443D00007E1028440000004187
:103D20007F4000007C04180478007C0804047800BC
:103D30003844444438007C14141408000814141443
:103D40007C007C0804040800485454542000043FBC
:103D5000444020003C4040207C001C2040201C00AF
:103D60003C4030403C004428102844000C50505047
:103D70003C004464544C44000008364100000000FC
:103D80007F00000000413608000000000000000035
:103D90000000000000000000000000000000000023
:103DA0000000000000000000000000000000000013
:103DB00000000000000000000000040607060400E8
:103DC00000000000000000000000000000000000F3
:103DD00000000000000000000000000000000000E3
:103DE00000000000000000000000000000000000D3
:103DF00000000000000000000000000000000000C3
:103E000000000000000000000000000000000000B2
:103E100000000000000000000000000000000000A2
:103E20000000000000000000000000000000000092
:103E30000000081C3E7F00000000000000007F3EE4
:103E40001C080008183818080000000000000000D6
:103E50000000000000000000000000000000000062
:103E600000000000000000000000000000001C3EF8
:103E70003E3E1C00000000000000000000000000AA
:103E80000000000000007C555445000000000000C8
:103E90000000000000000000000000000000000022
:103EA0000000000000000000000000000000000012
:103EB00000000000000000060909060000242E246E
:103EC00000000000000000000000000000000000F2
:103ED00000000000000000000000000000000000E2
:103EE0000000000000003855545518007C10207B5D
:103EF0000B000000000000000000000000000000B7
:103F00000000000000000000000000000000002091
:103F10003038302000007E1111117E007F49494960
:103F200031007F49494936007F0101010300603EAD
:103F300021217F007F494949410077087F087700A8
:103F40004149494936007F2010087F007F20110831
:103F50007F007F0814224100407E01017F007F0224
:103F60000C027F007F0808087F003E4141413E006F
:103F70007F0101017F007F09090906003E4141419F
:103F8000220001017F0101004728100807001C22C0
:103F90007F221C006314081463007F404040FF0030
:103FA000070808087F007F407F407F007F407F40F8
:103FB000FF00017F484870007F4438007F007F4841
:103FC00048483000224149493E007F083E413E00BA
:103FD000462919097F002054545478003C4A4A4924
:103FE00031007C54542800007C0404040C00603828
:103FF00024247C003854545418006C107C106C003D
:104000004444545428007C2010087C007C20120872
:104010007C007C1028440000403804047C007C08AC
:1040200010087C007C1010107C0038444444380098
:104030007C0404047C007C141414080038444444B8
:10404000000004047C0404000C5050503C00182470
:104050007E2418004428102844007C404040FC0086
:10406000001C10107C007C407C407C007C407C402C
:10407000FC00047C505020007C5020007C007C50D0
:10408000505020002844545438007C1038443800E4
:10409000085434147C20202000FFEDE200F4E5E217
:1040A00000ECE0F000E0EFF000ECE0E900E8FEED0D
:1040B00000E8FEEB00E0E2E300F1E5ED00EEEAF2FD
:1040C00000EDEEFF00E4E5EA0030313233343536FE
:1040D00037383941424344454600FFFFFFFFFFFFA9
:1040E000FFFFFFFF2441000000000010BC010000A2
:1040F0005C0200004041000000C007203C000000BE
:10410000E802000040410000BC0100107C410000BA
:10411000242400007C4100003CC00720FC42000039
:10412000242400006501020304026D140CFF48659D
:104130006C6C6F20576F726C64012E0210010000CE
:10414000000000000000000000000000000000006F
:1041500000000000000000000000000000093D0019
:10416000000000000000000000000000000000004F
:0C41700000000000000000000000000043
:04000005000000CD2A
:00000001FF
